:100000000C9456010C9487010C9487010C94870181
:100010000C9487010C9487010C9487010C94870140
:100020000C9487010C9487010C9487010C94870130
:100030000C9487010C9487010C9487010C94870120
:100040000C9487010C9487010C9487010C94870110
:100050000C9487010C9487010C9487010C94A31BCA
:100060000C9487010C9410160C94E6150C948701DF
:100070000C9487010C9487010C9487010C948701E0
:100080000C9487010C9487010C9487010C948701D0
:100090000C9487010C9487010C9487010C948701C0
:1000A0000C9487010C9487010C9487010C948701B0
:1000B0000C9487010C9487010C9487010C948701A0
:1000C0000C9487010C9487010C9487010C94870190
:1000D0000C9487010C9487010C9487010C94870180
:1000E0000C948701CF1AD21AC11AC51AC91A091B52
:1000F000D61ADA1AE01AE41AE81AEE1AF21AF61AFE
:10010000091BFC1A001B041B0C94001B0C940E15FD
:100110000C9414260C94B4140C94C51A0C94E81A7C
:100120000C94DA1A0C94091B0C94E41A0C94D6144F
:100130000C94F21A0C94041B0C94E01A0C94C11A3F
:100140000C94CF1A0C94F61A0C9486250C94FC1A75
:100150000C94C8140C94D21A0C94EE1A0C94C91A6C
:100160000C94B6150C945B150C94D61A0C94A5142B
:100170000C94E01500010203040511121314151666
:100180000A0B0C0D0E0F646573657269616C697AF8
:10019000654A736F6E2829206661696C65643A2030
:1001A0000000002200250028002B002E0031003422
:1001B0000002010000050108010B010000210024DC
:1001C0000027002A002D0030003300010100000448
:1001D0000107010A010505050507050808080802C9
:1001E0000202020A0A0808040404040101010101D0
:1001F0000101010303030303030303040707070CBF
:100200000C0C0C0C0C0C0C02020202060606060674
:100210000606060B0B0B0B0B0B0B0B010210202021
:10022000080810204010204080020102010804024A
:1002300001010204081020408080402010080402C0
:100240000180040201804020100804020108040219
:10025000010102040810204080010204081020401F
:100260008000000A0B02090C0D0E080703040100B0
:10027000000000000000000000000000000000007E
:10028000000000000000000000000000001211103B
:10029000000000000000000000000000000000005E
:1002A00000000000000000008625142611241FBE57
:1002B000CFEFD1E2DEBFCDBF00E00CBF26E0AEEE57
:1002C000B3E001C01D92A237B207E1F713E0A0E04E
:1002D000B2E0E6E7F5E500E00BBF02C007900D9243
:1002E000AE3EB107D9F711E0C5E5D1E000E006C0A8
:1002F00021970109802FFE010E945C28C435D10797
:1003000080E00807A9F70E94ED1B0C94A92A0C9421
:100310000000CF93DF93DC01EB01EC81FD818A814A
:100320009B810896E817F90718F480E090E021C057
:100330003897FD83EC833097C1F31296CD91DC9111
:100340001397209751F0CF018C1B9D0B23E09595BF
:1003500087952A95E1F78D8303C01196FC93EE9360
:100360001396FC93EE9312971582148217821682CD
:10037000CF01DF91CF910895CF93DF93DB01FC0193
:100380006081718161157105F9F0FB010190002018
:10039000E9F7AF01461B570B1296CD91DC911397ED
:1003A000CE01840F951F14962D913C911597281717
:1003B000390750F013969C938E931297209731F043
:1003C000CE010E946F2A02C0C0E0D0E0CE01DF91D2
:1003D000CF910895FC01248125FF05C08081918182
:1003E0000E946E18089580E090E00895FC018285D7
:1003F000811111C0A281B38184819581A817B907A9
:1004000011F4118606C0CD010196938382838C91ED
:10041000818781E08287818508951F93CF93DF9341
:10042000EC01CE010E94F6018B302CF489300CF5E2
:100430008823C1F032C08032E1F08F3219F08D3064
:1004400061F517C01A86CE010E94F6018A3219F0B2
:100450008F32C9F01FC01A8610E0CE010E94F6014B
:10046000811103C081E090E01AC08F3221F4112382
:1004700011F01A86D6CF11E08A3209F010E01A8600
:10048000ECCF8A3071F21A86CE010E94F6018111FA
:10049000F8CFE8CF82E090E002C080E090E0DF910A
:1004A000CF911F910895EF92FF920F931F93CF93D7
:1004B000DF93EC018B017A018C818F7749F460E244
:1004C000CE0104960E941419198218821B821A8286
:1004D0008C8185FF08C0B801888199810E946E18BF
:1004E000009789F403C080E090E00DC0B701CE0111
:1004F0000E948901FC01892BB1F384818F77848369
:1005000017830683CF01DF91CF911F910F91FF9049
:10051000EF900895CF92DF92EF92FF92CF93DF9307
:10052000CDB7DEB729970FB6F894DEBF0FBECDBFAB
:10053000009709F449C0FC0184818F77873028F443
:10054000853050F4833068F43FC08830E9F5C080CE
:10055000D180E280F3801FC080819181A281B3812C
:1005600014C060817181CE0101960E94FB0C8985C7
:10057000863039F0883041F5CD80DE80EF80F88418
:100580000AC089819A81AB81BC81009721E0A207D2
:10059000B105E0F019C020E030E0A901C701B601C3
:1005A0000E940D2887FD10C020E03FEF4FE757E481
:1005B000C701B6010E942C26181634F0C701B601F7
:1005C0000E94DE27CB0102C080E090E029960FB6A2
:1005D000F894DEBF0FBECDBFDF91CF91FF90EF90BB
:1005E000DF90CF900895FC0180819181892B21F4C7
:1005F00060E070E0CB01089560EE75E180E090E08E
:100600000895FC0184819581009799F022813381BE
:10061000468157812417350718F0158214820895F2
:10062000A9014F5F5F4F53834283FC01E20FF31F29
:10063000608308958F929F92AF92BF92CF92DF9284
:10064000EF92FF920F931F93CF93DF93CDB7DEB757
:10065000CD54D1090FB6F894DEBF0FBECDBF8C01CB
:100660007B010E940D022E969FAF8EAF2E97CE017A
:10067000845B9F4F0E94F302672B09F086C080FDC8
:1006800084C0C8010E94F6018B3549F560E4C701BA
:1006900004960E941419D70111961C921E9213966B
:1006A0001C921E921297F8018085882359F1C80187
:1006B0000E94F6018B3509F096C1D8011A961C925A
:1006C000C8010E940D029A838983CE0101960E947F
:1006D000F302672B09F0BAC180FDB8C15DC08B374A
:1006E00071F560E2C70104960E941419D7011196B2
:1006F0001C921E9213961C921E921297F8018085EE
:10070000811102C085E0B2C1C8010E94F6018B3799
:1007100009F069C1D8011A961C92C8010E940D0205
:100720002C969FAF8EAF2C97CE01865B9F4F0E9479
:10073000F302672B09F073C180FD71C198C0C80135
:100740000E94F601873209F471C1823209F46EC148
:10075000C8010E94F601C82ECE0101965C01D12C81
:100760008C2D0E94510E882309F482C1FFE3DF160D
:1007700009F47EC1F8011286D394D501CD925D01B2
:10078000C8010E94F601C82EEBCF2D968FAD2D9794
:100790002E969FAD2E97E6C1C8010E94F6018D35B9
:1007A000B1F1D8016D917C91C7010E948901BC0112
:1007B000892B09F451C0F801908591509087C801A8
:1007C0000E941A039A838983D80118968C911897EE
:1007D0008F5F18968C93CE0101960E94F302672BCF
:1007E00009F034C180FD32C1C8010E940D029A8314
:1007F0008983CE0101960E94F302672B09F026C17E
:1008000080FD24C1C8010E94F6018D3539F5F8013B
:1008100012862BC1C8010E94F6018C3209F0E3C098
:10082000F8011286C8010E940D022C969FAF8EAF70
:100830002C97CE01865B9F4F0E94F302672B09F035
:10084000EEC080FDECC0D8016D917C91C7010E9483
:1008500089016C01892B89F483E008C1C8010E94D9
:10086000F6018C3209F0BFC0F80112869ACFC80198
:100870000E94F6018D3739F7CACFC8010E94F601F0
:10088000873211F08232A9F4BE016F5B7F4FC8013D
:100890000E946B0E2C969FAF8EAF2C97CE01865B7D
:1008A0009F4F0E94F302672B09F0B9C080FF5BC025
:1008B000B6C0D8011696ED91FC911797228133812D
:1008C0008481958193838283FA83E9831C821B82CE
:1008D0003E832D83821B930B98878F83C8010E94D0
:1008E000F601B82E8823E1F18B2D0E94510E88234A
:1008F00089F1F80112866B2DCE0101960E94010349
:10090000C8010E94F601B82E0E94510E8111F1CF4C
:1009100060E0CE0101960E9401038D819E81892BAA
:1009200071F0E981FA818B819C812F813885821B4E
:10093000930B22813381820F931F938382838D8156
:100940009E8123969FAF8EAF2397892B31F080E055
:1009500090E0A0CF82E090E09DCF83E090E09ACF3E
:1009600081E090E097CF23962EAD3FAD2397F6011F
:1009700084818068848337832683C8010E940D02A6
:100980002C969FAF8EAF2C97CE01865B9F4F0E9417
:10099000F302672B09F043C080FD41C0C8010E94EB
:1009A000F6018A3301F5D8011A961C921A97189607
:1009B0008C911897815018968C93B601C8010E94AB
:1009C0001A032C969FAF8EAF2C97F80180858F5F0E
:1009D0008087CE01865B9F4F0E94F302672BF9F45C
:1009E00080FF03C01CC082E041C0C8010E940D020C
:1009F0002C969FAF8EAF2C97CE01865B9F4F0E94A7
:100A0000F302672B61F480FD0AC0C8010E94F60161
:100A10008D3709F0FFCED8011A961C9226C02B966E
:100A20008FAD2B972C969FAD2C979CC0BE016F5B12
:100A30007F4FC8010E946B0E9A838983CE01019675
:100A40000E94F302672B11F480FF03C089819A8111
:100A500089C023960EAD1FAD239764E0C7010496AD
:100A60000E941419D7010D931C9380E090E07AC086
:100A7000E1E0F0E0EC0FFD1FED0DF11D108289812A
:100A8000843799F465E0C70104960E94141981E047
:100A900090E0A0E0B0E0F70180839183A283B3836C
:100AA00090E0F4E0DF125EC01AC0863689F465E09B
:100AB000C70104960E941419D7011D921D921D9220
:100AC0001C92139781E090E0B5E0DB124BC007C0A9
:100AD0008E3639F481E090E0E4E0DE1243C080E03D
:100AE00041C0BE016F5F7F4FCE018F5B9F4F0E9461
:100AF000FB0C25968CAC9DACAEACBFAC25972A9672
:100B00008FAD2A97873081F08830D1F0863009F098
:100B10006ACF66E0C70104960E941419F70180822B
:100B20009182A282B382A1CF67E0C70104960E949E
:100B30001419D7018D929D92AD92BC92139795CFC7
:100B400029968CAC9DACAEACBFAC299768E0C701D0
:100B500004960E941419D7018D929D92AD92BC9279
:100B6000139783CFC35BDF4F0FB6F894DEBF0FBE82
:100B7000CDBFDF91CF911F910F91FF90EF90DF904C
:100B8000CF90BF90AF909F908F900895FC0180818F
:100B900091810C94FC28CF92DF92EF92FF92CF9339
:100BA000DF93009769F06A017B01EC0166E004962F
:100BB0000E941419C882D982EA82FB8281E001C0B6
:100BC00080E0DF91CF91FF90EF90DF90CF9008957C
:100BD000CF92DF92EF92FF920F931F93CF93DF9309
:100BE0007C016B018A01FC0180819181FC0164819F
:100BF0007581640F751F0E944616E6010C0D1D1DC0
:100C0000C017D10739F06991F701808191810E9465
:100C10006D16F6CF80E090E0DF91CF911F910F919C
:100C2000FF90EF90DF90CF900895FC012581222363
:100C300031F0F8E02F02800D911D1124089580E01D
:100C400090E008958F929F92AF92BF92CF92DF92E1
:100C5000EF92FF920F931F93CF93DF931F921F92F8
:100C6000CDB7DEB77C016A01FC01118210821382CC
:100C70001282FB01008111810115110509F43FC0A9
:100C8000F801A680B780A114B10441F18481B601B6
:100C900087FF18C0C7010E9489014C01BA82A9824E
:100CA000892B79F1B601CE0101960E94BC019C010D
:100CB000892B39F1F40194819068948337832683DA
:100CC000C40112C0C7010E948901009759F0FC01BC
:100CD00024812F772483B782A68204C0B601C7017E
:100CE0000E948901009769F0A601B8010E9491064F
:100CF000882339F0C8010E9415068C01BDCF81E020
:100D000001C080E00F900F90DF91CF911F910F9164
:100D1000FF90EF90DF90CF90BF90AF909F908F901B
:100D200008958F929F92AF92BF92CF92DF92EF92EF
:100D3000FF920F931F93CF93DF931F921F92CDB714
:100D4000DEB78C017B015A01FB0164816F77049649
:100D50006C016430C1F018F4623051F15BC0603254
:100D600019F0603411F056C060E2C6010E941419F7
:100D7000F8011182108213821282A501B701C80105
:100D80000E94220655C0F701808191819A83898350
:100D9000BA01CE0101960E94BC017C01892BA1F110
:100DA00064E0C6010E941419F801F182E0823FC09C
:100DB000F701828093806081718161157105A9F0CE
:100DC000FA01E280F380C701880D991D24813581E5
:100DD0002817390750F093838283E114F10439F026
:100DE000A401C7010E946F2A02C0E12CF12CE1147A
:100DF000F10451F062E0C6010E941419F801F18279
:100E0000E0829382828213C060E0C6010E941419BE
:100E100080E00EC0C6010E941419F7018081918103
:100E2000A281B381F80180839183A283B38381E09F
:100E30000F900F90DF91CF911F910F91FF90EF9046
:100E4000DF90CF90BF90AF909F908F900895CF93F9
:100E5000DF93EC0188819981461B570BDC01ED91F2
:100E6000FC910280F381E02D19952A813B81820F4C
:100E7000931F9B838A83DF91CF910895EF92FF9216
:100E80001F93CF93DF93CDB7DEB766970FB6F89475
:100E9000DEBF0FBECDBF9C01CB01FE0177964E2F6A
:100EA0001F2F5AE0E52EF12CB7010E942628805D05
:100EB0008293CB010097C1F7512FBF01C9010E9456
:100EC000270766960FB6F894DEBF0FBECDBFDF9141
:100ED000CF911F91FF90EF9008952F923F924F92E4
:100EE0005F926F927F928F929F92AF92BF92CF92BA
:100EF000DF92EF92FF920F931F93CF93DF9300D077
:100F00001F92CDB7DEB71C016A017B0186E0D101DB
:100F10001A968C9320E836E948E15BE4C701B601F4
:100F20000E940D2887FD3AC05CE5852E52E0952E83
:100F30006CE2A62E62E0B62EE0E2F0E0FA83E983EE
:100F400000E010E0A7019601D4019E918E917E9160
:100F50006E914D010E942C2618167CF0F501248913
:100F6000358946895789C701B6010E9492266B01CF
:100F70007C0189819A81080F191FA981BA81B595D1
:100F8000A795BA83A983B4E0AB1AB108E4E48E163E
:100F9000E2E09E06B9F6BB24BA9408C080E290E075
:100FA0009A83898335E0B32E00E010E020E030E042
:100FB000A901C701B6010E940D281816C4F52CEA34
:100FC00035EC47E257E3C701B6010E942C261816FC
:100FD00074F19FEFB91659F1AB2DB4E0AB024001AB
:100FE0001124F401EC5EFD4FA7019601608171812F
:100FF000828193810E940D2818168CF4F401EC5B19
:10100000FD4F2081318142815381C701B6010E9489
:1010100092266B017C01E981FA810E1B1F0B8981ED
:101020009A81959587959A838983BA94D2CFD10175
:1010300019961C930E931897C701B6010E94DE27DC
:1010400069837A838B839C83F101608371838283BC
:1010500093832B013C0190E4892E92E4992E9FE02A
:10106000A92EB12CFAE04F16510461047104E0F08E
:10107000C501B4012AE030E040E050E00E943A2887
:1010800049015A01D1011A968C911A9781501A96EA
:101090008C93C301B2012AE030E040E050E00E94AE
:1010A0003A2829013A01DECF69817A818B819C81BE
:1010B0000E9431269B01AC01C701B6010E946A273C
:1010C0006B017C01C501B4010E9431269B01AC017A
:1010D000C701B6010E9492262B013C010E94DE2727
:1010E0006B017C010E9431269B01AC01C301B2015E
:1010F0000E946A279B01AC010E946B270E94DE2799
:10110000C60ED71EE81EF91EC814D904EA04FB0453
:1011100030F4F101C482D582E682F78226C0D10183
:1011200014961D921D921D921C92179789819A8187
:10113000AB81BC810196A11DB11DF101808391831A
:10114000A283B3830115110581F00A97A105B105AA
:1011500060F0C80101969187808781E090E0A0E06F
:10116000B0E080839183A283B3838AE0C82ED12C20
:10117000E12CF12CD10114966D917D918D919C9172
:101180001797A70196010E943A28672B682B692BB5
:1011900059F4F101828518163CF424833583468383
:1011A000578381508287E6CF0F900F900F900F905A
:1011B000DF91CF911F910F91FF90EF90DF90CF9033
:1011C000BF90AF909F908F907F906F905F904F9067
:1011D0003F902F900895CF93DF93EC018881998100
:1011E000DC01ED91FC910190F081E02D19952A81AF
:1011F0003B81820F931F9B838A83DF91CF91089558
:101200008F929F92AF92BF92CF92DF92EF92FF9216
:101210000F931F93CF93DF93CDB7DEB766970FB6CB
:10122000F894DEBF0FBECDBF7C018E01095E1F4F5B
:1012300068018AE0882E912CA12CB12CCB01BA0137
:10124000A50194010E943A28942F852F605DF80132
:1012500062938F01A901692F782F4115510561050E
:10126000710561F7A601BF01C7010E9427076696B5
:101270000FB6F894DEBF0FBECDBFDF91CF911F91A7
:101280000F91FF90EF90DF90CF90BF90AF909F9025
:101290008F9008958F929F92AF92BF92CF92DF92DC
:1012A000EF92FF920F931F93CF93DF93CDB7DEB7EB
:1012B00066970FB6F894DEBF0FBECDBF7C018E01DE
:1012C000095E1F4F68018AE0882E912CA12CB12C59
:1012D000CB01BA01A50194010E943A28942F852FD1
:1012E000605DF80162938F01A901692F782F411584
:1012F00051056105710561F7A601BF01C7010E9493
:101300001A1966960FB6F894DEBF0FBECDBFDF91F7
:10131000CF911F910F91FF90EF90DF90CF90BF90F2
:10132000AF909F908F900895CF93DF93EC01FB01D6
:1013300001900020E9F73197AF01461B570B8881D8
:1013400099810E94E8052A813B81820F931F9B832C
:101350008A83DF91CF910895FF920F931F93CF93CC
:10136000DF936115710549F46BEA72E0DF91CF916B
:101370001F910F91FF900C9494098B01EC0162E294
:10138000CE010E945B19F80161918F01662351F033
:10139000E9EAF3E0F080FF2099F38181681759F0C2
:1013A0003296F8CF62E2CE01DF91CF911F910F917B
:1013B000FF900C945B196CE5CE010E945B196F2DB8
:1013C000DFCF4F925F926F927F92AF92BF92CF9298
:1013D000DF92EF92FF920F931F93CF93DF93CDB7DE
:1013E000DEB76B970FB6F894DEBF0FBECDBF7C01A2
:1013F0008B01FC0184818F77853009F4C1C068F4CA
:10140000813008F4CCC0833008F49FC0F7016081BC
:101410007181C8010E94AC091FC1883009F190F4A4
:10142000863009F4A4C0873009F0B9C0F701C08044
:10143000D180E280F3806DE2C8010E945B19B701A0
:10144000A6019AC0803209F458C0803409F0A7C0C0
:101450006BE5C8010E945B19F701E080F18048C08C
:10146000F701C080D180E280F380A7019601C70117
:10147000B6010E942C26882319F068EB73E091C016
:1014800020E030E0A901C701B6010E942C2687FFA9
:1014900008C06DE2C8010E945B19F7FAF094F7F8F2
:1014A000F09420E030E0A901C701B6010E942C268B
:1014B000882309F47AC0A7019601C701B6010E94EA
:1014C0006B27A70196010E942C2681116EC06AEC41
:1014D00073E067C0B801C7010E94E109C7010E941B
:1014E00015067C01892B39F06CE2C8010E945B195A
:1014F000E114F10479F76DE524C06BE7C8010E949F
:101500005B19F701E080F180E114F104C9F0F70103
:1015100066817781C8010E94AC096AE3C8010E9414
:101520005B19B801C7010E94E109C7010E941506B5
:101530007C01892B29F06CE2C8010E945B19E4CF81
:101540006DE7C8010E945B1987C0F7014281538192
:1015500060817181F801808191810E94E805F80124
:1015600022813381820F931F9383828375C0F70199
:101570004081518162817381C8010E944A096CC017
:10158000F70180819181A281B381892B8A2B8B2BDA
:1015900019F06FEB73E005C064EC73E002C06BEA16
:1015A00072E0C8010E94940957C05E01F1E1AF0EDC
:1015B000B11CB701A601C5010E946D0749895A896E
:1015C0006B897C89C8010E944A09DB8CDD2029F1E6
:1015D0006D897E898F89988DCD2C75012AE0422EE8
:1015E000512C612C712CCA94FFEFCF1659F0A30136
:1015F00092010E943A28605DF70162937F01B90170
:10160000CA01F1CFB5016D1971098EE2FB01829318
:10161000BF01A501C8010E941A19898D9A8D97FFF3
:101620000DC06CEB73E0C8010E949409698D7A8D3E
:10163000719561957109C8010E942C19898D9A8D47
:10164000181619064CF465E6C8010E945B19698DED
:101650007A8DC8010E942C196B960FB6F894DEBFE4
:101660000FBECDBFDF91CF911F910F91FF90EF90F3
:10167000DF90CF90BF90AF907F906F905F904F9032
:101680000895CF93DF93EC0188819981FB0101904C
:101690000020E9F73197AF01461B570BDC01ED91B4
:1016A000FC910280F381E02D19952A813B81820F04
:1016B000931F9B838A83DF91CF910895FF920F93AD
:1016C0001F93CF93DF936115710549F46BEA72E0C4
:1016D000DF91CF911F910F91FF900C94410B8B01E3
:1016E000EC0162E2CE010E94EB08F80161918F01EA
:1016F000662351F0E9EAF3E0F080FF2099F381815D
:10170000681759F03296F8CF62E2CE01DF91CF919F
:101710001F910F91FF900C94EB086CE5CE010E9495
:10172000EB086F2DDFCF4F925F926F927F92AF9257
:10173000BF92CF92DF92EF92FF920F931F93CF93BE
:10174000DF93CDB7DEB76B970FB6F894DEBF0FBE51
:10175000CDBF7C018B01DC0114968C918F77853095
:1017600009F4C8C068F4813008F4D3C0833008F4A9
:10177000A1C0F70160817181C8010E945E0B26C182
:10178000883009F190F4863009F4ABC0873009F055
:10179000C0C0D701CD90DD90ED90FC906DE2C80106
:1017A0000E94EB08B701A601A1C0803209F458C01D
:1017B000803409F0AEC06BE5C8010E94EB08D70188
:1017C000ED90FC9048C0F701C080D180E280F380AA
:1017D000A7019601C701B6010E942C26882319F0A3
:1017E00068EB73E098C020E030E0A901C701B601C2
:1017F0000E942C2687FF08C06DE2C8010E94EB08FA
:10180000F7FAF094F7F8F09420E030E0A901C7016E
:10181000B6010E942C26882309F481C0A7019601F5
:10182000C701B6010E946B27A70196010E942C26D2
:10183000811175C06AEC73E06EC0B801C7010E94E7
:10184000930BC7010E9415067C01892B39F06CE2CD
:10185000C8010E94EB08E114F10479F76DE526C098
:101860006BE7C8010E94EB08F701E080F180E1140A
:10187000F104D9F0D70116966D917C911797C801A4
:101880000E945E0B6AE3C8010E94EB08B801C70121
:101890000E94930BC7010E9415067C01892B29F039
:1018A0006CE2C8010E94EB08E2CF6DE7C8010E941C
:1018B000EB088CC0DB018D919C91F7014281538133
:1018C00060817181DC01ED91FC910280F381E02D5A
:1018D0001995F80122813381820F931F93838283AC
:1018E00075C0F7014081518162817381C8010E94F6
:1018F00000096CC0F70180819181A281B381892B9D
:101900008A2B8B2B19F06FEB73E005C064EC73E04E
:1019100002C06BEA72E0C8010E94410B57C05E0131
:10192000F1E1AF0EB11CB701A601C5010E946D0720
:1019300049895A896B897C89C8010E940009DB8C1E
:10194000DD2029F16D897E898F89988DCD2C7501D7
:101950002AE0422E512C612C712CCA94FFEFCF1635
:1019600059F0A30192010E943A28605DD7016E935D
:101970007D01B901CA01F1CFB5016D1971098EE27E
:10198000FB018293BF01A501C8010E942707898D31
:101990009A8D97FF0DC06CEB73E0C8010E94410B5C
:1019A000698D7A8D719561957109C8010E943E0714
:1019B000898D9A8D181619064CF465E6C8010E94A7
:1019C000EB08698D7A8DC8010E943E076B960FB6B1
:1019D000F894DEBF0FBECDBFDF91CF911F910F9165
:1019E000FF90EF90DF90CF90BF90AF907F906F907F
:1019F0005F904F9008954F925F926F927F928F9277
:101A00009F92AF92BF92EF92FF920F931F93CF934B
:101A1000DF938C01EB0188818B3231F08D3229F418
:101A20002196FF24F39402C02196F12C8881982FEF
:101A30009F7D9E3429F480E090E0A0ECBFE70FC1C9
:101A4000993409F4C0C090ED980F9A3018F08E3296
:101A500009F00DC160E070E0CB01FE012191A0ED25
:101A60008A2E820E39E0381508F16A3929E97207A1
:101A7000820729E19207E0F4AAE0B0E09B01AC0103
:101A80000E945027912CA12CB12C240135014094A7
:101A9000509460947094461657066806790640F094
:101AA000680D791D8A1D9B1DEF01D7CF222339F0C8
:101AB000E12CEAE08E2E912CA12CB12C13C0F80160
:101AC00060837183828393830E943126F80164834B
:101AD000758386839783FF2011F087E001C086E03D
:101AE000F801C3C061157105F0E88F07910540F05A
:101AF000A50194010E943A28CA01B901E394F2CFEA
:101B0000FE01299130ED320F3A3010F4E394F8CF12
:101B10002E32F1F4EF012196FE012196208150ED45
:101B2000B52EB20E29E02B1598F06C3C3CEC7307F7
:101B30003CE08307910580F7AAE0B0E09B01AC018F
:101B40000E9450276B0D711D811D911DEA94E4CFF9
:101B500040814F7D2E2DEE0C330B453409F045C0EE
:101B600041814D3219F43296B1E006C04B3211F08A
:101B7000319601C03296B0E0C0E0D0E04AE0E42EF9
:101B8000A19140ED4A0F4A3050F5EC9EA001ED9E28
:101B9000500D1124CA2FAA0FDD0BE097C40FD51FDB
:101BA000A9014C0F5D1F4732510554F3BB2359F077
:101BB000FF2029F080E090E0A0E0B0E850C080E095
:101BC00090E0DC014CC0F11005C080E090E0A0E89E
:101BD000BFE745C080E090E0A0E8BFEF40C0BB2376
:101BE00031F0D195C195D10902C0C0E0D0E0C20F5B
:101BF000D31F0E9431261C161D06ACF4E12CC0FF39
:101C00000CC024E0E29EF0011124EC5BFD4F20812A
:101C10003181428153810E949226D595C795E394E4
:101C2000209769F718C0D195C195D109E12C20976B
:101C300091F0C0FF0CC024E0E29EF0011124E45DAD
:101C4000FD4F20813181428153810E949226D5959A
:101C5000C795E394ECCFDC01CB01F110B058F8014B
:101C600084839583A683B78388E080870AC0F801C0
:101C700010821182128213821482158216821782B8
:101C80001086C801DF91CF911F910F91FF90EF90C7
:101C9000BF90AF909F908F907F906F905F904F908C
:101CA0000895982F80ED890F8A3020F081EA890FFE
:101CB0008C3110F481E008958FEB890F8A31D0F3D5
:101CC0009B32C1F381E09D3221F09E3219F080E019
:101CD000089508950895DF92EF92FF920F931F9356
:101CE000CF93DF93CDB7DEB728970FB6F894DEBF5A
:101CF0000FBECDBF8C017B01DC011696ED91FC91EE
:101D00001797228133818481958193838283FA831B
:101D1000E9831C821B823E832D83821B930B988751
:101D20008F83C8010E94F601D82EF8011286C801DF
:101D30000E94F601D8011A961C92D81649F1811119
:101D400003C081E090E047C08C35E1F4C8010E94F7
:101D5000F6018823B1F3853719F0EDEAF3E006C008
:101D600084E090E038C0891729F032969081911173
:101D7000FACF06C08181811103C082E090E02BC0C0
:101D8000F8011286682FCE0101960E940103CFCF81
:101D900060E0CE0101960E9401038D819E81892B16
:101DA00071F08B819C81E981FA812F813885821BBA
:101DB000930B22813381820F931F938382838D81C2
:101DC0009E81D7018D939C93892B19F483E090E039
:101DD00002C080E090E028960FB6F894DEBF0FBEF8
:101DE000CDBFDF91CF911F910F91FF90EF90DF90CA
:101DF0000895009719F00E945302089580E090E042
:101E00000895CF93DF93CDB7DEB729970FB6F89437
:101E1000DEBF0FBECDBF009709F441C0FC01848135
:101E20008F77873028F4853060F48330B8F437C07A
:101E3000873061F0883099F560817181828193816A
:101E400031C0608171818281938121C06081718103
:101E5000828193810E943126905824C060817181D3
:101E6000CE0101960E94FB0C69817A818B819C8155
:101E70002985273029F0283069F0263081F407C001
:101E800090958095709561957F4F8F4F9F4F0E94E1
:101E9000312608C06D817E818F81988503C060E006
:101EA00070E0CB0129960FB6F894DEBF0FBECDBF10
:101EB000DF91CF910895FC012281908181812230B0
:101EC00030F0292F382F81E0838380E02CC0292F28
:101ED000382F40914B0650914C06B901642375236D
:101EE00080910D0590910E056817790739F02091C2
:101EF00048063091490680914A0615C0CA0180956E
:101F0000909563E0880F991F6A95E1F782239323E8
:101F1000892B41F083E0440F551F8A95E1F7476014
:101F20002423352385E031832083828381E0089553
:101F3000EF92FF920F931F93CF93DF938C01E0906A
:101F40000F05F12CE7012897FC0196818CE6890F9B
:101F5000833020F0983C09F0C7C003C0943909F4DD
:101F6000DAC08BE6890F823018F0983C09F088C0FF
:101F70002091B4053091B505AE01420F531F413990
:101F8000510518F01092B305ADC08091B3058823B8
:101F900009F40AC1963921F0F80197818913A2C08A
:101FA0004091B0055091B105F801848195814817A1
:101FB000590709F097C08091B6059091B705AE0119
:101FC0006AEE74E0820F931F0E946F2A8091B4051D
:101FD0009091B505C80FD91FD093B505C093B4052E
:101FE000F8018681863931F08091B3058150809364
:101FF000B30576C01092B305F80187818093B205CE
:10200000833809F486C0A091AA05B091AB0580EA97
:1020100095E08A1B9B0B8C179D0730F18AE0ECEA58
:10202000F5E001900D928A95E1F78091AA059091D3
:10203000AB056091B6057091B7054091B40550911C
:10204000B5050A960E946F2A8091B4059091B50556
:102050000A962091AA053091AB05820F931F9093A9
:10206000AB058093AA053CC080910A0590910B05B1
:102070000E94A0178091050581608093050532C0FC
:10208000A091AA05B091AB05CD01805195408C0F70
:102090009D1F8B39910530F588E0E2EEF4E0019068
:1020A0000D928A95E1F7E091AA05F091AB05D187F1
:1020B000C0878091AA059091AB05AE016AEE74E0ED
:1020C0000A960E946F2AF2E0EF0EF11C8091AA0599
:1020D0009091AB05E80EF91EF092AB05E092AA05CF
:1020E00081E062C080E060C0933851F688E0E2EEA3
:1020F000F4E0ACEAB5E001900D928A95E1F78AEE42
:1021000094E09093B7058093B605D093B505C0933E
:10211000B40582E049C0F8018781873008F032CFEA
:102120004091B0055091B105F801248135814217E5
:10213000530749F44091AC055091AD0520813181A0
:102140004217530769F2F8E18F9FC00111244091B3
:10215000AA055091AB0520EA35E0241B350B281762
:1021600039075CF4809105058160809305058091B5
:102170000A0590910B050E94A01788E0E2EEF4E0BA
:10218000ACEAB5E001900D928A95E1F7AE016AEEF6
:1021900074E08091B6059091B7050E946F2AD093A4
:1021A000B505C093B40520CFDF91CF911F910F915A
:1021B000FF90EF900895009769F0FC0101900020D6
:1021C000E9F73197AF01481B590BBC0180EF93E051
:1021D0000C94B61580E090E008951F93CF93DF93A1
:1021E000EC01162F61E00E947017482F112311F0A7
:1021F000416001C04E7F61E0CE01DF91CF911F9120
:102200000C942A1790E0FC01E55EFD4F2491FC013F
:10221000EB52FE4F8491882399F090E0880F991F2C
:10222000FC01E554FE4FA591B491FC01EF55FE4F22
:10223000859194918FB7F894EC91E22BEC938FBF3A
:1022400008958F929F92AF92BF92CF92DF92EF92BA
:10225000FF92CF93DF93EC016A017B010E94631B25
:102260004B015C0167E1CE010E94701784FD29C01B
:102270006FEFCE010E94141784FFF4CF40E167E0B6
:10228000CE010E942A1760E0CE010E94E31661E0B1
:10229000CE010E94E3160E94631BDC01CB0188196A
:1022A0009909AA09BB098C159D05AE05BF05D0F299
:1022B00060E0CE010E94E316CE010E94271780E065
:1022C00005C060E0CE010E94E31681E0DF91CF916E
:1022D000FF90EF90DF90CF90BF90AF909F908F9046
:1022E00008958F929F92AF92BF92CF92DF92EF921A
:1022F000FF920F931F93CF93DF93CDB7DEB728974D
:102300000FB6F894DEBF0FBECDBF142F0E941B186E
:1023100049015A016B017C018091050582FD06C0CF
:1023200080910A0590910B050E94A01780910A05E3
:1023300090910B05112311F060E001C061E00E9453
:10234000ED1000910A0510910B0589829A82AB82EB
:10235000BC82CD82DE82EF82F886F8012685AE014E
:102360004F5F5F4F6AE0C8010E944517F80126855C
:10237000AE014F5F5F4F60E1C8010E944517F80151
:10238000478161E1C8010E942A1700910F05E09082
:102390000A05F0900B056FEFC7010E94141780FF2C
:1023A0000DC06FEFC7010E94141784FFF4CF40E106
:1023B00067E0C7010E942A1710E02EC0F7011781BD
:1023C000101708F4012FF7018085811102C0101B3E
:1023D00001C010E0C7010E940A1780EA0E940D1791
:1023E00082EEC82E84E0D82E002339F0F6018191C8
:1023F0006F010E940D170150F7CF112329F080E0E3
:102400000E940D171150F9CFC7010E94071761E014
:10241000C7010E94E31611E08091050582FD16C0F8
:102420004091DC045091DD046091DE047091DF0482
:1024300080910A0590910B050E942111182F60E0F0
:1024400080910A0590910B050E94ED10812F28962E
:102450000FB6F894DEBF0FBECDBFDF91CF911F91B5
:102460000F91FF90EF90DF90CF90BF90AF909F9033
:102470008F900895CF92DF92EF92FF920F931F9368
:10248000CF93DF9300D01F92CDB7DEB79C0121150B
:10249000310561F0422F4770463030F443E0369505
:1024A00027954A95E1F7F3CF80E09AC0162F7C017B
:1024B0000091E804015419821A821B821C829A83BB
:1024C00089836B83CE0101960E945B0F4C816B81E7
:1024D00089819A810E947111113041F5811102C0E8
:1024E00010E030C089819A81E816F90609F50F37A6
:1024F000F8F481EC8093E8048091E2049091E30485
:102500009093E5048093E4049A8389831B831C825F
:10251000CE0101960E945B0F88E080930F054C81ED
:102520006B8189819A810E94711102C08823C1F256
:1025300089819A81E816F90621F0112379F0133088
:1025400069F011E08091050582FD06C080910A05C1
:1025500090910B050E94D517812F42C00F3788F745
:102560008091050582FF1AC04091DC045091DD0482
:102570006091DE047091DF0480910A0590910B0553
:102580000E942111809105058B7F8093050560E0F5
:1025900080910A0590910B050E94ED1080910A052B
:1025A00090910B050E94D5170E94631B6B017C0163
:1025B0000E94FD12813C29F20E94631BAB01BC0109
:1025C0004C195D096E097F098091E0049091E10446
:1025D000A0E0B0E084179507A607B70748F780CFBB
:1025E0000F900F900F900F90DF91CF911F910F914F
:1025F000FF90EF90DF90CF900895AF92BF92CF926F
:10260000DF92EF92FF920F931F93CF93DF9380910E
:10261000050581FD14C02091AA053091AB0580FD10
:1026200006C0A901405155404937510544F0205199
:10263000354011F008F03DC18E7F8093050501E023
:1026400010E074E2E72E79E0F72EC0900A05D090F2
:102650000B05F601808191818F3F910509F429C115
:10266000828193818F3F910509F423C167E1C601FF
:102670000E947017C82FC17080FD1BC16FEFC6018B
:102680000E941417C0900A05D0900B05C6010E9445
:102690000A1780E60E940D178FEF0E940D17D82FA2
:1026A000C6010E940717D13258F062EEC6010E949F
:1026B000141762E070E080E090E00E94291B01C0E6
:1026C000CD2FC0930F05C83038F46AE070E080E089
:1026D00090E00E94291BB9CFC0900A05D0900B054D
:1026E000F60187818C1708F4C82FF60190859111A7
:1026F00003C0D82FDC1B01C0D0E0C6010E940A171E
:1027000081E60E940D1762EEA62E64E0B62EC1117E
:1027100002C0CD2F08C08FEF0E940D17F5018193E5
:102720005F01C150F4CFCC2329F08FEF0E940D1729
:10273000C150F9CFC6010E94071740E767E0C60104
:102740000E942A172091E4043091E504C901009702
:1027500059F0482F4770463008F077CF53E09695F0
:1027600087955A95E1F7F3CF9091E80440910D05D4
:1027700050910E052417350709F042C0923809F42C
:1027800064CF903889F424323940F9F0F092E504AE
:10279000E092E40462E084E299E00E943A126AE086
:1027A00070E080E090E04CC0933C79F42115310555
:1027B00061F03093E3042093E2041092E504109258
:1027C000E40460E080E090E06FC08091040588231D
:1027D00019F097FF0CC002C0913C49F48CE6890FB8
:1027E000833028F0983C19F0933809F060C082EEED
:1027F00094E00E94980F823009F027CF83E85AC0F6
:102800002034310509F04EC0923C11F58091050548
:1028100083FD1BCF443229E0520709F416CF809183
:10282000E2049091E3049093E5048093E4045093D0
:10283000E3044093E20460914A0670E080E090E097
:102840000E94291B62E08091E4049091E5042CC071
:1028500082EE94E00E94980FC82F8091DB048823B9
:10286000E9F080910C05882379F090E001979C01B4
:10287000220F331F820F931FF80102C0EE0FFF1FBC
:102880008A95E2F7CF0102C080E090E064E023E0A7
:10289000880F991F2A95E1F70E943A12C23009F079
:1028A000D4CEACCF61E0C9010E943A12CECE892FBE
:1028B00001C080E0DF91CF911F910F91FF90EF90C9
:1028C000DF90CF90BF90AF9008950F931F93CF9359
:1028D000DF938C01AC0160EB72E008960E9453021A
:1028E000EC01009741F060E204960E9414191982ED
:1028F00018821B821A82BE01C801DF91CF911F91FD
:102900000F910895CF93DF9300D01F92CDB7DEB71C
:1029100020EF33E03A8329831C821B82089631F032
:10292000BE016F5F7F4F0E94930B06C06BEA72E09F
:10293000CE0101960E94410B8B819C810F900F90DC
:102940000F900F90DF91CF910895FC01538D448D2E
:10295000252F30E0842F90E0821B930B541710F04A
:10296000CF96089501970895FC01918D828D981757
:1029700061F0828DDF01A80FB11D5D968C91928D63
:102980009F5F9F73928F90E008958FEF9FEF089560
:10299000FC01918D828D981731F0828DE80FF11D29
:1029A000858D90E008958FEF9FEF0895FC01918D44
:1029B000228D892F90E0805C9F4F821B91098F733D
:1029C0009927089580EF93E00E94D61421E0892B87
:1029D00009F420E0822F0895FC01848DDF01A80F07
:1029E000B11DA35ABF4F2C91848D90E001968F7337
:1029F0009927848FA689B7892C93A089B1898C9156
:102A0000837080648C93938D848D981306C00288A4
:102A1000F389E02D80818F7D80830895EF92FF926E
:102A20000F931F93CF93DF93EC0181E0888F9B8DF1
:102A30008C8D981305C0E889F989808185FD26C0B1
:102A4000F62E0B8D10E00F5F1F4F0F731127E02E36
:102A50008C8DE8120CC00FB607FCFACFE889F98913
:102A6000808185FFF5CFCE010E94EC14F1CF8B8DD4
:102A7000FE01E80FF11DE35AFF4FF0829FB7F89473
:102A80000B8FEA89FB89808180620AC09FB7F89426
:102A9000EE89FF896083E889F98980818370806489
:102AA00080839FBF81E090E0DF91CF911F910F91D4
:102AB000FF90EF900895CF93DF93EC01888D8823EA
:102AC000C9F0EA89FB89808185FD05C0A889B9899B
:102AD0008C9186FD0FC00FB607FCF5CF808185FF76
:102AE000F2CFA889B9898C9185FFEDCFCE010E94E4
:102AF000EC14E7CFDF91CF91089580E090E0892B2F
:102B000021F00E94E214811125C080E090E0892B21
:102B100041F080E090E0892B21F00E9400008111BB
:102B20001CC080E090E0892B41F080E090E0892B90
:102B300021F00E940000811113C080E090E0892BF9
:102B4000A1F080E090E0892B81F00E9400008111CB
:102B50000AC008950E940000D8CF0E940000E1CF73
:102B60000E940000EACF0C9400000895CF92DF92FB
:102B7000EF92FF920F931F93CF93DF936C017A0133
:102B80008B01C0E0D0E0CE15DF0581F0D8016D915A
:102B90008D01D601ED91FC910190F081E02DC601EF
:102BA0001995892B11F02196EECF7E01C701DF9197
:102BB000CF911F910F91FF90EF90DF90CF900895EC
:102BC000089580E090E008950E946A2A1F920F9273
:102BD0000FB60F9211240BB60F922F933F934F9382
:102BE0005F936F937F938F939F93AF93BF93EF9375
:102BF000FF9380EF93E00E94EC14FF91EF91BF915F
:102C0000AF919F918F917F916F915F914F913F9184
:102C10002F910F900BBE0F900FBE0F901F90189525
:102C20001F920F920FB60F9211240BB60F922F9393
:102C30008F939F93EF93FF93E0910004F091010431
:102C40008081E0910604F091070482FD12C090811A
:102C5000809109048F5F8F7320910A04821751F0CD
:102C6000E0910904F0E0E051FC4F958F8093090456
:102C700001C08081FF91EF919F918F912F910F90D3
:102C80000BBE0F900FBE0F901F9018950F931F93C0
:102C9000CF93DF93EC0188819981009729F02A81F5
:102CA0003B812617370788F48B016F5F7F4F0E94A7
:102CB0008529009761F0998388831B830A832C817F
:102CC0003D81232B11F4FC01108281E001C080E0E2
:102CD000DF91CF911F910F910895EF92FF920F9383
:102CE0001F93CF93DF931F921F92CDB7DEB78C0156
:102CF00069831A82FC01E480F580FFEFEF1AFF0A76
:102D0000B7010E944616882381F0F80120813181A5
:102D100084819581BE016F5F7F4F820F931F0E9458
:102D2000932AF801F582E48281E00F900F90DF9101
:102D3000CF911F910F91FF90EF900895EF92FF9226
:102D40000F931F93CF93DF93EC017B018A01BA01AC
:102D50000E9446162881398181110DC02115310547
:102D600019F0C9010E94FC28198218821D821C8258
:102D70001B821A8206C01D830C83B701C9010E9401
:102D8000932ACE01DF91CF911F910F91FF90EF9089
:102D90000895FC01808191810C94FC28FC01118232
:102DA000108213821282158214826115710551F00E
:102DB000FB0101900020E9F73197AF01461B570B4B
:102DC0000C949E160895FC012081318182819381AB
:102DD0002817390719F0822F0C94A01A0895CF9361
:102DE000DF93EC018CB58F7D8CBD8CB5837F8CBD62
:102DF0008CB58C7F8CBD8DB581608DBD8A810E9424
:102E0000A01A8C899D89DF91CF910C941E1B61E0E3
:102E10000C94EF1660E00C94EF168EBD00000DB41C
:102E200007FEFDCF8EB508951F93CF93DF93EC017E
:102E3000162F0E940A17812F0E940D17182FCE01FE
:102E40000E940717812FDF91CF911F91089561EEA6
:102E50000C9414170F931F93CF93DF938C01C62FFD
:102E6000D42F0E940A178C2F8F7180620E940D1739
:102E7000C82F8D2F0E940D17C8010E9407178C2F95
:102E8000DF91CF911F910F910895CF92DF92EF9232
:102E9000FF920F931F93CF93DF937C01162F6A014C
:102EA000C22F0E940A17812F8F7180620E940D1716
:102EB000D82F8601CC2339F0F80181918F010E942F
:102EC0000D17C150F7CFC7010E9407178D2FDF9153
:102ED000CF911F910F91FF90EF90DF90CF900895C9
:102EE0001F93CF93DF93EC01162F0E940A17812FB7
:102EF0008F710E940D178FEF0E940D17182FCE01B2
:102F00000E940717812FDF91CF911F910895CF93D2
:102F1000DF93EC0160E00E94701781FD0EC0482F26
:102F2000426060E0CE010E942A1765E070E080E018
:102F300090E0DF91CF910C94291BDF91CF91089500
:102F4000CF93DF93EC0160E00E94E31688899989B2
:102F50000E941E1B6DE1CE010E94701781FF07C009
:102F6000888999890E941E1BCE010E94271760E064
:102F7000CE010E947017482F4E7F60E0CE010E9464
:102F80002A1762E0CE010E947017E4E7F1E0E491B5
:102F900041E050E001C0440FEA95EAF7482B62E0B7
:102FA000CE01DF91CF910C942A17CF93DF93EC01E0
:102FB0000E94871760E0CE010E947017482F416081
:102FC00060E0CE010E942A1740E767E0CE010E9430
:102FD0002A1761E0CE010E94E3168985882349F013
:102FE0002E85AE01475F5F4F6AE0CE010E94451714
:102FF00014C062E0CE010E947017E4E7F1E0E491B2
:1030000021E030E001C0220FEA95EAF72095422F37
:10301000482362E0CE010E942A176DE1CE010E9492
:10302000701781FF05C0CE01DF91CF910C94271757
:10303000DF91CF910895CF93DF93CDB7DEB7289777
:103040000FB6F894DEBF0FBECDBFAC019CEC9983E8
:103050009A839B839C839D831E821F8218869A017C
:10306000E1E021153105C9F0611103C04115510599
:1030700069F4D901A770BB27A259BD4F8C91A1E07B
:10308000B0E0AC0FBD1FAE0FB11D8C9383E0369541
:1030900027958A95E1F7EF5FE4CF611102C0452BD8
:1030A00039F4E62FF0E0E259FD4F8081898305C0B5
:1030B000F0E0E359FD4F80818A8329813A814B8179
:1030C0005C816D817E818F81988528960FB6F894FA
:1030D000DEBF0FBECDBFDF91CF9108950F931F9339
:1030E000CF93DF93EC018B012097B1F06E817F814C
:1030F0000115110519F06115710521F460177107AB
:1031000031F40AC0C8010E948A2A892B29F0CE0115
:103110000E941506EC01E8CFCE01DF91CF911F91FF
:103120000F910895FF920F931F93CF93DF938C011C
:10313000C0E0D0E001151105E9F1D8011496FC902A
:103140008F2D8F77843061F030F48230D1F4F80124
:103150008281938118C0803271F0803461F011C097
:10316000D801ED91FC91DF010D900020E9F7CD0130
:103170008E1B9F0B08C0D8018D919C910E949218C4
:1031800002C080E090E02896C80FD91FF7FE0DC05E
:10319000D8011696ED91FC911797DF010D90002054
:1031A000E9F7CE1BDF0BCA0FDB1FC8010E94150613
:1031B0008C01C0CFCE01DF91CF911F910F91FF9075
:1031C00008950F931F93CF93DF93CDB7DEB7289762
:1031D0000FB6F894DEBF0FBECDBF01968C010E7FF7
:1031E000C8010E946428AC01009729F0BC01600F5F
:1031F000711FCB0104C060E070E080E090E05A8372
:1032000049835C834B837E836D83242F3A815C8169
:103210007E8128960FB6F894DEBF0FBECDBFDF913A
:10322000CF911F910F910895FC0190819078692BA7
:1032300060830895CF93DF93EC01461B570B888181
:1032400099810E94E8052A813B81820F931F9B830D
:103250008A83DF91CF910895EF92FF921F93CF93CE
:10326000DF93CDB7DEB766970FB6F894DEBF0FBE1B
:10327000CDBF9C01CB01FE0177964E2F1F2F5AE048
:10328000E52EF12CB7010E942628805D8293CB01A8
:103290000097C1F7512FBF01C9010E941A19669604
:1032A0000FB6F894DEBF0FBECDBFDF91CF911F9157
:1032B000FF90EF900895CF93DF93EC01E881F981BF
:1032C000808191810E946D168A819B8101969B83EA
:1032D0008A83DF91CF9108953FB7F89480916A0671
:1032E00090916B06A0916C06B0916D0626B5A89BD7
:1032F00005C02F3F19F00196A11DB11D3FBFBA2F88
:10330000A92F982F8827820F911DA11DB11DBC01E7
:10331000CD0142E0660F771F881F991F4A95D1F7AC
:1033200008957F928F929F92AF92BF92CF92DF9239
:10333000EF92FF920F931F93CF93DF93CDB7DEB73A
:103340008EA89FA8A8ACB9AC09891A8944EB54E0AF
:1033500069E872E08CEB94E00E945302A80160E0FF
:1033600070E00E94CB050B891C8944EB54E063E9B3
:1033700072E08CEB94E00E945302A80160E070E0E0
:103380000E94CB057D8844EB54E06FE972E08CEB42
:1033900094E00E9453028C010097E9F00496C72C38
:1033A000072C000CDD08EE08FF0877FC04C066E07F
:1033B0000E9414190BC067E00E941419F094E09465
:1033C000D094C094C11CD11CE11CF11CF801C08236
:1033D000D182E282F38284EB94E00E94651444EB94
:1033E00054E060EB72E08CEB94E00E94530244EBFB
:1033F00054E063ED73E00E94F90E7C01009771F1D7
:10340000F4016081718104966C016115710509F404
:1034100063C0448155814F5F5F4F0091B6041091A6
:10342000B704C801840F951F2091B8043091B904E6
:103430002817390708F450C09093B7048093B60456
:103440000115110509F448C0C8010E946F2A64E003
:10345000C6010E941419F7011183008344EB54E064
:1034600060EB72E08CEB94E00E94530244EB54E07A
:1034700060EE73E00E94F90E8C010097E1F0049673
:1034800065010B2C000CEE08FF08B7FC04C066E0D9
:103490000E9414190BC067E00E941419F094E09484
:1034A000D094C094C11CD11CE11CF11CF801C08255
:1034B000D182E282F38284EB94E0DF91CF911F917D
:1034C0000F91FF90EF90DF90CF90BF90AF909F90C3
:1034D0008F907F900C94821460E0C6010E941419B2
:1034E000BDCFCF93DF930E94DB10EC018AEE93E017
:1034F0000E94DB108C0F9D1FDF91CF910895CF9319
:10350000DF93EC016115710559F0FB01019000207A
:10351000E9F73197AF01461B570B0E949E160CC06E
:1035200088819981009711F00E94FC2819821882E5
:103530001D821C821B821A82CE01DF91CF910895D9
:10354000362F90E0FC01EF59FD4F4491FC01E55E00
:10355000FD4F2491FC01EB52FE4F9491992309F405
:103560006CC0442309F455C050E0FA013197E231B0
:10357000F10508F04EC08827EE58FF4F8F4F0C948E
:103580005C28809180008F7707C0809180008F7DBC
:1035900003C080918000877F809380003AC084B50B
:1035A0008F7702C084B58F7D84BD33C08091B00019
:1035B0008F7703C08091B0008F7D8093B00029C0C9
:1035C000809190008F7707C0809190008F7D03C01D
:1035D00080919000877F809390001BC08091A00015
:1035E0008F7707C08091A0008F7D03C08091A000DD
:1035F000877F8093A0000DC0809120018F7707C046
:10360000809120018F7D03C080912001877F80936E
:103610002001E92FF0E0EE0FFF1FEF55FE4FA591BF
:10362000B4919FB7F894311104C08C912095282350
:1036300002C0EC912E2B2C939FBF089582309105F0
:1036400038F0880F991F880F991F05970197F1F798
:1036500008958F929F92AF92BF92CF92DF92EF9296
:10366000FF926B017C010E946C194B015C01C1143B
:10367000D104E104F104F1F00E946C19DC01CB01EA
:1036800088199909AA09BB09883E9340A105B1058B
:1036900070F321E0C21AD108E108F10888EE880E23
:1036A00083E0981EA11CB11CC114D104E104F104F3
:1036B00019F7DDCFFF90EF90DF90CF90BF90AF90E4
:1036C0009F908F9008952FB7F8946091660670913F
:1036D000670680916806909169062FBF08950F9341
:1036E0001F930E94631B6093F8037093F903809308
:1036F000FA039093FB0380EF93E00E94B41497FFCA
:103700001FC00E94631B0091F8031091F9032091E0
:10371000FA033091FB03DC01CB01801B910BA20B60
:10372000B30B0091F4031091F5032091F60330914F
:10373000F70380179107A207B307E8F28FEF9FEF17
:103740001F910F9108951F920F920FB60F9211249F
:103750002F933F938F939F93AF93BF938091660670
:1037600090916706A0916806B09169063091650650
:1037700023E0230F2D3720F40196A11DB11D05C0B4
:1037800026E8230F0296A11DB11D209365068093A4
:10379000660690936706A0936806B09369068091C9
:1037A0006A0690916B06A0916C06B0916D06019629
:1037B000A11DB11D80936A0690936B06A0936C06C1
:1037C000B0936D06BF91AF919F918F913F912F91D3
:1037D0000F900FBE0F901F901895CF93DF93CDB72A
:1037E000DEB7CD57D1090FB6F894DEBF0FBECDBFFF
:1037F000789484B5826084BD84B5816084BD85B5CC
:10380000826085BD85B5816085BD80916E008160D7
:1038100080936E001092810080918100826080937D
:10382000810080918100816080938100809180007F
:103830008160809380008091B10084608093B100AA
:103840008091B00081608093B0008091910082608F
:10385000809391008091910081608093910080918C
:1038600090008160809390008091A100826080939D
:10387000A1008091A10081608093A1008091A000AF
:1038800081608093A000809121018260809321015A
:1038900080912101816080932101809120018160CC
:1038A0008093200180917A00846080937A008091D7
:1038B0007A00826080937A0080917A0081608093A0
:1038C0007A0080917A00806880937A001092C1001B
:1038D000E0910004F091010482E08083E091FC0318
:1038E000F091FD031082E091FE03F091FF0380E16F
:1038F000808310920804E0910404F091050486E0AE
:103900008083E0910204F0910304808180618083D0
:10391000E0910204F0910304808188608083E0914B
:103920000204F0910304808180688083E0910204A6
:10393000F091030480818F7D808380914D0690916A
:103940004E0620914F06309150068217930711F0D2
:103950000E94021180914F069091500620914D06D1
:1039600030914E062817390711F00E9402111FB737
:10397000F8948091EE03811124C0EAE0F2E0849192
:10398000E0E5F2E09491E82FF0E0EE0FFF1FE55440
:10399000FE4FA591B491EC91E92321F461E085E318
:1039A0000E94A01A85E30E9402118CB580618CBD33
:1039B0008CB580648CBD84E30E94021183E30E9475
:1039C00002118091EE038F5F8093EE031FBF60E0D2
:1039D0008DE496E00E94E31661E08DE496E00E949B
:1039E000EF1665E070E080E090E00E94291B4CE05B
:1039F00060E08DE496E00E942A174FE564E08DE4D4
:103A000096E00E942A1766E08DE496E00E94701707
:103A1000877D182F10628BE990E0A0E0B0E08093E2
:103A20005D0690935E06A0935F06B0936006412FFB
:103A300066E08DE496E00E942A1766E08DE496E049
:103A40000E947017181709F495C466E08DE496E09B
:103A50000E94701766E08DE496E00E94701745E5BD
:103A600050E060E070E040935D0650935E06609326
:103A70005F0670936006482F477D66E08DE496E010
:103A80000E942A1766E08DE496E00E9470178DE48C
:103A900096E00E940A1780E50E940D1783E70E94B6
:103AA0000D178DE496E00E94071740E06DE18DE46C
:103AB00096E00E942A1740E06CE18DE496E00E94B7
:103AC0002A171092550640E767E08DE496E00E94C1
:103AD0002A174CE465E08DE496E00E942A1762EE16
:103AE0008DE496E00E9414178DE496E00E9427175B
:103AF0008DE496E00E94871760E08DE496E00E94D6
:103B00007017482F4E7F60E08DE496E00E942A17E0
:103B100010920E0510920D0580910A0590910B05EB
:103B2000FC01208131812F3F3105C1F02281338199
:103B30002F3F310509F022C411C020934A0636E018
:103B4000F32EAA24A394B12CFA94FFEFFF129AC487
:103B500080910A0590910B050E94D51789E792E0A4
:103B60000E94DB103E01F3E66F0E711CCE01019640
:103B70002C010E94FD1280EF93E00E94D6141816CB
:103B800019060CF0F8C167EB73E0CE0187599F4F1F
:103B90000E94CE160E946F1B97FD0AC08A309105C5
:103BA00039F0682FCE0187599F4F0E946D16F2CFD2
:103BB000F301118210821382128215821482AB9655
:103BC0006EAD7FADAB976115710539F0AF964EAD17
:103BD0005FADAF97C3010E949E168091CE04909175
:103BE000CF049093D1048093D0048091D404909119
:103BF000D5049093D3048093D20460E08AED94E0DE
:103C00000E941419F30124813581808191810097EC
:103C100011F487EB93E04EEC54E05A8349839C8384
:103C20008B83820F931F9E838D8358874F838AE0F7
:103C300089871B8666ED74E0C2010E941A03E39631
:103C40009FAF8EAFE397CE018F589F4F0E94F30234
:103C5000672B19F006E811E00BC080FDFBCF74C4A0
:103C600080EF93E00E940E150F5F1F4F892B21F00C
:103C7000F80164916111F4CFE3968EAD9FADE397A7
:103C80008630910518F085E792E007C0880F991FEC
:103C9000FC01E85FFD4F808191810E94711A7CC018
:103CA0008E010A5D1F4F6AEE72E0C8010E94CE16B7
:103CB000BA82A9829C828B828DE48D833F822E8280
:103CC000EB968FADEB97EC969FADEC97ED96AFAD85
:103CD000ED97EE96BFADEE9788879987AA87BB8749
:103CE0001F9282E08F931F930F93EDB7FEB7B597A6
:103CF0000FB6F894FEBF0FBEEDBFADB7BEB71196BD
:103D000085E2F20101900D928A95E1F70E949119E6
:103D10000FB6F894DEBF0FBECDBFC8010E94C91612
:103D200096E4E4969FAFE497E796FFADE797EB96AE
:103D3000FFAFEB97E8962FADE897EC962FAFEC9797
:103D4000E9968FADE997ED968FAFED97EA969FAD27
:103D5000EA97EE969FAFEE97E5962FACE597E6963D
:103D60003FACE697BFA2AEA299A688A6E4962FAD77
:103D7000E4972AA73CA62BA6EB968FADEB97EC9683
:103D80009FADEC97ED96AFADED97EE96BFADEE978C
:103D90008DA79EA7AFA7B8ABC3010E94C9168AA57D
:103DA000E4968FAFE497863409F4BCC18EA19FA13D
:103DB0009A83898340E250E0BE01655D7F4FCE016A
:103DC00003960E949A2ACE0103960E94711A88A433
:103DD00099A40AE010E0A0900002B0900102C50191
:103DE000019690930102809300020E94631BC09091
:103DF0000605D0900705E0900805F0900905DC0164
:103E0000CB018C199D09AE09BF094997A105B105E0
:103E1000A0F08BE193E00197F1F790E4891691040B
:103E200089F08091050584608093050580910A05DD
:103E300090910B050E94A01705C00E94FD1287FFFC
:103E4000D4CFE7CFC12CD12C82E0F82EE1E0FE16D2
:103E500029F082E0DD2039F095E906C0E4968FADC7
:103E6000E49796E901C094E9F8E1DF9EB0011124DE
:103E700042E250E0461B570B4931510510F048E132
:103E800050E028E0240F20930F0520910D0530917C
:103E90000E053093E3042093E2049092E5048092AF
:103EA000E404B092E704A092E6049093E8048093BF
:103EB000E9044115510531F0640D751D8AEE94E059
:103EC0000E946F2A60E0C4010E943A1281110DC065
:103ED00062E070E080E090E00E94291BC39422E041
:103EE0002C1508F0B3CFD12C08C0FA94D394FF203E
:103EF00011F0C12CABCFDD24D3948091050582FF56
:103F00001CC04091DC045091DD046091DE0470918E
:103F1000DF0480910A0590910B050E942111D82E93
:103F200080910A0590910B050E94D51760E0809161
:103F30000A0590910B050E94ED10809105058B7F7D
:103F400080930505DD2009F47DC5FF2009F47DC5BA
:103F50000E94631B60930605709307058093080514
:103F6000909309056FC5E4E5BE1609F441C1F9E473
:103F7000BF1609F4DDC0C090AA05D090AB0580E162
:103F8000C81685E0D80609F008F4F1C1E0901005E4
:103F9000F0901105B09016050091180510911905C3
:103FA000A8010332110510F042E250E06AE175E029
:103FB000CE0186960E946F2A86EF9FEF801B910BA1
:103FC000C80ED91ED092AB05C092AA054AE950E0AE
:103FD000401B510BB801665E7A4F80E195E00E946C
:103FE000782A9DE4B912BFCF08A519A58AA49BA47D
:103FF000ACA4BDA467EB73E0CE0187599F4F0E942C
:10400000CE160230110509F475C108F06AC1011518
:10401000110509F060C160EC72E0CE0187599F4F35
:104020000E947F1A0EA11FA14AE954E069E872E0DC
:1040300082EA94E00E945302A80160E070E00E94CE
:10404000CB054AE954E063E972E082EA94E00E9419
:104050005302A70160E070E00E94CB054AE954E0FA
:104060006FE972E082EA94E00E9453024DE450E06E
:1040700060E070E00E94CB058AE994E00E9465143C
:104080004AE954E060EB72E082EA94E00E94530255
:104090004AE954E06EE473E00E94F90E8C01009747
:1040A00049F066E004960E941419F801108211820A
:1040B000128213824AE954E060EB72E082EA94E0F3
:1040C0000E9453024AE954E060E573E00E94F90E51
:1040D0008C01009749F066E004960E941419F801DB
:1040E00010821182128213824AE954E060EB72E07E
:1040F00082EA94E00E9453024AE954E06EED72E0D5
:104100000E94F90E8C01009749F068E004960E9425
:104110001419F80180829182A282B3828AE994E024
:104120000E948214CE0187599F4F0E94C91623CF47
:10413000C8A4D9A40EA11FA14DE854E069E872E01B
:1041400085E994E00E945302A80160E070E00E94BB
:10415000CB054DE854E063E972E085E994E00E9404
:104160005302A70160E070E00E94CB054DE854E0E7
:104170006FE972E085E994E00E94530249E450E05F
:1041800060E070E00E94CB058DE894E00E94651429
:104190004DE854E060EB72E085E994E00E94530240
:1041A0004DE854E06DEF72E00E94F90E8C0100972B
:1041B000E1F0049646010D2C000CAA08BB08D7FCC0
:1041C00004C066E00E9414190BC067E00E94141935
:1041D000B094A09490948094811C911CA11CB11C5B
:1041E000F80180829182A282B3828DE894E070C04F
:1041F00088A599A59A8389830EA11FA147EA54E057
:1042000069E872E08FEA94E00E945302A80160E03E
:1042100070E00E94CB0547EA54E063E972E08FEA60
:1042200094E00E945302A70160E070E00E94CB0579
:1042300047EA54E06FE972E08FEA94E00E9453028B
:1042400044E550E060E070E00E94CB0587EA94E02E
:104250000E94651489809A80AB80BC8047EA54E054
:1042600060EB72E08FEA94E00E94530247EA54E068
:104270006DE173E00E94F90E8C01009749F068E04F
:1042800004960E941419F80180829182A282B3825E
:104290008D809E80AF80B88447EA54E060EB72E086
:1042A0008FEA94E00E94530247EA54E069E273E027
:1042B0000E94F90E8C01009749F068E004960E9474
:1042C0001419F80180829182A282B38287EA94E075
:1042D0000E94821450CE0130110591F461ED72E01C
:1042E0009CCE0330110549F00430110549F46BEB05
:1042F00072E093CE69ED72E090CE64EE72E08DCE06
:104300008EA19FA19A83898340E250E0BE01685D3F
:104310007F4FCE0106960E949A2A62E373E0C301A2
:104320000E94CE161F9285E08F937F926F928DB779
:104330009EB785970FB6F8949EBF0FBE8DBFADB7E1
:10434000BEB7119685E2F20101900D928A95E1F7D0
:104350000E9491190FB6F894DEBF0FBECDBFC30106
:104360000E94C916CE0187599F4F0E94C9160E940C
:104370007D15FFCB81E08093530667CB44E665E073
:104380000E942A1760E080910A0590910B050E9417
:10439000ED1000910A0510910B056DE1C8010E9416
:1043A0007017482F44606DE1C8010E942A176CE124
:1043B000C8010E947017482F4F636CE1C8010E942A
:1043C0002A1781E0F801808780910D0590910E05F4
:1043D00066E070E00E941228482F440F4B5FF0E126
:1043E0004F9FA0011124456064E080910A059091DF
:1043F0000B050E942A1789E190E0A0E0B0E08093CD
:10440000DC049093DD04A093DE04B093DF048BE41E
:1044100090E09093E1048093E00420910D053091A9
:104420000E0540E08FEF9FEFB90168237923672BDA
:1044300039F0E3E0880F991FEA95E1F74F5FF4CF79
:1044400040930C058095909590934C0680934B0675
:1044500073E0969587957A95E1F7A901482359234A
:104460005093490640934806009709F466CB53E001
:10447000369527955A95E1F763E0969587956A9565
:10448000E1F7F2CF6F2D80E090E00E941B180091C1
:104490000A0510910B056C962FAF6C976D963FAF88
:1044A0006D976E964FAF6E976F965FAF6F97A096B2
:1044B0006FAFA097A1967FAFA197A2968FAFA2975B
:1044C000A3969FAFA397CF2CD12CF1100BC0F8016E
:1044D000468550E0BE01655A7F4FC80109960E948B
:1044E0006F2A03C0F1E0FF1207C0F601E058FE4F4B
:1044F0006491F801268505C0F601E058FE4F6491ED
:1045000021E0AE01455A5F4FC8010E944517F601F0
:10451000E658FE4F6491F8014781C8010E942A17AE
:1045200062E0C8010E947017F601EC58FE4FE4915A
:10453000950101C0220FEA95EAF7482F422B62E06D
:10454000C8010E942A1700CB86ED94E0009731F055
:1045500069E872E086ED94E00E94EA010E948A0216
:104560005C0186ED94E0009729F063E972E00E9417
:10457000EA0102C086ED94E00E948A024C0186EDB9
:1045800094E00097B9F06FE972E00E94EA018C01B3
:10459000009781F0FC0184818F778350823060F432
:1045A000608171816115710539F0CE0186960E9496
:1045B000CE1635C000E010E067EB73E0C2010E9448
:1045C000CE16FE01E159FF4F51824082FFA3EEA3B8
:1045D00019A618A60115110539F0BE016A5D7F4FB5
:1045E000C8010E94E10906C06BEA72E0CE0186961E
:1045F0000E94940989819A819FA38EA38B819C81BB
:1046000099A788A78D819E819BA78AA71A82198264
:104610001C821B821E821D82C2010E94C9168AA5AD
:104620009BA5892B21F0EEA1FFA1309721F41092D8
:10463000EF03EFEEF3E02081E4962FAFE497CE0195
:1046400086960E94C91686ED94E0009709F4F5C19C
:1046500060EB72E00E94EA01009709F4EEC1FC01F0
:10466000248125FFEAC18C01808191810E949218EA
:104670006C018091C7049091C8042091C1043091CD
:10468000C204821B930B8C159D05B0F581EC94E060
:104690000E94C605C60101968E7F0E94E1182C96E5
:1046A0002FAF2C972D963FAF2D972E964FAF2E976D
:1046B0002F965FAF2F9760966FAF609761967FAF31
:1046C000619762968FAF629763969FAF639788E01A
:1046D000FE01E55BFF4FDE01AD5ABF4F01900D9229
:1046E0008A95E1F788E0FE01ED5AFF4FA1ECB4E0B6
:1046F00001900D928A95E1F78091C1049091C204D6
:104700009093C4048093C3048091C7049091C8041B
:104710009093C6048093C50460E08DEC94E00E9401
:10472000141989EC94E0892B29F060E08DEC94E079
:104730000E94141989EC94E0892B81F00115110570
:1047400031F460E08DEC94E00E94141907C041EC54
:1047500054E0B80189EC94E00E949106E496FFAD24
:10476000E497FD3409F0A6C065EB72E089EC94E0B3
:104770000E94EA01FC01892B41F094819F779350BC
:10478000923018F40081118102C000E010E0C801ED
:104790000E94711A6BEB72E0C8010E948A2A892B71
:1047A00009F080C060EC72E0C8010E948A2A892B5F
:1047B000C1F068EC72E089EC94E00E94EA010E948A
:1047C000010FE7966FAFE797E8967FAFE897E99616
:1047D0008FAFE997EA969FAFEA97E5961FAEE59708
:1047E00065C061ED72E0C8010E948A2A892BC9F078
:1047F00068EC72E089EC94E00E94EA010E94010FEB
:10480000E7966FAFE797E8967FAFE897E9968FAFA7
:10481000E997EA969FAFEA9721E0E5962FAFE597F3
:1048200045C069ED72E0C8010E948A2A892BC9F04F
:104830006EED72E089EC94E00E94EA010E94010FA3
:10484000E7966FAFE797E8967FAFE897E9968FAF67
:10485000E997EA969FAFEA9782E0E5968FAFE597F2
:1048600025C064EE72E0C8010E948A2A892B09F4EF
:1048700017CA6EED72E089EC94E00E94EA010E9492
:10488000010FE7966FAFE797E8967FAFE897E99655
:104890008FAFE997EA969FAFEA9793E0E5969FAFCF
:1048A000E59704C0E4E0E596EFAFE597E6961FAE26
:1048B000E6973ACAE496EFADE497E93409F073C09D
:1048C0006DEF72E089EC94E00E94EA01FC01892B13
:1048D00009F4B0C094819F77973028F4953068F43C
:1048E0009330D8F4A7C0973069F0983009F0A2C08F
:1048F000C080D180E280F3803BC080819181A28121
:10490000B38129C080819181A281B381813020E867
:104910009207A105B105D0F08DC060817181C201FF
:104920000E94FB0C89819A81AB81BC81298527304B
:1049300031F02830C9F0263009F07CC00CC081303D
:10494000E0E89E07A105B10508F074C022243324D5
:10495000281A390A07CA8115F0E89F07A105B10591
:1049600008F068C01C01FEC9CD80DE80EF80F884AD
:1049700020E030E040E057ECC701B6010E940D286E
:1049800087FD58C020E03EEF4FEF56E4C701B60167
:104990000E942C2618160CF44DC0C701B6010E94C7
:1049A000D7271B01DFC98E010A5D1F4F68E073E046
:1049B000C8010E94CE16BA82A9829C828B82E4969C
:1049C0002FADE4972D833F822E82EB968FADEB9730
:1049D000EC969FADEC97ED96AFADED97EE96BFAD33
:1049E000EE9788879987AA87BB871F9281E08F936C
:1049F0001F930F938DB79EB785970FB6F8949EBF00
:104A00000FBE8DBFADB7BEB7119685E2F201019022
:104A10000D928A95E1F70E9491190FB6F894DEBFC6
:104A20000FBECDBFC8010E94C916F6E4E496FFAFE1
:104A3000E49798C9212C312C95C900E010E0C12CD5
:104A4000D12C17CE01501109C6C910161106D4F782
:104A500062E573E0C3010E94CE161F921F927F92FF
:104A60006F928DB79EB785970FB6F8949EBF0FBE15
:104A70008DBFADB7BEB7119685E2FE01B696019027
:104A80000D928A95E1F70E9491190FB6F894DEBF56
:104A90000FBECDBFC3010E94C91644CB0F931F9315
:104AA000CF93DF93CDB7DEB760970FB6F894DEBF34
:104AB0000FBECDBF8C01CB010E94E11829873A8738
:104AC0004B875C876D877E878F87988B88E0FE0198
:104AD0003996DE01119601900D928A95E1F788E0F2
:104AE000FE013196D80101900D928A95E1F760E0C0
:104AF000C8010C9660960FB6F894DEBF0FBECDBF0E
:104B0000DF91CF911F910F910C941419E0EFF3E016
:104B10001382128288EE93E0A0E0B0E08483958354
:104B2000A683B78380E692E09183808385EC90E052
:104B30009587848784EC90E09787868780EC90E067
:104B4000918B808B81EC90E0938B828B82EC90E058
:104B5000958B848B86EC90E0978B868B118E128ED2
:104B6000138E148EEDE4F6E087E090E0918380836D
:104B700088E090E093838283168280E287831086A8
:104B800085E0868785E090E0A0E0B0E0848B958B9F
:104B9000A68BB78B1186ABEDB4E0D096FC93EE9369
:104BA0009F9780E195E09093AB058093AA0588EBF1
:104BB00095E09093B7058093B6058CEA95E09896BA
:104BC0009C938E9397979B961D921D921D921C927B
:104BD0009E979A961C929A9799961C9299971C92D6
:104BE00060E072E08EEC94E00E944E2568EC70E08C
:104BF00081EC94E00E944E2560E072E084EB94E04A
:104C00000E944E2560E072E087EA94E00E944E2503
:104C100060E072E08AE994E00E944E2560E072E074
:104C20008DE894E00C944E258DE894E00E94C60532
:104C30008AE994E00E94C60587EA94E00E94C605CE
:104C400084EB94E00E94C60581EC94E00E94C605C6
:104C50008EEC94E00C94C6050E946E2608F481E068
:104C60000895E89409C097FB3EF49095809570955F
:104C700061957F4F8F4F9F4F9923A9F0F92F96E9A8
:104C8000BB279395F695879577956795B795F1111D
:104C9000F8CFFAF4BB0F11F460FF1BC06F5F7F4FBA
:104CA0008F4F9F4F16C0882311F096E911C07723CC
:104CB00021F09EE8872F762F05C0662371F096E8D5
:104CC000862F70E060E02AF09A95660F771F881FA4
:104CD000DAF7880F9695879597F90895990F000848
:104CE000550FAA0BE0E8FEEF16161706E807F907BE
:104CF000C0F012161306E407F50798F0621B730B59
:104D0000840B950B39F40A2661F0232B242B252BD9
:104D100021F408950A2609F4A140A6958FEF811D7C
:104D2000811D08950E94A5260C9416270E9408272D
:104D300038F00E940F2720F0952311F00C94FF26E5
:104D40000C94052711240C944A270E94272770F3FE
:104D5000959FC1F3950F50E0551F629FF001729F20
:104D6000BB27F00DB11D639FAA27F00DB11DAA1F2F
:104D7000649F6627B00DA11D661F829F2227B00D7C
:104D8000A11D621F739FB00DA11D621F839FA00D07
:104D9000611D221F749F3327A00D611D231F849F57
:104DA000600D211D822F762F6A2F11249F575040AE
:104DB0009AF0F1F088234AF0EE0FFF1FBB1F661F29
:104DC000771F881F91505040A9F79E3F510580F0F2
:104DD0000C94FF260C944A275F3FE4F3983ED4F3EB
:104DE000869577956795B795F795E7959F5FC1F796
:104DF000FE2B880F911D9695879597F9089597F941
:104E00009F6780E870E060E008959FEF80EC089570
:104E100000240A9416161706180609060895002499
:104E20000A9412161306140605060895092E039413
:104E3000000C11F4882352F0BB0F40F4BF2B11F487
:104E400060FF04C06F5F7F4F8F4F9F4F089557FDE6
:104E50009058440F551F59F05F3F71F04795880FE8
:104E600097FB991F61F09F3F79F08795089512167F
:104E700013061406551FF2CF4695F1DF08C016162B
:104E800017061806991FF1CF8695710561050894DC
:104E90000895E894BB2766277727CB0197F90895F3
:104EA0000E945B27A59F900DB49F900DA49F800D3D
:104EB000911D11240895A29FB001B39FC001A39F2B
:104EC000700D811D1124911DB29F700D811D112443
:104ED000911D08955058BB27AA270E9482270C9441
:104EE00016270E94082738F00E940F2720F039F477
:104EF0009F3F19F426F40C9405270EF4E095E7FB88
:104F00000C94FF26E92F0E94272758F3BA1762074F
:104F100073078407950720F079F4A6F50C944927C8
:104F20000EF4E0950B2EBA2FA02D0B01B9019001C4
:104F30000C01CA01A0011124FF27591B99F0593F08
:104F400050F4503E68F11A16F040A22F232F342F50
:104F50004427585FF3CF469537952795A795F0409E
:104F60005395C9F77EF41F16BA0B620B730B840BB3
:104F7000BAF09150A1F0FF0FBB1F661F771F881F6B
:104F8000C2F70EC0BA0F621F731F841F48F48795C3
:104F900077956795B795F7959E3F08F0B0CF9395B5
:104FA000880F08F09927EE0F9795879508950E942E
:104FB000DE276894B1110C944A2708950E942F2788
:104FC00088F09F5798F0B92F9927B751B0F0E1F0CA
:104FD000660F771F881F991F1AF0BA95C9F714C07A
:104FE000B13091F00E944927B1E008950C9449270F
:104FF000672F782F8827B85F39F0B93FCCF38695B3
:1050000077956795B395D9F73EF49095809570950F
:1050100061957F4F8F4F9F4F08950E946E2608F431
:105020008FEF0895AA1BBB1B51E107C0AA1FBB1F2E
:10503000A617B70710F0A61BB70B881F991F5A9524
:10504000A9F780959095BC01CD01089597FB072E97
:1050500016F4009407D077FD09D00E94122807FCAF
:1050600005D03EF4909581959F4F08957095619578
:105070007F4F0895A1E21A2EAA1BBB1BFD010DC094
:10508000AA1FBB1FEE1FFF1FA217B307E407F507F8
:1050900020F0A21BB30BE40BF50B661F771F881FD4
:1050A000991F1A9469F760957095809590959B016A
:1050B000AC01BD01CF010895EE0FFF1F881F8BBF0C
:1050C0000790F691E02D19940F931F93CF93DF93E0
:1050D0008230910510F482E090E0E0917006F0914A
:1050E000710620E030E0A0E0B0E0309719F1408197
:1050F00051810281138148175907C8F08417950719
:1051000069F4109731F012960C93129713961C9332
:1051100027C0009370061093710622C02115310537
:1051200019F04217530718F49A01BD01EF01DF018E
:10513000F801DBCF21153105F9F0281B390B24309C
:10514000310580F48A819B816115710521F0FB0195
:105150009383828304C09093710680937006FE014E
:10516000329644C0FE01E20FF31F819391932250C7
:105170003109398328833AC020916E0630916F0639
:10518000232B41F4209104023091050230936F06E5
:1051900020936E0620910202309103022115310501
:1051A00041F42DB73EB74091060250910702241BEF
:1051B000350BE0916E06F0916F06E217F307A0F44D
:1051C0002E1B3F0B2817390778F0AC014E5F5F4F5D
:1051D0002417350748F04E0F5F1F50936F0640931A
:1051E0006E068193919302C0E0E0F0E0CF01DF9181
:1051F000CF911F910F910895CF93DF93009709F4FA
:1052000081C0FC01329713821282A0917006B09186
:105210007106109781F420813181820F931F2091B4
:105220006E0630916F062817390751F5F0936F0617
:10523000E0936E0667C0ED0120E030E0CE17DF0797
:1052400040F44A815B819E0141155105F1F0EA016C
:10525000F5CFD383C28340815181840F951FC81736
:10526000D90759F488819981840F951F02969183FB
:1052700080838A819B81938382832115310529F460
:10528000F0937106E09370063DC0E901FB83EA8369
:1052900049915991C40FD51FEC17FD0761F4808126
:1052A0009181840F951F0296E901998388838281F9
:1052B00093819B838A83E0E0F0E012968D919C912C
:1052C0001397009719F0FD01DC01F7CF8D919C91A8
:1052D00011979D012E5F3F4F820F931F20916E0605
:1052E00030916F062817390769F4309729F4109226
:1052F00071061092700602C013821282B0936F067C
:10530000A0936E06DF91CF9108956F927F928F9256
:105310009F92AF92BF92CF92DF92EF92FF920F9344
:105320001F93CF93DF93009789F4CB01DF91CF9147
:105330001F910F91FF90EF90DF90CF90BF90AF90B3
:105340009F908F907F906F900C946428FC01E60FE3
:10535000F71F9C0122503109E217F30708F4A9C096
:10536000EC01D9010D911C91119706171707B0F0A8
:105370000530110508F49BC0C801049786179707EC
:1053800008F495C002501109061B170B01931193E5
:105390006D937C93CF010E94FC2889C05B01A01A09
:1053A000B10A4C01800E911EA0917006B091710659
:1053B000612C712CE12CF12C109709F446C08D91D1
:1053C0009C911197A815B905B1F56C0142E0C40E86
:1053D000D11CCA14DB0478F14C018A189B086401C3
:1053E00042E0C40ED11C1296BC9012971396AC9159
:1053F000B5E0CB16D10440F0B282A38391828082C3
:10540000D9016D937C9309C00E5F1F4F800F911FD0
:10541000F90191838083EB2DFA2FE114F10431F02F
:10542000D7011396FC93EE93129741C0F093710647
:10543000E09370063CC06816790608F43C017D01D3
:1054400012960D90BC91A02DB7CF80916E069091D1
:105450006F0688169906E1F466167706C8F48091FF
:10546000020290910302009741F48DB79EB74091DC
:10547000060250910702841B950BE817F907C8F440
:10548000F0936F06E0936E06F901718360830FC09D
:10549000CB010E9464287C01009759F0A801BE014D
:1054A0000E946F2ACE010E94FC28C70104C0CE01D1
:1054B00002C080E090E0DF91CF911F910F91FF90AB
:1054C000EF90DF90CF90BF90AF909F908F907F90A4
:1054D0006F90089581E090E0F8940C94A92AFB0164
:1054E000DC0102C001900D9241505040D8F7089560
:1054F0006817790768F4FB01DC01E40FF51FA40FBE
:10550000B51F02C002900E9241505040D8F7089546
:105510000C946F2AFB01DC018D9101908019011020
:10552000D9F3990B0895FB01DC0101900D92002045
:10553000E1F70895FB01DC014150504048F0019033
:105540000D920020C9F701C01D9241505040E0F774
:10555000089511E0C5E5D1E000E006C0802FFE010E
:105560000E945C282196011DC635D10780E00807FE
:06557000A9F7F894FFCF3B
:1055760001000000720680006B036E037E038B033E
:105586009403A1030000803FCDCCCC3D6F12833A3B
:1055960095BFD6337D1D9026B3CE010CCDCCCC3D28
:1055A6000AD7233C17B7D13877CC2B329595E6240A
:1055B6001FB14F0A000020410000C84200401C46AF
:1055C60020BCBE4CCA1B0E5AAEC59D74000000001E
:1055D6000E15B615A5145B15D614B414C814C33C21
:1055E60033CE3EE3EC3F3F3F005374617274696E05
:1055F60067204D6173746572004D657373616765ED
:10560600496400526563697069656E744964004D4A
:1056160065737361676554797065006E756C6C00AF
:10562600446174610053746174650053544F5000B3
:10563600464F52574152440044697374616E636524
:105646000052455645525345004C45465400416E5E
:10565600676C6500524947485400496E76616C692B
:1056660064204D6F746F72205479706500496E69BD
:105676007469616C697A6500496E76616C6964204B
:105686004D65737361676520747970650054656D47
:1056960070657261747572650048756D69646974C8
:1056A6007900496E76616C696420496E636F6D6935
:1056B6006E67204D6F746F722054797065005800C4
:1056C60059004D6573736167652053656E74205389
:1056D600756365737366756C6C79004F6B00496E04
:1056E600636F6D706C657465496E70757400496E94
:1056F60076616C6964496E707574004E6F4D656DA8
:105706006F7279004E6F74537570706F7274656442
:1057160000546F6F446565700022225C5C62086607
:105726000C6E0A720D7409004E614E00652D0074F0
:105736007275650066616C736500496E66696E69AF
:105746007479004572726F724D6573736167650097
:0E5756004572726F7254797065000D0A000082
:00000001FF
