:100000000C940C020C94420C0C94170C0C94EC0BFA
:100010000C94C10B0C94960B0C946B0B0C94400B32
:100020000C94150B0C943D020C943D020C943D0273
:100030000C943D020C943D020C943D020C943D0244
:100040000C943D020C943D020C943D020C943D0234
:100050000C943D020C943D020C943D020C941F182C
:100060000C943D020C948F130C9465130C943D0278
:100070000C943D020C943D020C943D020C943D0204
:100080000C943D020C943D020C943D020C943D02F4
:100090000C943D020C943D020C943D020C94C5134B
:1000A0000C943D020C943D020C943D020C943D02D4
:1000B0000C943D020C943D020C943D020C943D02C4
:1000C0000C943D020C943D020C943D020C943D02B4
:1000D0000C943D020C943D020C943D020C943D02A4
:1000E0000C943D029C0C9F0C8E0C920C960CD60C22
:1000F000A30CA70CAD0CB10CB50CBB0CBF0CC30C06
:10010000D60CC90CCD0CD10C500D550D5A0D640DEB
:100110006E0DE70D780D800D880D920D9C0DA60DCE
:10012000B50DBF0DE70DC90DD30DDD0D0C94640D9C
:100130000C94B50C0C94A30C0C94CB120C94BF0D26
:100140000C945D120C94D30D0C9455130C94C30CA9
:100150000C94B9120C94A70C0C94DD0D0C94AD0CFE
:100160000C949C0C0C94DF120C94550D0C94021200
:100170000C94BC120C946F110C94E7120C94141391
:100180000C94BB120C94920D0C949F0C0C94C90C03
:100190000C9447130C94C90D0C949C0D0C94E40A18
:1001A0000C94960C0C94800D0C94920C0C944413AB
:1001B0000C94E70D0C94CD0C0C94B10C0C94BF0C6A
:1001C0000C94D6220C94B50D0C94B5110C947D11A1
:1001D0000C945B110C948E0C0C94A60D0C94880D51
:1001E0000C94BB0C0C94BA120C94D60C0C944C11BD
:1001F0000C94D10C0C945A0D0C94500D0C946E0D63
:100200000C94780D00407A10F35A00A0724E180931
:100210000010A5D4E80000E87648170000E40B546D
:10022000020000CA9A3B000000E1F505000080963C
:100230009800000040420F000000A086010000006E
:10024000102700000000E803000000006400000028
:1002500000000A00000000000100000000002C76F1
:10026000D888DC674F0823DFC1DFAE59E1B1B7960C
:10027000E5E3E453C63AE651997696E8E6C2842669
:10028000EB898C9B62ED407C6FFCEFBC9C9F40F245
:10029000BAA56FA5F490055A2AF75C936B6CF967C1
:1002A0006DC11BFCE0E40D47FEF520E6B500D0ED86
:1002B000902E0300943577050080841E08000020EE
:1002C0004E0A000000C80C333333330F986E12838C
:1002D0001141EF8D2114893BE65516CFFEE6DB1860
:1002E000D1844B381BF77C1D901DA4BBE424203225
:1002F00084725E228100C9F124ECA1E53D27000152
:10030000020304051112131415160A0B0C0D0E0F1F
:1003100000002100240027002A002D0030003300B7
:1003200001010000040107010A010000220025006C
:1003300028002B002E0031003400020100000501CE
:1003400008010B0105050505070508080808020254
:1003500002020A0A0808040404040101010101015F
:1003600001010303030303030303040707070C0C42
:100370000C0C0C0C0C0C0202020206060606060609
:1003800006060B0B0B0B0B0B0B0B010210202008AE
:1003900008102040102040800201020108040201E0
:1003A000010204081020408080402010080402014F
:1003B00080040201804020100804020108040201A8
:1003C000010204081020408001020408102040802F
:1003D00000000A0B02090C0D0E08070304010000BF
:1003E000000000000000000000000000000000000D
:1003F00000000000000000000000000012111000CA
:1004000000000000000000000000000000000000EC
:10041000000000000000D62211241FBECFEFD1E261
:10042000DEBFCDBF00E00CBF13E0A0E0B2E0ECE91E
:10043000F5E500E00BBF02C007900D92A231B107B5
:10044000D9F729E0A2E1B3E001C01D92A338B207B9
:10045000E1F712E0CCE0D2E000E006C0219701090C
:10046000802FFE010E94A42ACB30D10780E008072C
:10047000A9F70E9469180C94CC2A0C940000DF9212
:10048000EF92FF920F931F93CF93DF931F921F92D0
:10049000CDB7DEB7F82E162FD42E052F8091190672
:1004A000882309F43FC080911A06882349F04091BF
:1004B000200650912106609122067091230608C003
:1004C00040911C0650911D0660911E0670911F06FA
:1004D000CE0101960E94F91789819A810E9489159F
:1004E00060E0809118060E946D0C80911B068F2998
:1004F0000E94B615ED2CF02EC701810F911D8C01C5
:100500000E151F0539F080E00E94B615D7018D93B6
:100510007D01F6CF61E0809118060E946D0C0E946B
:1005200088158DC080910D0691E090936A038093A9
:100530006903109268031092670380910E069091F0
:100540000F06DC01ED91FC910190F081E02D6F2D03
:10055000199560E080910E0690910F060E942D156E
:10056000809144038111FCCF80910D06912F1132AF
:1005700008F090E221E020934403209343033FEFEF
:100580003093420310924103390F3093400320937C
:100590003F0320913F03880F822B80933F0380917C
:1005A0003E03813061F410923E0380913F038093BB
:1005B000BB008091BC0083FDF8CF85EC01C085EEC7
:1005C0008093BC00809144038130E1F3809141032A
:1005D000891710F490914103EEE1F3E0A7E4B3E052
:1005E00080E0891721F021912D938F5FFACF10922F
:1005F00046038093450390E090931506809314067C
:10060000612F70E086179707B9F4ED2CF02E870163
:10061000080F191FE016F10691F080910E069091D7
:100620000F06DC01ED91FC910284F385E02D199514
:10063000F70181937F01EECF8FEF9FEF02C081E042
:1006400090E00F900F90DF91CF911F910F91FF904D
:10065000EF90DF9008950F931F93CF93DF931F9236
:100660001F92CDB7DEB7082F162F80911906882369
:1006700019F140911C0650911D0660911E06709163
:100680001F06CE0101960E94F91789819A810E9466
:10069000891560E0809118060E946D0C802F0E94E1
:1006A000B615812F0E94B61561E0809118060E9450
:1006B0006D0C0E9488152AC080910D0691E09093E0
:1006C0006A03809369031092680310926703809114
:1006D0000E0690910F06DC01ED91FC910190F081E6
:1006E000E02D602F199580910E0690910F06DC0188
:1006F000ED91FC910190F081E02D612F199561E061
:1007000080910E0690910F060E942D156AE070E010
:1007100080E090E00E94F00D46E256E061E0802F1C
:100720000E943F0280912606181719F08FEF9FEF65
:1007300002C081E090E00F900F90DF91CF911F9168
:100740000F9108950F931F93CF93DF93D82FC62F48
:100750008A0160919D0780918F07682B80918A079D
:100760000E942B0397FD21C06D2F80918B070E9463
:100770002B0397FD1DC060918E076C2B80918D0718
:100780000E942B0397FD17C061E070E080E090E0CD
:100790000E94F00DA8016C2F80915F070E943F021C
:1007A000909325068093240608C08FEF9FEF05C025
:1007B0008EEF9FEF02C08DEF9FEFDF91CF911F91E2
:1007C0000F910895CF93DF93D82FC62F60919D0787
:1007D00080918A070E942B0397FD26C06D2F809180
:1007E0008B070E942B0397FD22C06C2F80918C07F2
:1007F0000E942B0397FD1EC060918E07616080915F
:100800008D070E942B0397FD18C046E256E061E079
:100810008D2F0E94A20397FD13C080912606C81752
:1008200091F08AEF9FEF11C08FEF9FEF0EC08EEF18
:100830009FEF0BC08DEF9FEF08C08CEF9FEF05C0BF
:100840008BEF9FEF02C081E090E0DF91CF910895A0
:10085000CF93C82F10921A0663E1809178070E9407
:100860002B0397FD44C06091A00780919F07CA3079
:10087000C0F00E94E20397FF03C08EEF9FEF3CC0E1
:1008800064E670E080E090E00E94F00D6091A107C6
:1008900080919F070E94E20397FF10C08DEF9FEFAA
:1008A0002BC00E94E20397FDE8CF64E670E080E091
:1008B00090E00E94F00D6091A207EACF64E670E03C
:1008C00080E090E00E94F00D46E256E067E0809103
:1008D0009E070E94A2036C2F809178070E942B0331
:1008E00097FD08C0C0939A0681E090E005C08FEFA5
:1008F0009FEF02C08CEF9FEFCF910895CF93DF93CE
:10090000EC0110921A068230910579F128F40097D3
:1009100059F00197F9F055C084309105E1F180F16B
:10092000059709F443C04DC060916B0780916A0739
:100930000E942B0397FF03C08FEF9FEF48C0609189
:100940007207809171070E942B0397FF3AC08EEFC8
:100950009FEF3DC060916C0780916A070E942B0356
:1009600097FDEACF60917307ECCF60916D0780919E
:100970006A070E942B0397FDDFCF60917407E1CFD8
:1009800060916E0780916A070E942B0397FDD4CF78
:1009900060917507D6CF60916F0780916A070E94BA
:1009A0002B0397FDC9CF60917607CBCF609170077D
:1009B00080916A070E942B0397FDBECF6091770755
:1009C000C0CFD0939906C093980681E090E0DF9164
:1009D000CF9108952F923F924F925F926F927F92A4
:1009E0008F929F92AF92BF92CF92DF92EF92FF923F
:1009F0000F931F93CF93DF93CDB7DEB76A970FB6F0
:100A0000F894DEBF0FBECDBF81E080931A0646E2A8
:100A100056E065E180915C070E943F0297FDDCC2D1
:100A2000A0902606B0902706BA24AB24BA24B09230
:100A30003C06A0923B06C0902806D0902906DC24F4
:100A4000CD24DC24D0923E06C0923D06E0902A06DA
:100A5000F0902B06FE24EF24FE24F0924006E09254
:100A60003F0660912C0670912D06362F272F3A8372
:100A7000298330934E0620934D0680902E06909049
:100A80002F06982489249824909242068092410649
:100A9000009130061091310610270127102710937E
:100AA0004406009343064091320650913306542782
:100AB000452754275A8F498F509346064093450641
:100AC00080913406909135069C838B8390934806E1
:100AD0008093470620913606309137063E832D835A
:100AE00030934A06209349064091380650913906C2
:100AF00058874F8350934C0640934B068091420792
:100B0000909143079A878987209144073091450740
:100B10003C872B8740914607509147075E874D875A
:100B2000409078065090790660907A0670907B0627
:100B3000A89EB001A99E700DB89E700D1124C29E92
:100B4000C001C39E900DD29E900D1124680F791F95
:100B5000E49EC001E59E900DF49E900D1124680F57
:100B6000791F072E000C880B990B0E941028A301F7
:100B700092010E946F282091D9063091DA064091A7
:100B8000DB065091DC060E9476292091E506309123
:100B9000E6064091E7065091E8060E946F286093B0
:100BA0004F067093500680935106909352068091A1
:100BB000480790914907988B8F8720914A07309179
:100BC0004B073A8B298B40914C0750914D075C8B1A
:100BD0004B8BA89EB001A99E700DB89E700D11247C
:100BE000C29EC001C39E900DD29E900D1124680F2D
:100BF000791FE49EC001E59E900DF49E900D112496
:100C0000680F791F072E000C880B990B0E94102883
:100C1000A30192010E946F282091DD063091DE062B
:100C20004091DF065091E0060E9476292091E90666
:100C30003091EA064091EB065091EC060E946F2835
:100C4000609353067093540680935506909356060E
:100C500080914E0790914F079E8B8D8B209150076E
:100C600030915107388F2F8B2090520730905307C7
:100C7000AC01A49EC001A59E900DB49E900D1124C0
:100C8000C29EB001C39E700DD29E700D1124680FDC
:100C9000791FE29C9001E39C300DF29C300D1124F1
:100CA000620F731F072E000C880B990B0E941028EF
:100CB000A30192010E946F282091E1063091E20683
:100CC0004091E3065091E4060E9476292091ED06BA
:100CD0003091EE064091EF065091F0060E946F2889
:100CE00060935706709358068093590690935A065E
:100CF000C0907C06D0907D06E0907E06F0907F0646
:100D000029853A85829EC001839E900D929E900D0A
:100D100011244B855C85049FB001059F700D149FC5
:100D2000700D1124680F791F898D9A8D4D855E8510
:100D3000849F9001859F300D949F300D1124620F88
:100D4000731F072E000C880B990B0E941028A70117
:100D500096010E946F282091A9063091AA06409121
:100D6000AB065091AC060E94762960935B067093A7
:100D70005C0680935D0690935E068F859889889EB9
:100D8000B001899E700D989E700D112429893A89B1
:100D9000029FC001039F900D129F900D1124680FB8
:100DA000791F498D5A8D2B893C89429FC001439FF1
:100DB000900D529F900D1124680F791F072E000C83
:100DC000880B990B0E941028A70196010E946F289A
:100DD0002091AD063091AE064091AF065091B0061D
:100DE0000E94762960935F06709360068093610687
:100DF000909362064D895E89849EC001859E900D08
:100E0000949E900D11242F89388D029FB001039F6D
:100E1000700D129F700D1124680F791F498D5A8D26
:100E2000429D9001439D300D529D300D1124620F63
:100E3000731F072E000C880B990B0E941028A70126
:100E400096010E946F282091B1063091B206409120
:100E5000B3065091B4060E9476296093630670939E
:100E6000640680936506909366062B813C81B901E8
:100E7000330F880B990B0E94102820918006309127
:100E8000810640918206509183060E946F2820912E
:100E900026073091270740912807509129070E9483
:100EA00076292091320730913307409134075091D1
:100EB00035070E946F2860936706709368068093D9
:100EC000690690936A064D815E81BA01550F880BC1
:100ED000990B0E941028209184063091850640913C
:100EE0008606509187060E946F2820912A0730912C
:100EF0002B0740912C0750912D070E9476292091B5
:100F000036073091370740913807509139070E94D2
:100F10006F2860936B0670936C0680936D069093B8
:100F20006E062F813885B901330F880B990B0E940B
:100F30001028209188063091890640918A065091A8
:100F40008B060E946F2820912E0730912F07409129
:100F50003007509131070E94762920913A0730914D
:100F60003B0740913C0750913D070E946F286093DA
:100F70006F06709370068093710690937206C0900E
:100F80009006D0909106E0909206F09093064981E9
:100F90005A81BA01550F880B990B0E941028A7019E
:100FA00096010E94762920918C0630918D06409101
:100FB0008E0650918F060E94E329A70196010E9498
:100FC00077296093730670937406809375069093E7
:100FD000760681E090E002C08FEF9FEF6A960FB631
:100FE000F894DEBF0FBECDBFDF91CF911F910F915F
:100FF000FF90EF90DF90CF90BF90AF909F908F9039
:101000007F906F905F904F903F902F90089560E099
:1010100070E086E00E94270D60E070E085E00E94AD
:10102000270D60E070E089E00E94270D60E070E02D
:101030008AE00C94270D60E070E086E00E94270DA6
:101040006091E4077091E50785E00E94270D60E05C
:1010500070E089E00E94270D6091E6077091E70734
:101060008AE00C94270D6091E4077091E50786E013
:101070000E94270D60E070E085E00E94270D6091DE
:10108000E6077091E70789E00E94270D60E070E0B5
:101090008AE00C94270D8F929F92AF92BF92CF92CD
:1010A000DF92EF92FF92CF93DF93EC016A017B0115
:1010B0000E942A0E4B015C0167E1CE010E941916C5
:1010C00084FD29C06FEFCE010E94BD1584FFF4CFCF
:1010D00040E167E0CE010E94D31560E0CE010E949E
:1010E0008C1561E0CE010E948C150E942A0EDC0155
:1010F000CB0188199909AA09BB098C159D05AE0574
:10110000BF05D0F260E0CE010E948C15CE010E9496
:10111000D01580E005C060E0CE010E948C1581E012
:10112000DF91CF91FF90EF90DF90CF90BF90AF9085
:101130009F908F900895EF92FF920F931F93CF93FC
:10114000DF938C01E090CE04F12CE7012897FC019D
:1011500096818CE6890F833020F0983C09F0C7C057
:1011600003C0943909F4DAC08BE6890F823018F095
:10117000983C09F088C02091730530917405AE0148
:10118000420F531F4139510518F010927205ADC03E
:1011900080917205882309F40AC1963921F0F8017B
:1011A00097818913A2C040916F0550917005F80195
:1011B000848195814817590709F097C0809175057A
:1011C00090917605AE0169EA74E0820F931F0E9448
:1011D000B12A8091730590917405C80FD91FD093DF
:1011E0007405C0937305F8018681863931F08091CA
:1011F000720581508093720576C010927205F801D5
:10120000878180937105833809F486C0A0916905B0
:10121000B0916A058FE595E08A1B9B0B8C179D07A3
:1012200030F18AE0EBE6F5E001900D928A95E1F766
:101230008091690590916A056091750570917605B8
:1012400040917305509174050A960E94B12A8091CD
:101250007305909174050A962091690530916A058D
:10126000820F931F90936A05809369053CC080911B
:10127000C9049091CA040E9449168091C4048160F7
:101280008093C40432C0A0916905B0916A05CD0174
:101290008F5C94408C0F9D1F8B39910530F588E051
:1012A000E1EAF4E001900D928A95E1F7E091690599
:1012B000F0916A05D187C0878091690590916A0590
:1012C000AE0169EA74E00A960E94B12AF2E0EF0EDC
:1012D000F11C8091690590916A05E80EF91EF09263
:1012E0006A05E092690581E062C080E060C09338E1
:1012F00051F688E0E1EAF4E0ABE6B5E001900D924A
:101300008A95E1F789EA94E09093760580937505D4
:10131000D0937405C093730582E049C0F8018781BA
:10132000873008F032CF40916F0550917005F80179
:10133000248135814217530749F440916B05509140
:101340006C05208131814217530769F2F8E18F9FC4
:10135000C00111244091690550916A052FE535E0DF
:10136000241B350B281739075CF48091C404816075
:101370008093C4048091C9049091CA040E944916C4
:1013800088E0E1EAF4E0ABE6B5E001900D928A95E1
:10139000E1F7AE0169EA74E08091750590917605F8
:1013A0000E94B12AD0937405C093730520CFDF91BA
:1013B000CF911F910F91FF90EF9008958F929F9280
:1013C000AF92BF92CF92DF92EF92FF920F931F9353
:1013D000CF93DF93CDB7DEB728970FB6F894DEBF73
:1013E0000FBECDBF142F0E94C41649015A016B01D4
:1013F0007C018091C40482FD06C08091C904909153
:10140000CA040E9449168091C9049091CA0411230C
:1014100011F060E001C061E00E9437170091C9043B
:101420001091CA0489829A82AB82BC82CD82DE820C
:10143000EF82F886F8012685AE014F5F5F4F6AE0C4
:10144000C8010E94EE15F8012685AE014F5F5F4F7F
:1014500060E1C8010E94EE15F801478161E1C80111
:101460000E94D3150091CE04E090C904F090CA0404
:101470006FEFC7010E94BD1580FF0DC06FEFC70160
:101480000E94BD1584FFF4CF40E167E0C7010E94D0
:10149000D31510E02EC0F7011781101708F4012FA3
:1014A000F7018085811102C0101B01C010E0C70147
:1014B0000E94B31580EA0E94B61581EAC82E84E026
:1014C000D82E002339F0F60181916F010E94B615E4
:1014D0000150F7CF112329F080E00E94B61511507A
:1014E000F9CFC7010E94B01561E0C7010E948C15B9
:1014F00011E08091C40482FD16C040919B0450917C
:101500009C0460919D0470919E048091C904909107
:10151000CA040E944B08182F60E08091C904909182
:10152000CA040E943717812F28960FB6F894DEBFA1
:101530000FBECDBFDF91CF911F910F91FF90EF9024
:10154000DF90CF90BF90AF909F908F900895FC0157
:10155000228190818181223030F0292F382F81E043
:10156000838380E02CC0292F382F40910A065091A8
:101570000B06B901642375238091CC049091CD04AE
:101580006817790739F02091070630910806809195
:10159000090615C0CA018095909563E0880F991FD0
:1015A0006A95E1F782239323892B41F083E0440F6E
:1015B000551F8A95E1F747602423352385E0318361
:1015C0002083828381E0089508953FB7F894809145
:1015D0006F0390917003A0917103B091720326B5CF
:1015E000A89B05C02F3F19F00196A11DB11D3FBF5B
:1015F000BA2FA92F982F8827820F911DA11DB11DE9
:10160000BC01CD0142E0660F771F881F991F4A95E4
:10161000D1F708958230910538F0880F991F880F0F
:10162000991F05970197F1F708951F920F920FB632
:101630000F9211240BB60F922F933F934F935F930A
:101640006F937F938F939F93AF93BF93EF93FF938A
:10165000E0910E02F0910F021995FF91EF91BF9169
:10166000AF919F918F917F916F915F914F913F913A
:101670002F910F900BBE0F900FBE0F901F901895DB
:101680001F920F920FB60F9211240BB60F922F9349
:101690003F934F935F936F937F938F939F93AF93FA
:1016A000BF93EF93FF93E0910C02F0910D02199517
:1016B000FF91EF91BF91AF919F918F917F916F912A
:1016C0005F914F913F912F910F900BBE0F900FBEE6
:1016D0000F901F9018951F920F920FB60F92112422
:1016E0000BB60F922F933F934F935F936F937F931C
:1016F0008F939F93AF93BF93EF93FF93E091020279
:10170000F09103021995FF91EF91BF91AF919F91D5
:101710008F917F916F915F914F913F912F910F909A
:101720000BBE0F900FBE0F901F9018951F920F9237
:101730000FB60F9211240BB60F922F933F934F9336
:101740005F936F937F938F939F93AF93BF93EF9329
:10175000FF93E0910002F09101021995FF91EF9142
:10176000BF91AF919F918F917F916F915F914F91B9
:101770003F912F910F900BBE0F900FBE0F901F90B7
:1017800018951F920F920FB60F9211240BB60F925D
:101790002F933F934F935F936F937F938F939F9379
:1017A000AF93BF93EF93FF93E0910A02F0910B0286
:1017B0001995FF91EF91BF91AF919F918F917F917B
:1017C0006F915F914F913F912F910F900BBE0F90B2
:1017D0000FBE0F901F9018951F920F920FB60F9289
:1017E00011240BB60F922F933F934F935F936F93F8
:1017F0007F938F939F93AF93BF93EF93FF93E0916A
:101800000802F09109021995FF91EF91BF91AF91F4
:101810009F918F917F916F915F914F913F912F9108
:101820000F900BBE0F900FBE0F901F9018951F9238
:101830000F920FB60F9211240BB60F922F933F9376
:101840004F935F936F937F938F939F93AF93BF93C8
:10185000EF93FF93E0910602F09107021995FF9133
:10186000EF91BF91AF919F918F917F916F915F9118
:101870004F913F912F910F900BBE0F900FBE0F9085
:101880001F9018951F920F920FB60F9211240BB64E
:101890000F922F933F934F935F936F937F938F9309
:1018A0009F93AF93BF93EF93FF93E0910402F09166
:1018B00005021995FF91EF91BF91AF919F918F9183
:1018C0007F916F915F914F913F912F910F900BBE40
:1018D0000F900FBE0F901F901895362F90E0FC01CF
:1018E000E053FC4F4491FC01E657FC4F2491FC016E
:1018F000EC5BFC4F9491992309F46CC0442309F4E8
:1019000055C050E0FA013197E231F10508F04EC0C0
:101910008827EE58FF4F8F4F0C94A42A80918000A7
:101920008F7707C0809180008F7D03C080918000F9
:10193000877F809380003AC084B58F7702C084B5DA
:101940008F7D84BD33C08091B0008F7703C08091BC
:10195000B0008F7D8093B00029C0809190008F7778
:1019600007C0809190008F7D03C080919000877F99
:10197000809390001BC08091A0008F7707C080915A
:10198000A0008F7D03C08091A000877F8093A0007E
:101990000DC0809120018F7707C0809120018F7D3D
:1019A00003C080912001877F80932001E92FF0E020
:1019B000EE0FFF1FE65DFC4FA591B4919FB7F89421
:1019C000311104C08C912095282302C0EC912E2B5C
:1019D0002C939FBF0895CF93DF9390E0FC01E657CF
:1019E000FC4F2491FC01EC5BFC4F8491882361F156
:1019F00090E0880F991FFC01E05FFC4FC591D491E6
:101A0000FC01E65DFC4FA591B491611109C09FB73F
:101A1000F8948881209582238883EC912E230BC033
:101A2000623061F49FB7F8948881322F3095832318
:101A30008883EC912E2B2C939FBF06C08FB7F89410
:101A4000E8812E2B28838FBFDF91CF9108951F93BC
:101A5000CF93DF93182FEB0161E00E94EB0C2097EE
:101A600011F460E004C0CF3FD10539F461E0812F6B
:101A7000DF91CF911F910C946D0CE12FF0E0E053BA
:101A8000FC4FE4918E2F90E0FC013197E231F1059B
:101A900008F09DC08827EC57FF4F8F4F0C94A42A65
:101AA00084B5806884BDC7BD97C084B5806284BD9D
:101AB000C8BD92C080918000806880938000D093E0
:101AC0008900C093880088C08091800080628093E4
:101AD0008000D0938B00C0938A007EC080918000EC
:101AE000886080938000D0938D00C0938C0074C078
:101AF0008091B00080688093B000C093B3006CC048
:101B00008091B00080628093B000C093B40064C044
:101B100080919000806880939000D0939900C0934A
:101B200098005AC080919000806280939000D0937A
:101B30009B00C0939A0050C0809190008860809371
:101B40009000D0939D00C0939C0046C08091A0005F
:101B500080688093A0008091A0008F7B8093A0007C
:101B6000D093A900C093A80037C08091A0008062E4
:101B70008093A000D093AB00C093AA002DC08091A9
:101B8000A00088608093A000D093AD00C093AC000B
:101B900023C080912001806880932001D093290187
:101BA000C093280119C08091200180628093200198
:101BB000D0932B01C0932A010FC08091200188602F
:101BC00080932001D0932D01C0932C0105C0C03813
:101BD000D1050CF04BCF45CFDF91CF911F910895E8
:101BE0008F929F92AF92BF92CF92DF92EF92FF922D
:101BF0006B017C010E94E50A4B015C01C114D10418
:101C0000E104F104F1F00E94E50ADC01CB0188193E
:101C10009909AA09BB09883E9340A105B10570F353
:101C200021E0C21AD108E108F10888EE880E83E0AD
:101C3000981EA11CB11CC114D104E104F10419F7D0
:101C4000DDCFFF90EF90DF90CF90BF90AF909F904F
:101C50008F9008952FB7F89460916B0370916C0387
:101C600080916D0390916E032FBF0895CF92DF9204
:101C7000EF92FF920F931F93CF93DF9300D01F92A9
:101C8000CDB7DEB79C012115310561F0422F4770B9
:101C9000463030F443E0369527954A95E1F7F3CF87
:101CA00080E09AC0162F7C010091A704015419828C
:101CB0001A821B821C829A8389836B83CE010196D0
:101CC0000E94A70A4C816B8189819A810E94DE095A
:101CD000113041F5811102C010E030C089819A8134
:101CE000E816F90609F50F37F8F481EC8093A7049C
:101CF0008091A1049091A2049093A4048093A304E2
:101D00009A8389831B831C82CE0101960E94A70AB5
:101D100088E08093CE044C816B8189819A810E94F6
:101D2000DE0902C08823C1F289819A81E816F9068A
:101D300021F0112379F0133069F011E08091C4048F
:101D400082FD06C08091C9049091CA040E947E164B
:101D5000812F42C00F3788F78091C40482FF1AC0D8
:101D600040919B0450919C0460919D0470919E044D
:101D70008091C9049091CA040E944B088091C404C8
:101D80008B7F8093C40460E08091C9049091CA0461
:101D90000E9437178091C9049091CA040E947E1650
:101DA0000E942A0E6B017C010E94F90E813C29F2EF
:101DB0000E942A0EAB01BC014C195D096E097F0916
:101DC00080919F049091A004A0E0B0E08417950753
:101DD000A607B70748F780CF0F900F900F900F908E
:101DE000DF91CF911F910F91FF90EF90DF90CF90F7
:101DF0000895AF92BF92CF92DF92EF92FF920F932E
:101E00001F93CF93DF938091C40481FD14C0209170
:101E1000690530916A0580FD06C0A9014F5C5440F8
:101E20004937510544F02F5C344011F008F03DC1B2
:101E30008E7F8093C40401E010E074E2E72E79E025
:101E4000F72EC090C904D090CA04F6018081918118
:101E50008F3F910509F429C1828193818F3F9105BC
:101E600009F423C167E1C6010E941916C82FC17089
:101E700080FD1BC16FEFC6010E94BD15C090C90453
:101E8000D090CA04C6010E94B31580E60E94B61520
:101E90008FEF0E94B615D82FC6010E94B015D1321F
:101EA00058F062EEC6010E94BD1562E070E080E06D
:101EB00090E00E94F00D01C0CD2FC093CE04C83039
:101EC00038F46AE070E080E090E00E94F00DB9CF55
:101ED000C090C904D090CA04F60187818C1708F419
:101EE000C82FF6019085911103C0D82FDC1B01C0CB
:101EF000D0E0C6010E94B31581E60E94B61561EAE2
:101F0000A62E64E0B62EC11102C0CD2F08C08FEFFF
:101F10000E94B615F50181935F01C150F4CFCC2327
:101F200029F08FEF0E94B615C150F9CFC6010E946B
:101F3000B01540E767E0C6010E94D3152091A304C5
:101F40003091A404C901009759F0482F47704630DA
:101F500008F077CF53E0969587955A95E1F7F3CF40
:101F60009091A7044091CC045091CD0424173507DB
:101F700009F042C0923809F464CF903889F42432D1
:101F80003940F9F0F092A404E092A30462E084E204
:101F900099E00E94360E6AE070E080E090E04CC06C
:101FA000933C79F42115310561F03093A20420931C
:101FB000A1041092A4041092A30460E080E090E0D9
:101FC0006FC08091C304882319F097FF0CC002C032
:101FD000913C49F48CE6890F833028F0983C19F045
:101FE000933809F060C081EA94E00E949B08823037
:101FF00009F027CF83E85AC02034310509F04EC0DC
:10200000923C11F58091C40483FD1BCF443229E03A
:10201000520709F416CF8091A1049091A2049093E5
:10202000A4048093A3045093A2044093A10460915C
:10203000090670E080E090E00E94F00D62E080917F
:10204000A3049091A4042CC081EA94E00E949B0810
:10205000C82F80919A048823E9F08091CB048823CB
:1020600079F090E001979C01220F331F820F931F9C
:10207000F80102C0EE0FFF1F8A95E2F7CF0102C000
:1020800080E090E064E023E0880F991F2A95E1F753
:102090000E94360EC23009F0D4CEACCF61E0C90147
:1020A0000E94360ECECE892F01C080E0DF91CF9105
:1020B0001F910F91FF90EF90DF90CF90BF90AF9066
:1020C00008954F925F926F927F929F92AF92BF92CC
:1020D000CF92DF92EF92FF920F931F93CF93DF93F4
:1020E0007C018BE1C82E83E0D82E92E2A92EB12C80
:1020F0000091100210911102C801019690931102F3
:10210000809310020E942A0E4090C5045090C6048D
:102110006090C7047090C804DC01CB018419950954
:10212000A609B7094997A105B10590F0C601019725
:10213000F1F78091C40484608093C4048091C90441
:102140009091CA040E944916912CD0E0C2E042C08E
:102150000E94F90E87FFD6CFE9CF82E0D1113FC0B0
:1021600094E928E1D29FB0011124A501461B570B29
:102170004931510510F048E150E028E0240F209348
:10218000CE042091CC043091CD043093A20420934E
:10219000A1041092A4041092A3041093A604009327
:1021A000A5049093A7048093A8044115510531F02C
:1021B0006E0D7F1D89EA94E00E94B12A60E080E004
:1021C00090E00E94360E882361F0C150DF5FCC237F
:1021D000A1F0912CC13009F689E496E9C2CF95E9C6
:1021E000C0CF62E070E080E090E00E94F00D939438
:1021F00082E0891578F7D0E001C0D1E08091C40475
:1022000082FF1CC040919B0450919C0460919D04EE
:1022100070919E048091C9049091CA040E944B0859
:10222000D82F8091C9049091CA040E947E1660E064
:102230008091C9049091CA040E9437178091C40408
:102240008B7F8093C404DD2361F0CC23A9F00E942E
:102250002A0E6093C5047093C6048093C7049093BC
:10226000C8048FEF92E00E94291764E670E080E0D6
:1022700090E00E94F00D3CCFDF91CF911F910F9124
:10228000FF90EF90DF90CF90BF90AF909F907F90A6
:102290006F905F904F900895FC01538D448D252FD2
:1022A00030E0842F90E0821B930B541710F0CF96F0
:1022B000089501970895FC01918D828D981761F022
:1022C000828DDF01A80FB11D5D968C91928D9F5F6D
:1022D0009F73928F90E008958FEF9FEF0895FC0118
:1022E000918D828D981731F0828DE80FF11D858DCB
:1022F00090E008958FEF9FEF0895FC01918D228D5E
:10230000892F90E0805C9F4F821B91098F739927E2
:10231000089587ED93E00E947D1121E0892B09F457
:1023200020E0822F0895FC01848DDF01A80FB11DEC
:10233000A35ABF4F2C91848D90E001968F739927FB
:10234000848FA689B7892C93A089B1898C918370D9
:1023500080648C93938D848D981306C00288F389D2
:10236000E02D80818F7D80830895EF92FF920F93FF
:102370001F93CF93DF93EC0181E0888F9B8D8C8D31
:10238000981305C0E889F989808185FD26C0F62E5D
:102390000B8D10E00F5F1F4F0F731127E02E8C8DF8
:1023A000E8120CC00FB607FCFACFE889F9898081E2
:1023B00085FFF5CFCE010E949311F1CF8B8DFE01E9
:1023C000E80FF11DE35AFF4FF0829FB7F8940B8F8F
:1023D000EA89FB89808180620AC09FB7F894EE8900
:1023E000FF896083E889F9898081837080648083B4
:1023F0009FBF81E090E0DF91CF911F910F91FF90FF
:10240000EF900895CF93DF93EC01888D8823C9F076
:10241000EA89FB89808185FD05C0A889B9898C91ED
:1024200086FD0FC00FB607FCF5CF808185FFF2CF88
:10243000A889B9898C9185FFEDCFCE010E949311B7
:10244000E7CFDF91CF91089580E090E0892B21F0D4
:102450000E948911811125C080E090E0892B41F014
:1024600080E090E0892B21F00E94000081111CC0C7
:1024700080E090E0892B41F080E090E0892B21F012
:102480000E940000811113C080E090E0892BA1F030
:1024900080E090E0892B81F00E94000081110AC049
:1024A00008950E940000D8CF0E940000E1CF0E9452
:1024B0000000EACF0C9400000895CF92DF92EF92D3
:1024C000FF920F931F93CF93DF936C017A018B01DF
:1024D000C0E0D0E0CE15DF0581F0D8016D918D010F
:1024E000D601ED91FC910190F081E02DC601199586
:1024F000892B11F02196EECF7E01C701DF91CF919C
:102500001F910F91FF90EF90DF90CF90089585ED90
:102510008093BC008091BC0084FDFCCF10924403EA
:1025200008954091B403262F30E0240F311D21324D
:102530003105DCF4209144032430C9F4FC0180E02F
:1025400090E0861758F43091B4032191DC01AC5629
:10255000BC4FA30FB11D2C930196F3CF8091B40310
:10256000680F6093B40380E0089581E0089582E0ED
:102570000895089508950895E091460380914503D4
:10258000E81730F4F0E0E95BFC4F808190E00895BB
:102590008FEF9FEF08959091460380914503981720
:1025A00050F4E92FF0E0E95BFC4F208130E09F5FC1
:1025B0009093460302C02FEF3FEFC9010895809129
:1025C000450390E020914603821B91090895CF9224
:1025D000DF92EF92FF920F931F93CF93DF937C01D3
:1025E000CB018A0120916A03222389F0EB016B0160
:1025F000C40ED51ECC15DD0569F06991D701ED91AA
:10260000FC910190F081E02DC7011995F3CF642F63
:102610000E949112C801DF91CF911F910F91FF90FD
:10262000EF90DF90CF900895CF93DF931F92CDB7B7
:10263000DEB7698320916A032223D1F020916703DA
:10264000203240F021E030E0FC013383228380E03F
:1026500090E015C080916803E82FF0E0ED58FC4F42
:10266000998190838F5F809368038093670305C08F
:1026700061E0CE0101960E94911281E090E00F90FE
:10268000DF91CF910895089580E090E00895E6E10C
:10269000F3E080819181A281B3810196A11DB11DDA
:1026A00080839183A283B3830895E6E1F3E084817C
:1026B0009581A681B7810196A11DB11D8483958363
:1026C000A683B78308950E94AC2A1F920F920FB67B
:1026D0000F9211240BB60F922F933F934F935F935A
:1026E0006F937F938F939F93AF93BF93EF93FF93DA
:1026F00087ED93E00E949311FF91EF91BF91AF910D
:102700009F918F917F916F915F914F913F912F9109
:102710000F900BBE0F900FBE0F901F9018951F9239
:102720000F920FB60F9211240BB60F922F938F9327
:102730009F93EF93FF93E091E703F091E80380818B
:10274000E091ED03F091EE0382FD12C09081809143
:10275000F0038F5F8F732091F103821751F0E091A6
:10276000F003F0E0E952FC4F958F8093F00301C035
:102770008081FF91EF919F918F912F910F900BBED0
:102780000F900FBE0F901F9018951F920F920FB6CB
:102790000F9211240BB60F922F933F934F935F9399
:1027A0006F937F938F939F93AF93BF93EF93FF9319
:1027B0008091B900887F803609F49CC068F5883222
:1027C00009F45BC090F4803109F454C038F48823D4
:1027D00009F4F6C0883009F44DC0F6C0883109F418
:1027E0004CC0803209F45DC0EFC0803409F468C089
:1027F00048F4803309F455C0883309F0E5C080936C
:102800004203D8C0803509F44FC0883509F45DC053
:10281000883409F0D9C0D6C0883909F4C7C0A8F4F3
:10282000883709F467C038F4883609F463C0803704
:1028300009F460C0C9C0883809F4B8C0803909F407
:102840005FC0803809F0C0C05BC0803B09F486C01F
:1028500038F4803A09F466C0883A09F47FC0B4C0FD
:10286000803C09F4A7C0883C09F4A4C0883B09F463
:102870008AC0AAC080913F0310C09091410380910B
:102880004003981770F5E091410381E08E0F80932B
:102890004103F0E0E25EFC4F80818093BB0085EC59
:1028A00086C0809342038EC0E091410381E08E0F89
:1028B000809341038091BB00F0E0E25EFC4F808397
:1028C00090914103809140036EC0E091410381E00B
:1028D0008E0F809341038091BB00F0E0E25EFC4FDD
:1028E00080838091430381116DC081E080933E031A
:1028F00084EA61C083E0809344031092D603CFCF73
:102900008091D603803208F051C0E091D60381E077
:102910008E0F8093D6038091BB00F0E0EA54FC4F09
:102920008083BDCF85EC8093BC00109244038091DE
:10293000D603803230F4E091D603F0E0EA54FC4F45
:1029400010826091D60370E0E0911203F0911303BE
:1029500086EB93E019951092D60336C084E08093FD
:1029600044031092B5031092B403E0911403F09164
:10297000150319958091B403811105C081E08093FE
:10298000B40310929403E091B50381E08E0F80931D
:10299000B503F0E0EC56FC4F80818093BB00909132
:1029A000B5038091B403981708F479CF85E8809334
:1029B000BC000AC085EC8093BC001092440304C0A4
:1029C000109242030E948712FF91EF91BF91AF9145
:1029D0009F918F917F916F915F914F913F912F9137
:1029E0000F900BBE0F900FBE0F901F901895CF93B6
:1029F000CFB7F89480919303811127C0E9E7F3E002
:102A00008491EFEBF3E09491E82FF0E0EE0FFF1FDD
:102A1000E05FFC4FA591B491EC91E92321F461E0D2
:102A200085E30E946D0C61E085E30E94EB0C8CB5A0
:102A300080618CBD8CB580648CBD61E084E30E94B4
:102A4000EB0C61E083E30E94EB0C809193038F5FBA
:102A500080939303CFBFCF910895309167033132B4
:102A600008F04AC0809144038111FCCF9091690322
:102A700022E020934403609343032FEF209342030B
:102A80001092410330934003E3E7F3E0AEE1B3E09B
:102A900020E0321721F041914D932F5FFACF109231
:102AA0003F0320913F03990F922B90933F03909106
:102AB0003E03913061F410923E0390913F03909356
:102AC000BB009091BC0093FDF8CF95EC01C095EE52
:102AD0009093BC00909144039230E1F390914203B3
:102AE0009F3F79F080914203803241F08091420310
:102AF000803331F084E005C081E003C082E001C092
:102B000083E0109268031092670310926A0308959D
:102B100008958CBD9DBD0895FC0120813181828185
:102B200093812817390719F0822F0C946D0C0895A2
:102B3000CF93DF93EC018CB58F7D8CBD8CB5837FFB
:102B40008CBD8CB58C7F8CBD8DB581608DBD8A812F
:102B50000E946D0C8C899D89DF91CF910C940A0B9A
:102B600061E00C94981560E00C9498158EBD0000FF
:102B70000DB407FEFDCF8EB508951F93CF93DF935D
:102B8000EC01162F0E94B315812F0E94B615182F45
:102B9000CE010E94B015812FDF91CF911F91089532
:102BA00061EE0C94BD150F931F93CF93DF938C01AF
:102BB000C62FD42F0E94B3158C2F8F7180620E9474
:102BC000B615C82F8D2F0E94B615C8010E94B015EA
:102BD0008C2FDF91CF911F910F910895CF92DF92AB
:102BE000EF92FF920F931F93CF93DF937C01162FE9
:102BF0006A01C22F0E94B315812F8F7180620E94DB
:102C0000B615D82F8601CC2339F0F80181918F01B8
:102C10000E94B615C150F7CFC7010E94B0158D2F85
:102C2000DF91CF911F910F91FF90EF90DF90CF90A8
:102C300008951F93CF93DF93EC01162F0E94B315D5
:102C4000812F8F710E94B6158FEF0E94B615182F35
:102C5000CE010E94B015812FDF91CF911F91089571
:102C6000CF93DF93EC0160E00E94191681FD0EC046
:102C7000482F426060E0CE010E94D31565E070E00D
:102C800080E090E0DF91CF910C94F00DDF91CF9137
:102C90000895CF93DF93EC0160E00E948C15888942
:102CA00099890E940A0B6DE1CE010E94191681FFDD
:102CB00007C0888999890E940A0BCE010E94D0150D
:102CC00060E0CE010E941916482F4E7F60E0CE01D1
:102CD0000E94D31562E0CE010E941916EEEFF2E0D9
:102CE000E49141E050E001C0440FEA95EAF7482B37
:102CF00062E0CE01DF91CF910C94D315CF93DF9397
:102D0000EC010E94301660E0CE010E941916482F97
:102D1000416060E0CE010E94D31540E767E0CE013C
:102D20000E94D31561E0CE010E948C15898588230D
:102D300049F02E85AE01475F5F4F6AE0CE010E94E9
:102D4000EE1514C062E0CE010E941916EEEFF2E01B
:102D5000E49121E030E001C0220FEA95EAF72095E6
:102D6000422F482362E0CE010E94D3156DE1CE01CF
:102D70000E94191681FF05C0CE01DF91CF910C94FE
:102D8000D015DF91CF910895CF93DF93CDB7DEB704
:102D900028970FB6F894DEBF0FBECDBFAC019CECF8
:102DA00099839A839B839C839D831E821F821886AE
:102DB0009A01E1E021153105C9F0611103C0411507
:102DC000510569F4D901A770BB27AE5EBD4F8C9148
:102DD000A1E0B0E0AC0FBD1FAE0FB11D8C9383E03E
:102DE000369527958A95E1F7EF5FE4CF611102C030
:102DF000452B39F4E62FF0E0EE5EFD4F80818983AC
:102E000005C0F0E0EF5EFD4F80818A8329813A8121
:102E10004B815C816D817E818F81988528960FB66C
:102E2000F894DEBF0FBECDBFDF91CF91089500971C
:102E300069F0FC0101900020E9F73197AF01481BD0
:102E4000590BBC0187ED93E00C945D1280E090E09B
:102E50000895CF93DF930E941717EC018EE093E063
:102E60000E9417178C0F9D1FDF91CF9108951F931C
:102E7000CF93DF93EC01162F61E00E941916482FC3
:102E8000112311F0416001C04E7F61E0CE01DF915E
:102E9000CF911F910C94D315E7EDF3E0A089B18990
:102EA00082E08C93A485B5851C92A685B78580E1C8
:102EB0008C93108EA489B58986E08C93A289B389FE
:102EC0008C9180618C93A289B3898C9188608C935A
:102ED000A289B3898C9180688C930288F389E02D54
:102EE00080818F7D808308958F929F92AF92BF9251
:102EF000CF92DF92EF92FF920F931F93CF93DF93C6
:102F0000CDB7DEB7A1970FB6F894DEBF0FBECDBF29
:102F10006B017C0197FF2BC06DE287ED93E00E946F
:102F2000B5118C0122273327A9012C193D094E091F
:102F30005F0919A2CE0181967C019AE0892E912C1D
:102F4000A12CB12CCA01B901A50194010E945429F8
:102F5000605DF70162937F0121153105410551053F
:102F600089F7CF010E941717800F911F1DC09B0189
:102F7000AC0119A28E010F5D1F4F8AE0C82ED12C23
:102F8000E12CF12CCA01B901A70196010E94542934
:102F9000605DF80162938F012115310541055105EE
:102FA00089F7CF010E941717A1960FB6F894DEBFDC
:102FB0000FBECDBFDF91CF911F910F91FF90EF908A
:102FC000DF90CF90BF90AF909F908F900895CF9358
:102FD000DF93BC01990F880B990B0E947417EC01C9
:102FE0008EE093E00E9417178C0F9D1FDF91CF9109
:102FF0000895CF92DF92EF92FF92FC01C12C92E1F3
:10300000D92E9AE7E92EF12C20E04C155D056E05CE
:103010007F0540F4F694E794D794C7942F5F263049
:10302000A1F727E091E09227292F286B269520838E
:1030300091709183FF90EF90DF90CF9008951F9251
:103040000F920FB60F9211242F933F938F939F935C
:10305000AF93BF9380916B0390916C03A0916D032C
:10306000B0916E033091820923E0230F2D3720F4B5
:103070000196A11DB11D05C026E8230F0296A11DD2
:10308000B11D2093820980936B0390936C03A093EE
:103090006D03B0936E0380916F0390917003A091C4
:1030A0007103B09172030196A11DB11D80936F034E
:1030B00090937003A0937103B0937203BF91AF918B
:1030C0009F918F913F912F910F900FBE0F901F9066
:1030D0001895CF93DF93CDB7DEB7AA970FB6F894C4
:1030E000DEBF0FBECDBF789484B5826084BD84B549
:1030F000816084BD85B5826085BD85B5816085BDF3
:1031000080916E00816080936E00109281008091AA
:103110008100826080938100809181008160809332
:103120008100809180008160809380008091B10057
:1031300084608093B1008091B00081608093B00082
:1031400080919100826080939100809191008160D4
:103150008093910080919000816080939000809195
:10316000A10082608093A1008091A1008160809382
:10317000A1008091A00081608093A0008091210136
:1031800082608093210180912101816080932101DF
:103190008091200181608093200180917A00846079
:1031A00080937A0080917A00826080937A00809187
:1031B0007A00816080937A0080917A0080688093A1
:1031C0007A001092C1000E944C1780911906882342
:1031D00079F010921A0661E0809118060E94EB0CBB
:1031E00061E0809118060E946D0C0E94F7144CC09B
:1031F00010924603109245031092680310926703E1
:103200001092440381E08093430310923E0361E0F7
:1032100084E10E946D0C61E085E10E946D0C80915B
:10322000B9008E7F8093B9008091B9008D7F809323
:10323000B90088E48093B80085E48093BC0089EBF2
:1032400092E190931503809314038AEB92E190939B
:1032500013038093120320911006309111064091C0
:1032600012065091130660E074E284EF90E00E9431
:103270005429DA01C9014097A109B109B695A7956A
:10328000979587958093B8006091820780917F071A
:103290000E942B0397FD4CC06091870780918607A1
:1032A0000E942B0397FD47C0609188078091890792
:1032B0000E942B0397FD42C06091A00780919F0759
:1032C0000E94E2036091810780917F070E942B0397
:1032D00061E070E080E090E00E94F00D6091A50751
:1032E0008091A4070E94E2036091820780917F078A
:1032F0000E942B0397FD25C046E256E061E08091D5
:1033000095070E943F0297FD05C0809126068137F0
:1033100009F4BDC546E256E061E0809195070E9440
:103320003F0297FD11C080912606833769F4AFC52F
:103330008FEF9FEF66C08EEF9FEF63C08DEF9FEF23
:1033400060C08CEF9FEF5DC08BEF9FEF5AC0809104
:103350009D0690919E06A0919F06B091A006809335
:10336000A9069093AA06A093AB06B093AC068091F1
:10337000A1069091A206A091A306B091A406809305
:10338000AD069093AE06A093AF06B093B0068091C1
:10339000A5069091A606A091A706B091A8068093D5
:1033A000B1069093B206A093B306B093B406009111
:1033B00096061091970610921A060130110509F42D
:1033C000B5C708F4A6C70230110509F4BCC703301D
:1033D000110509F4C5C710939706009396068091CE
:1033E0009806909199060E947E0497FF02C00C9463
:1033F000F92180919A060E94280497FDFAC781E07E
:1034000090E09093C1078093C00797FF12C08DE3AF
:1034100092E00E9429178DE592E00E94291783E827
:1034200092E00E9417178091C0079091C1070E94F7
:10343000E71710921A0660916307809160070E9457
:103440002B0397FD22C020E030E040E051E4609182
:1034500054077091550780915607909157070E9425
:103460006F2820E03FEF4FEF56E40E94E32960937E
:1034700078067093790680937A0690937B0682E0B3
:1034800090E0909395068093940610921A066091AE
:103490006707809165070E942B0397FD1CC02AEFE8
:1034A00030E04AE75CE360915807709159078091DA
:1034B0005A0790915B070E946F2860937C06709377
:1034C0007D0680937E0690937F0681E090E0909346
:1034D00097068093960683E090E00E947E0483E145
:1034E0000E942804E8EAEE2EE7E0FE2E00E010E05D
:1034F000C8010E942D29F70181937F010F5F1F4FA3
:1035000008311105A9F78091B4079091B507A091F2
:10351000B607B091B7074091A8075091A9076091ED
:10352000AA077091AB074093260750932707609333
:103530002807709329078093320790933307A0934D
:103540003407B09335078091B8079091B907A091DF
:10355000BA07B091BB074091AC075091AD0760919D
:10356000AE077091AF0740932A0750932B076093E3
:103570002C0770932D078093360790933707A093FD
:103580003807B09339078091BC079091BD07A0918F
:10359000BE07B091BF074091B0075091B10760914D
:1035A000B2077091B30740932E0750932F07609393
:1035B00030077093310780933A0790933B07A093AD
:1035C0003C07B0933D071092CA071092CB071092A8
:1035D000CC071092CD070E944C1760E083E00E9458
:1035E000EB0C61E083E00E946D0C87E493E1909323
:1035F00003028093020280916A00837F846080933B
:103600006A00ED9A8CE892E00E94171788EF92E02A
:103610000E94171781E090E00E94E71760E082E0C7
:103620000E94EB0C61E082E00E946D0C85E593E165
:10363000909301028093000280916A008C7F8160E8
:1036400080936A00EC9A81E080930C060E944C17EC
:1036500080918204909183042091840430918504A8
:103660008217930719F061E00E94EB0C80918404AB
:1036700090918504209182043091830428173907A2
:1036800019F061E00E94EB0C0E94F71460E082E800
:1036900094E00E948C1561E082E894E00E94981505
:1036A00065E070E080E090E00E94F00D4CE060E0AA
:1036B00082E894E00E94D3154FE564E082E894E04C
:1036C0000E94D31566E082E894E00E941916877D77
:1036D000182F10628BE990E0A0E0B0E08093920494
:1036E00090939304A0939404B0939504412F66E0C3
:1036F00082E894E00E94D31566E082E894E00E949C
:103700001916181709F478C666E082E894E00E945A
:10371000191666E082E894E00E94191645E550E02B
:1037200060E070E04093920450939304609394049B
:1037300070939504482F477D66E082E894E00E94EC
:10374000D31566E082E894E00E94191682E894E0BE
:103750000E94B31580E50E94B61583E70E94B61556
:1037600082E894E00E94B01540E06DE182E894E0C8
:103770000E94D31540E06CE182E894E00E94D315EA
:1037800010928A0440E767E082E894E00E94D31533
:103790004CE465E082E894E00E94D31562EE82E892
:1037A00094E00E94BD1582E894E00E94D01582E862
:1037B00094E00E94301660E082E894E00E941916BE
:1037C000482F4E7F60E082E894E00E94D31581E0AC
:1037D00090E09093CD048093CC048091C9049091A3
:1037E000CA04FC01208131812F3F3105A9F02281DB
:1037F00033812F3F310509F003C60EC0209309061F
:1038000026E0D22EDA94FFEFDF127EC68091C90443
:103810009091CA040E947E1685E992E00E942917C1
:1038200086EF282E33243A9492E0492E512C612CB5
:10383000712C0E94F90EE0906905F0906A05FFEC8A
:10384000EF16F4E0FF0609F008F474C0D090D50438
:103850000091D7041091D804A8010332110510F08B
:1038600042E250E069ED74E0CE0101960E94B12A77
:10387000C101801B910BE80EF91EF0926A05E092DF
:1038800069054AE950E0401B510BB80167527B4F74
:103890008FEC94E00E94BA2A2DE4D216B1F12D15D6
:1038A00080F089E4D81241C088EA92E00E9429178A
:1038B000CE0101960E946110CE0101960E94611016
:1038C000BACFE2E5DE1689F0F4E5DF122EC08BEB0D
:1038D00092E00E9429178E010D5F1F4F24E14CE0FA
:1038E00060E070E080EA91E40DC08EEC92E00E940E
:1038F00029178E010D5F1F4F24E14CE061EA70E053
:1039000084EB92E40E949A2596CF8EE0FE013396D6
:10391000A4E7B4E001900D928A95E1F780917404D8
:10392000909175040E94E71786CF80EE92E00E9486
:10393000291781CF0E94EA0497FD44C00E942A0EF5
:103940000091CE071091CF072091D0073091D10779
:10395000601B710B820B930B6093CE077093CF07A4
:103960008093D0079093D1070E941028209163067E
:103970003091640640916506509166060E946F285A
:1039800020E030E04AE754E40E94E3292091CA078E
:103990003091CB074091CC075091CD070E947729F9
:1039A0006093CA077093CB078093CC079093CD07A1
:1039B0000E942A0E6093CE077093CF078093D007A2
:1039C0009093D1078091D2079091D30782309105CF
:1039D00009F42BC140F08330910509F449C10497E3
:1039E00009F41FC168C1C0901A03D0901B03E09076
:1039F0001C03F0901D038090160390901703A09075
:103A00001803B0901903C701B601680D791D8A1D0E
:103A10009B1DA30192010E943529CA01B9010E9490
:103A2000102820E030E846E253E40E94E3292BED21
:103A30003FE049EC50E40E946F2820E030E048EF7E
:103A400051E40E946F2823E333E343E95FE30E94DC
:103A50006F289B01AC016091DC077091DD078091BC
:103A6000DE079091DF070E94092818161CF00E94BB
:103A70000708D7C00E942A0E0091E0071091E107C5
:103A80002091E2073091E307DC01CB01801B910B11
:103A9000A20BB30BC397A105B10508F40CC1C70174
:103AA000B601681979098A099B090E9410282DEC32
:103AB0003CEC4CE45EE30E946F286B017C0120E04B
:103AC00030E0A9010E948B2A20E030E040E05FE373
:103AD00087FD0CC0C701B6010E9477290E94552AB4
:103AE000663F7F4F8F4F9F4F6CF112C0C701B601E9
:103AF0000E9476290E94552A663FEFEF7E078E07C7
:103B00009E0704F16B3071058105910504F11DC01C
:103B100020E030E040E05FE3C701B6010E94772972
:103B20000E94552A6B3071058105910574F420E0DF
:103B300030E040E05FE3C701B6010E9477290E94B0
:103B4000552A05C066EF7FEF02C06AE070E086E9A3
:103B500090E0861B970B8F3F910519F014F08FEFC3
:103B600090E097FF02C080E090E09093E50780939B
:103B7000E4076A567F4F6F3F710519F014F06FEF3D
:103B800070E077FF02C060E070E07093E707609339
:103B9000E60785EF92E00E94171760911A03709173
:103BA0001B0380911C0390911D030E94741788EFE2
:103BB00092E00E9417178091E4079091E5070E9418
:103BC000E7178AEF92E00E94171760911603709131
:103BD000170380911803909119030E94741788EFBE
:103BE00092E00E9417178091E6079091E7070E94E4
:103BF000E7178091D2079091D307009729F001979A
:103C000029F40E941B0802C00E9433080E942A0E59
:103C10006093E0077093E1078093E2079093E307D6
:103C20004AC081E080930C0646C020E030E044E3C7
:103C300053E46091CA077091CB078091CC079091B3
:103C4000CD070E946F282BED3FE049E450E40E942D
:103C5000E3299B01AC016091DC077091DD07809145
:103C6000DE079091DF070E948B2A87FD24C0FFCEDC
:103C700020E030E044E353E46091CA077091CB0741
:103C80008091CC079091CD070E946F282BED3FE0EB
:103C900049E450E40E94E3299B01AC016091DC07F8
:103CA0007091DD078091DE079091DF070E9409285F
:103CB00018160CF0DCCE80910C06882309F4DEC0C7
:103CC0008091740490917504C0907E04D0907F041C
:103CD000E0908004F09081049093D3078093D20702
:103CE00010920C068230910509F459C040F50097F6
:103CF00081F1019709F0C2C0C092DC07D092DD07C4
:103D0000E092DE07F092DF0710921603109217037D
:103D1000109218031092190310921A0310921B03A9
:103D200010921C0310921D031092EB071092EA07E9
:103D30001092E9071092E8070E941B082CC08330FC
:103D4000910509F463C0049709F098C00E94070820
:103D500095C0C092DC07D092DD07E092DE07F092BA
:103D6000DF07109216031092170310921803109297
:103D7000190310921A0310921B0310921C03109245
:103D80001D031092EB071092EA071092E9071092B8
:103D9000E8070E94330881E080930C066FC020E0A2
:103DA00030E044E353E46091CA077091CB078091FF
:103DB000CC079091CD070E946F282BED3FE049E49E
:103DC00050E40E94E329A70196010E94762960939E
:103DD000DC077093DD078093DE079093DF07609127
:103DE000E6077091E70789E00E94270D60E070E028
:103DF0008AE00E94270D60E070E086E00E94270DB7
:103E00006091E4077091E50785E036C020E030E07E
:103E100044E353E46091CA077091CB078091CC07CB
:103E20009091CD070E946F282BED3FE049E450E4CC
:103E30000E94E329A70196010E9477296093DC077D
:103E40007093DD078093DE079093DF076091E407AE
:103E50007091E50786E00E94270D60E070E085E044
:103E60000E94270D6091E6077091E7078AE00E94A3
:103E7000270D60E070E089E00E94270D6AE070E0A5
:103E800080E090E00E94F00D0E942412D2CC60915C
:103E90008407809183070E942B0397FDA7C260913E
:103EA0006407809160070E942B0397FD78C220E091
:103EB00030E040E851E460915407709155078091DB
:103EC0005607909157070E946F2820E03FEF4FEF71
:103ED00056E40E94E32960937806709379068093F4
:103EE0007A0690937B0603E010E01093950600930A
:103EF000940660916907809165070E942B0397FDE6
:103F000051C22AEF30E04AE75DE3609158077091B3
:103F1000590780915A0790915B070E946F28609320
:103F20007C0670937D0680937E0690937F061093A7
:103F300097060093960660916B0780916A070E942E
:103F40002B0397FD32C260917207809171070E9426
:103F50002B0397FD2DC2109299061092980660E0EF
:103F6000809178070E942B0397FD25C210929A0634
:103F700060918707809186070E942B0397FD1EC2E0
:103F800060918807809189070E942B0397FD19C2D1
:103F900046E256E061E08091A7070E94A20397FDE8
:103FA00013C280912606883409F00EC26091A007E2
:103FB00080919F070E94E20397FD09C264E670E0CA
:103FC00080E090E00E94F00D6091A30780919F0730
:103FD0000E94E20397FDFEC164E670E080E090E09D
:103FE0000E94F00D46E256E063E08091A6070E9431
:103FF000A2036091260670E080E090E00E940E2807
:1040000020E030E040E053E40E94762920E030E0F8
:1040100040E85BE30E946F2820E030E040E85FE387
:104020000E94772920E030E849E955E40E946F2892
:1040300020E030EF4FEF56E40E94E32960938006C2
:104040007093810680938206909383066091270681
:1040500070E080E090E00E940E2820E030E040E038
:1040600053E40E94762920E030E040E85BE30E94C0
:104070006F2820E030E040E85FE30E94772920E0ED
:1040800030E849E955E40E946F2820E030EF4FEF17
:1040900056E40E94E329609384067093850680931A
:1040A0008606909387066091280670E080E090E095
:1040B0000E940E2820E030E040E053E40E94762980
:1040C00020E030E040E85BE30E946F2820E030E031
:1040D00040E85FE30E94772920E030E849E955E4B1
:1040E0000E946F2820E030EF4FEF56E40E94E32952
:1040F000609388067093890680938A0690938B0656
:104100006091A00780919F070E94E20397FD65C11F
:1041100064E670E080E090E00E94F00D6091A207FC
:1041200080919F070E94E20397FD5AC164E670E008
:1041300080E090E00E94F00D6091820780917F07FF
:104140000E942B0397FD4FC146E256E067E0809145
:104150009E070E94A20310921A0660916607809142
:1041600065070E942B0397FD44C12AEF30E04AEF18
:104170005BE3609158077091590780915A079091BD
:104180005B070E946F2860937C0670937D06809386
:104190007E0690937F06109297061092960683E013
:1041A00090E00E947E0497FD24C183E10E942804D0
:1041B00097FD1FC110929D0610929E0610929F06B9
:1041C0001092A0061092A1061092A2061092A306C9
:1041D0001092A4061092A5061092A6061092A706A9
:1041E0001092A80600E010E080919B0690919C063A
:1041F0000817190708F0ABC80E94EA0460919B06F3
:1042000070919C0680E090E00E940E286B017C017A
:104210002091A9063091AA064091AB065091AC06B8
:1042200060915B0670915C0680915D0690915E06E0
:104230000E947729A70196010E94E32920919D06FB
:1042400030919E0640919F065091A0060E947729CA
:1042500060939D0670939E0680939F069093A006A0
:104260002091AD063091AE064091AF065091B00658
:1042700060915F0670916006809161069091620680
:104280000E947729A70196010E94E3292091A106A7
:104290003091A2064091A3065091A4060E9477296E
:1042A0006093A1067093A2068093A3069093A40640
:1042B0002091B1063091B2064091B3065091B406F8
:1042C0006091630670916406809165069091660620
:1042D0000E947729A70196010E94E3292091A50653
:1042E0003091A6064091A7065091A8060E94772912
:1042F0006093A5067093A6068093A7069093A806E0
:1043000064E170E080E090E00E94F00D0F5F1F4FCD
:104310006BCF60916607809165070E942B0397FD24
:1043200068C02AEF30E04AEF5BE326C06091670780
:10433000809165070E942B0397FD5BC02AEF30E058
:104340004AE75CE319C060916807809165070E94A5
:104350002B0397FD4EC02AEF30E04AEF5CE30CC020
:1043600060916907809165070E942B0397FD41C00A
:104370002AEF30E04AE75DE36091580770915907F2
:1043800080915A0790915B070E946F2860937C068A
:1043900070937D0680937E0690937F061CC889EFFC
:1043A0009FEF2FC888EF9FEF2CC887EF9FEF29C89A
:1043B00086EF9FEF26C885EF9FEF23C884EF9FEF1E
:1043C00020C883EF9FEF1DC882EF9FEF1AC881EFCF
:1043D0009FEF17C880EF9FEF14C88FEE9FEF11C8B3
:1043E0008EEE9FEF0EC88DEE9FEF0BC88AEF9FEF0A
:1043F00008C88CEE9FEF05C881E08093880484C9CB
:1044000044E665E00E94D31560E08091C904909174
:10441000CA040E9437170091C9041091CA046DE1C3
:10442000C8010E941916482F44606DE1C8010E941E
:10443000D3156CE1C8010E941916482F4F636CE137
:10444000C8010E94D31581E0F80180878091CC04D7
:104450009091CD0466E070E00E94902A482F440FAE
:104460004B5FF0E14F9FA0011124456064E0809113
:10447000C9049091CA040E94D31589E190E0A0E09C
:10448000B0E080939B0490939C04A0939D04B09310
:104490009E048BE490E09093A00480939F0420916D
:1044A000CC043091CD0440E08FEF9FEFB901682339
:1044B0007923672B39F073E0880F991F7A95E1F71C
:1044C0004F5FF4CF4093CB048095909590930B066B
:1044D00080930A0663E0969587956A95E1F7A901AE
:1044E000482359235093080640930706009709F480
:1044F00085C943E0369527954A95E1F753E09695AF
:1045000087955A95E1F7F2CF6D2D81E090E00E94FA
:10451000C4160091C9041091CA042BA33CA34DA357
:104520005EA36FA378A789A79AA7ED2CF12CD110D1
:104530000BC0F801468550E0BE016D5D7F4FC8019C
:1045400009960E94B12A03C0F1E0DF1207C0F7010B
:10455000E65FFC4F6491F801268505C0F701E65F30
:10456000FC4F649121E0AE014D5D5F4FC8010E9498
:10457000EE15F701EC5FFC4F6491F8014781C8012B
:104580000E94D31562E0C8010E941916F701E2509B
:10459000FD4FE49141E050E001C0440FEA95EAF795
:1045A000482B62E0C8010E94D3152CC92F923F927C
:1045B0004F925F926F927F928F929F92AF92BF9233
:1045C000CF92DF92EF92FF920F931F93CF93DF93DF
:1045D000E7EDF3E01382128248EE53E060E070E012
:1045E00044835583668377838DE192E09183808352
:1045F00085EC90E09587848784EC90E097878687A8
:1046000080EC90E0918B808B81EC90E0938B828B9F
:1046100082EC90E0958B848B86EC90E0978B868B78
:10462000118E128E138E148E86E7282E89E0382E76
:10463000D10113961C921E921297F1014483558367
:10464000668377838FE292E091838083EEE5F9E0E1
:1046500097E0E92EF12CF182E08208E010E013836C
:1046600002831682D0E2D7831086C5E0C68725E094
:10467000822E912CA12CB12C848A958AA68AB78A85
:1046800011868CEE97E0DC01D096FC93EE939F9719
:1046900021E238E03093BC082093BB0829EC38E0D5
:1046A0003093C8082093C7082DEB38E098963C93C8
:1046B0002E939797FC0113A614A615A616A612A66C
:1046C00011A61082ECE0F6E040E85AE166E070E006
:1046D000448355836683778320E8278740E452E448
:1046E0006FE070E0408B518B628B738B40EC51EE2E
:1046F00064EE70E0448B558B668B778B4CE55FEEF8
:1047000066EA73E440938C0650938D0660938E06A0
:1047100070938F0640E050E068EA71E440939006A1
:1047200050939106609392067093930684E690E00E
:1047300090939C0680939B0640E050E060E87FE306
:104740004093E5065093E6066093E7067093E8060B
:104750004093E9065093EA066093EB067093EC06EB
:104760004093ED065093EE066093EF067093F006CB
:1047700088EE93E09093F2068093F1063AE9432E97
:1047800039E9532E652C3EE3732E4092F306509286
:10479000F4066092F5067092F60638E03093F7065C
:1047A0004093320750933307609334077093350773
:1047B0004093360750933707609338077093390753
:1047C00040933A0750933B0760933C0770933D0733
:1047D000109243071092420781E090E090934507C2
:1047E0008093440710924707109246079093490719
:1047F0008093480710924B0710924A0710924D077A
:1048000010924C0710924F0710924E0710925107CA
:10481000109250078FEF9FEF9093530780935207AA
:10482000A9E74A2EA9EE5A2EACE16A2EA1E47A2E0F
:10483000409254075092550760925607709257075E
:10484000B5E34B2EBAEF5B2EBEE86B2EBCE37B2E9E
:10485000409258075092590760925A0770925B072E
:104860008BE380935C0783E480935D0781E480930E
:104870005E0789E480935F078CE180936007109264
:1048800061073093620790E19093630788E180931A
:104890006407ABE1DA2ED092650710926607309379
:1048A000670790936807809369078DE180936A0793
:1048B00081E080936B07B2E06B2E60926C07A3E0FF
:1048C000DA2ED0926D07B4E07B2E70926E07C09303
:1048D0006F07A6E0CA2EC0927007BAE15B2E509215
:1048E00071078093720760927307D0927407709279
:1048F0007507C0937607C0927707A9E1CA2EC092C8
:104900007807B7E3CB2EC0927907A8E3CA2EC092EE
:104910007A0710927B0710927C07B0E4CB2EC092EE
:104920007D0780937E07ABE67A2E70927F07D09347
:1049300080072093810780938207BCE67B2E7092CC
:10494000830710928407A7E07A2E70928507BAE653
:104950007B2E70928607D0938707ADE07A2E7092F7
:104960008807B4E27B2E70928907A5E27A2E7092B6
:104970008A07B6E27B2E70928B07A3E67A2E70929E
:104980008C07B7E27B2E70928D0720938E072093C1
:104990008F07A9E67A2E7092900720939107C09214
:1049A0009207BEE1CB2EC0929307AFE1CA2EC09210
:1049B0009407B5E7CB2EC0929507A3E2CA2EC0920A
:1049C00096072093970720E720939807309399073D
:1049D00080939A0722E720939B0724E720939C0764
:1049E0002CE020939D07D0929E072AE020939F07FA
:1049F0001092A00722E12093A10726E12093A207AD
:104A00002FE02093A3072BE02093A4078093A50712
:104A10009093A6071092A7073382228288E68183AB
:104A200015864093B4075093B5076093B60770930B
:104A3000B7074093B8075093B9076093BA077093CC
:104A4000BB074093BC075093BD076093BE077093AC
:104A5000BF071092CE071092CF071092D007109286
:104A6000D10786E990E09093E5078093E40790935F
:104A7000E7078093E6071092E9071092E807109283
:104A8000EB071092EA0761E086E00E94EB0C61E020
:104A900085E00E94EB0C61E089E00E94EB0C61E094
:104AA0008AE00E94EB0CE4E7F4E0F786E686118BDF
:104AB000008B148AD58B168AC48F82A293A2A4A2DB
:104AC000B5A2178A82E894E09093CA048093C9043F
:104AD0008FEC94E090936A058093690587E795E0F1
:104AE00090937605809375058BE695E09093C204CC
:104AF0008093C1041092C5041092C6041092C7049A
:104B00001092C8041092C4041092C30416A2DF913C
:104B1000CF911F910F91FF90EF90DF90CF90BF90BA
:104B2000AF909F908F907F906F905F904F903F904D
:104B30002F900895EF920F931F93CF93DF93E80187
:104B400047FD02C034E001C034E1042E000C550BD7
:104B500057FF03C0519541955109E32E022F242F91
:104B6000AE010E94BA25CE01DF91CF911F910F9126
:104B7000EF9008958F929F92AF92BF92CF92DF9263
:104B8000EF92FF920F931F93CF93DF93CDB7DEB7D2
:104B900029970FB6F894DEBF0FBECDBF6A01122F62
:104BA000B02E2BE3201720F0FF24F394F00E02C068
:104BB0002CE3F22E0F2D27E0AE014F5F5F4F0E94D6
:104BC0003127BC014981842F8970813031F0E1FCAB
:104BD00006C0E0FE06C090E205C09DE203C09BE275
:104BE00001C090E05E2D507143FF3CC0911102C0A6
:104BF00083E001C084E0811718F4212F281B01C035
:104C000020E051110BC0F601822F30E2882319F009
:104C100031938150FBCFC20ED11C20E0992329F0A3
:104C2000D6019C93F60131966F01C6010396E2FE10
:104C30000AC03EE4D6013C9341E411964C9311978F
:104C400012963C9306C03EE6F601308341E641836E
:104C50003283FC01322F40E2332309F442C04193F6
:104C60003150FACF42FF44C0911102C083E001C02D
:104C700084E0811718F4212F281B01C020E0511176
:104C80000BC0F601822F30E2882319F03193815056
:104C9000FBCFC20ED11C20E0992329F0D6019C93B2
:104CA000F60131966F01C6010396E2FE0BC039E4AE
:104CB000D6013C933EE411963C93119736E412964C
:104CC0003C9307C039E6F60130833EE6318336E691
:104CD0003283FC01322F40E2332319F041933150EB
:104CE000FBCFFC01E20FF11D10828EEF9FEFA6C0FB
:104CF00021E030E0911102C020E030E016161706E6
:104D00001CF4FB01319602C0E1E0F0E02E0F3F1FE2
:104D1000BB2021F0EB2DF0E0319602C0E0E0F0E0A6
:104D20002E0F3F1FE12FF0E02E173F071CF4121B40
:104D3000212F01C020E08E2D887159F4F601822FB9
:104D400030E2882319F031938150FBCFC20ED11C81
:104D500020E0992329F0D6019C93F60131966F014A
:104D600051110BC0F601822F90E3882319F0919323
:104D70008150FBCFC20ED11C20E00F2D060F9A816F
:104D8000342F307144FF03C0913309F401501016E1
:104D900024F4093018F008E001C001E0AB0177FF0E
:104DA00002C040E050E0FB01E41BF50BA1E0B0E0E5
:104DB000AC0FBD1FEA0FFB1F8EE2A82E4B01801A1D
:104DC00091080B2D10E01195019511094F3FBFEF90
:104DD0005B0721F4D601AC9211966D01641775073B
:104DE0002CF08416950614F4818101C080E34150B3
:104DF00051093196D60111967D014017510724F0D3
:104E0000D6018C936701E2CF6417750739F49633A6
:104E100020F4953319F4311101C081E3F601808348
:104E2000F701822F90E2882319F091938150FBCFF4
:104E3000F701E20FF11D108280E090E029960FB695
:104E4000F894DEBF0FBECDBFDF91CF911F910F91C0
:104E5000FF90EF90DF90CF90BF90AF909F908F909A
:104E60000895283008F027E03327DA01990F311D23
:104E700087FD916000966105710539F432602E5FFF
:104E80003D9330E32A95E1F708959F3F30F0803855
:104E90007105610509F03C5F3C5F3D93913008F07E
:104EA0008068911DDF93CF931F930F93FF92EF9232
:104EB000192F987F9695E92F96959695E90FFF27DC
:104EC000E25AFD4F99273327EE24FF24A701E7017B
:104ED00005900894079428F4360FE71EF81E491F22
:104EE000511D660F771F881F991F0694A1F7059023
:104EF000079428F4E70EF81E491F561FC11D770FAF
:104F0000881F991F661F0694A1F70590079428F43F
:104F1000F80E491F561FC71FD11D880F991F661F06
:104F2000771F0694A1F70590079420F4490F561FA8
:104F3000C71FD81F990F661F771F881F0694A9F7F0
:104F400084911095177041F0D695C7955795479560
:104F5000F794E7941A95C1F7E4E0F2E068941590AD
:104F6000159135916591959105907FE27395E118C2
:104F7000F10A430B560BC90BD009C0F7E10CF11E27
:104F8000431F561FC91FD01D7EF4703311F48A953C
:104F9000E6CFE894015030F0080F0AF4002702171A
:104FA00008F4202F2395022F7A3328F079E37D939C
:104FB0002A95E9F710C07D932A9589F6069497956E
:104FC0006795379517951794E118F10A430B560B1F
:104FD000C90BD00998F023957E9173957A3308F028
:104FE00070E37C932013B8F77E9170617D9330F06D
:104FF000839571E37D9370E32A95E1F71124EF9097
:10500000FF900F911F91CF91DF91992787FD909588
:1050100008950E944B2808F481E00895E89409C09F
:1050200097FB3EF490958095709561957F4F8F4FDB
:105030009F4F9923A9F0F92F96E9BB279395F695F1
:10504000879577956795B795F111F8CFFAF4BB0F6F
:1050500011F460FF1BC06F5F7F4F8F4F9F4F16C0D3
:10506000882311F096E911C0772321F09EE8872F5D
:10507000762F05C0662371F096E8862F70E060E019
:105080002AF09A95660F771F881FDAF7880F969592
:10509000879597F90895990F0008550FAA0BE0E836
:1050A000FEEF16161706E807F907C0F012161306EA
:1050B000E407F50798F0621B730B840B950B39F42A
:1050C0000A2661F0232B242B252B21F408950A2690
:1050D00009F4A140A6958FEF811D811D08950E94BE
:1050E00082280C94F3280E94E52838F00E94EC28CE
:1050F00020F0952311F00C94DC280C94E228112464
:105100000C9427290E94042970F3959FC1F3950FF1
:1051100050E0551F629FF001729FBB27F00DB11D3B
:10512000639FAA27F00DB11DAA1F649F6627B00DCB
:10513000A11D661F829F2227B00DA11D621F739FB4
:10514000B00DA11D621F839FA00D611D221F749FC2
:105150003327A00D611D231F849F600D211D822F09
:10516000762F6A2F11249F5750409AF0F1F0882330
:105170004AF0EE0FFF1FBB1F661F771F881F91505D
:105180005040A9F79E3F510580F00C94DC280C9408
:1051900027295F3FE4F3983ED4F38695779567958A
:1051A000B795F795E7959F5FC1F7FE2B880F911D87
:1051B0009695879597F9089597F99F6780E870E02D
:1051C00060E008959FEF80EC089500240A9416167D
:1051D000170618060906089500240A9412161306E5
:1051E000140605060895092E0394000C11F4882373
:1051F00052F0BB0F40F4BF2B11F460FF04C06F5F8F
:105200007F4F8F4F9F4F089557FD9058440F551F64
:1052100059F05F3F71F04795880F97FB991F61F038
:105220009F3F79F087950895121613061406551FAF
:10523000F2CF4695F1DF08C0161617061806991F1B
:10524000F1CF86957105610508940895E894BB2710
:1052500066277727CB0197F90895F999FECF92BD7C
:1052600081BDF89A992780B50895052E97FB1EF405
:1052700000940E944C2957FD07D00E94542907FC36
:1052800003D04EF40C944C295095409530952195BF
:105290003F4F4F4F5F4F0895909580957095619562
:1052A0007F4F8F4F9F4F0895A1E21A2EAA1BBB1B61
:1052B000FD010DC0AA1FBB1FEE1FFF1FA217B307E2
:1052C000E407F50720F0A21BB30BE40BF50B661FF8
:1052D000771F881F991F1A9469F7609570958095BC
:1052E00090959B01AC01BD01CF0108955058BB279B
:1052F000AA270E948E290C94F3280E94E52838F0F2
:105300000E94EC2820F039F49F3F19F426F40C9405
:10531000E2280EF4E095E7FB0C94DC28E92F0E94CC
:10532000042958F3BA17620773078407950720F01A
:1053300079F4A6F50C9426290EF4E0950B2EBA2FDD
:10534000A02D0B01B90190010C01CA01A00111248B
:10535000FF27591B99F0593F50F4503E68F11A1637
:10536000F040A22F232F342F4427585FF3CF4695C8
:1053700037952795A795F0405395C9F77EF41F16EA
:10538000BA0B620B730B840BBAF09150A1F0FF0FB4
:10539000BB1F661F771F881FC2F70EC0BA0F621FA0
:1053A000731F841F48F4879577956795B795F79590
:1053B0009E3F08F0B0CF9395880F08F09927EE0F25
:1053C0009795879508950E94F7290C94F3280E94D9
:1053D000EC2858F00E94E52840F029F45F3F29F0BE
:1053E0000C94DC2851110C9427290C94E2280E947B
:1053F000042968F39923B1F3552391F3951B550BB9
:10540000BB27AA2762177307840738F09F5F5F4F97
:10541000220F331F441FAA1FA9F335D00E2E3AF0D6
:10542000E0E832D091505040E695001CCAF72BD0EE
:10543000FE2F29D0660F771F881FBB1F261737073F
:105440004807AB07B0E809F0BB0B802DBF01FF2771
:1054500093585F4F3AF09E3F510578F00C94DC284A
:105460000C9427295F3FE4F3983ED4F38695779513
:105470006795B795F7959F5FC9F7880F911D96952A
:10548000879597F90895E1E0660F771F881FBB1F86
:10549000621773078407BA0720F0621B730B840B33
:1054A000BA0BEE1F88F7E09508950E945C2A689475
:1054B000B1110C94272908950E940C2988F09F5758
:1054C00098F0B92F9927B751B0F0E1F0660F771F28
:1054D000881F991F1AF0BA95C9F714C0B13091F01E
:1054E0000E942629B1E008950C942629672F782F71
:1054F0008827B85F39F0B93FCCF3869577956795E3
:10550000B395D9F73EF490958095709561957F4F4E
:105510008F4F9F4F08950E944B2808F48FEF0895F6
:10552000AA1BBB1B51E107C0AA1FBB1FA617B707C9
:1055300010F0A61BB70B881F991F5A95A9F78095E5
:105540009095BC01CD010895EE0FFF1F881F8BBF02
:105550000790F691E02D199481E090E0F8940C9476
:10556000CC2AFB01DC0102C001900D924150504059
:10557000D8F708956817790768F4FB01DC01E40F98
:10558000F51FA40FB51F02C002900E92415050406B
:0C559000D8F708950C94B12AF894FFCFCE
:10559C00E40AE40AE40AE40AE40AE40AE40AE40A8F
:1055AC000100C33C33CE3EE3EC00000000B5115DBE
:1055BC00124C1102127D115B116F110000000014CE
:1055CC0013E7124413BB12DF12CB12BC12494D5518
:1055DC0020696E697469616C697A6174696F6E2097
:1055EC00756E7375636365737366756C004368657C
:1055FC00636B20494D5520776972696E67206F7215
:10560C0020747279206379636C696E6720706F7790
:10561C006572005374617475733A200049535220BB
:10562C006E756D3A005374617274696E6720696EA1
:10563C00736563742E2E2E0048616E646C696E6700
:10564C0020696E69745F747970650048616E646C72
:10565C00696E672074656D705F7479706500486160
:10566C006E646C696E6720676574206779726F0071
:10567C00554E4B4E4F574E204D45535341474520A9
:10568C0054595045004C533A090052533A090046BC
:10569C0061696C656420746F2073656E64000D0A1B
:0256AC000000FC
:00000001FF
