:100000000C94F0010C9421020C9421020C94210216
:100010000C9421020C9421020C9421020C942102D4
:100020000C9421020C9421020C9421020C942102C4
:100030000C9421020C9421020C9421020C942102B4
:100040000C9421020C9421020C9421020C942102A4
:100050000C9421020C9421020C9421020C945D1545
:100060000C9421020C94F4090C94CA090C942102FA
:100070000C9421020C9421020C9421020C94210274
:100080000C9421020C9421020C9421020C94210264
:100090000C9421020C9421020C9421020C942A0A43
:1000A0000C9421020C9421020C9421020C94210244
:1000B0000C9421020C9421020C9421020C94210234
:1000C0000C9421020C9421020C9421020C94210224
:1000D0000C9421020C9421020C9421020C94210214
:1000E0000C94210217131A1309130D131113511332
:1000F0001E13221328132C13301336133A133E13F6
:100100005113441348134C130C944C090C94C50917
:100110000C9409130C9483080C9411130C943D094E
:100120000C943A130C944C130C943B090C941A1332
:100130000C94DE080C94CD070C94F0070C94221359
:100140000C94CD1F0C943C090C9495090C946009F7
:100150000C943A090C9436080C943E130C94FE0748
:100160000C94DC070C9444130C9436130C9468091B
:100170000C941E130C9448130C9451130C941713E5
:100180000C9430130C9428130C940D130C942C1312
:100190004E414E494E495459494E46CDCCCC3D0A6C
:1001A000D7233C17B7D13877CC2B329595E6241F4F
:1001B000B14F0A000020410000C84200401C462008
:1001C000BCBE4CCA1B0E5AAEC59D7400407A10F3DB
:1001D0005A00A0724E18090010A5D4E80000E87675
:1001E00048170000E40B54020000CA9A3B000000CC
:1001F000E1F505000080969800000040420F0000E5
:1002000000A08601000000102700000000E80300A5
:100210000000006400000000000A0000000000016F
:1002200000000000002C76D888DC674F0823DFC16F
:10023000DFAE59E1B1B796E5E3E453C63AE651992A
:100240007696E8E6C28426EB898C9B62ED407C6F53
:10025000FCEFBC9C9F40F2BAA56FA5F490055A2A0A
:10026000F75C936B6CF9676DC11BFCE0E40D47FE16
:10027000F520E6B500D0ED902E030094357705000B
:1002800080841E080000204E0A000000C80C333392
:1002900033330F986E12831141EF8D2114893BE6A1
:1002A0005516CFFEE6DB18D1844B381BF77C1D902A
:1002B0001DA4BBE424203284725E228100C9F12493
:1002C000ECA1E53D270001020304051112131415EA
:1002D000160A0B0C0D0E0F00000A0B02090C0D0E76
:1002E00008070304010000000000000000000000F7
:1002F00000000000000000000000000000000000FE
:1003000000000012111000000000000000000000BA
:1003100000000000000000000000000000000022BB
:1003200000250028002B002E0031003400020100BF
:1003300000050108010B0100002100240027002A0C
:10034000002D003000330001010000040107010A04
:100350000105050505070508080808020202020A4A
:100360000A08080404040401010101010101010358
:1003700003030303030303040707070C0C0C0C0C13
:100380000C0C0C0202020206060606060606060B06
:100390000B0B0B0B0B0B0B0102102020080810207D
:1003A0004010204080020102010804020101020401
:1003B00008102040808040201008040201800402C0
:1003C0000180402010080402010804020101020417
:1003D0000810204080010204081020408000CD1F3A
:1003E00011241FBECFEFD1E2DEBFCDBF00E00CBFB6
:1003F00013E0A0E0B2E0E8E5F2E500E00BBF02C0E8
:1004000007900D92AE30B107D9F729E0AEE0B3E026
:1004100001C01D92A636B207E1F711E0C0EFD1E0AE
:1004200000E006C021970109802FFE010E940229E9
:10043000CF3ED10780E00807A9F70E94A7150C94CA
:100440002A290C9400000F931F93CF93DF931F92E0
:100450001F92CDB7DEB7082F162F80910106882393
:1004600019F14091040650910506609106067091BD
:100470000706CE0101960E94F50D89819A810E949E
:10048000EB0B60E0809100060E94E812802F0E9432
:10049000180C812F0E94180C61E0809100060E94C8
:1004A000E8120E94EA0B2AC08091F50591E0909332
:1004B000C2038093C1031092C0031092BF038091C6
:1004C000F6059091F705DC01ED91FC910190F0812A
:1004D000E02D602F19958091F6059091F705DC01CC
:1004E000ED91FC910190F081E02D612F199561E073
:1004F0008091F6059091F7050E948F0B6AE070E0FD
:1005000080E090E00E9466134EE056E061E0802FAC
:100510000E941B0E80910E06181719F08FEF9FEFA7
:1005200002C081E090E00F900F90DF91CF911F917A
:100530000F9108950F931F93CF93DF93D82FC62F5A
:100540008A016091850780917707682B80917207F7
:100550000E94230297FD21C06D2F809173070E9496
:10056000230297FD1DC0609176076C2B8091750763
:100570000E94230297FD17C061E070E080E090E0E8
:100580000E946613A8016C2F809147070E941B0EE2
:1005900090930D0680930C0608C08FEF9FEF05C067
:1005A0008EEF9FEF02C08DEF9FEFDF91CF911F91F4
:1005B0000F910895CF93DF93D82FC62F60918507B1
:1005C000809172070E94230297FD26C06D2F8091B3
:1005D00073070E94230297FD22C06C2F809174073D
:1005E0000E94230297FD1EC0609176076160809192
:1005F00075070E94230297FD18C04EE056E061E0A7
:100600008D2F0E949A0297FD13C080910E06C81785
:1006100091F08AEF9FEF11C08FEF9FEF0EC08EEF2A
:100620009FEF0BC08DEF9FEF08C08CEF9FEF05C0D1
:100630008BEF9FEF02C081E090E0DF91CF910895B2
:10064000CF93C82F1092020663E1809160070E9449
:10065000230297FD44C06091880780918707CA30C4
:10066000C0F00E94DA0297FF03C08EEF9FEF3CC0FC
:1006700064E670E080E090E00E9466136091890774
:10068000809187070E94DA0297FF10C08DEF9FEFDD
:100690002BC00E94DA0297FDE8CF64E670E080E0AC
:1006A00090E00E94661360918A07EACF64E670E0EA
:1006B00080E090E00E9466134EE056E067E0809193
:1006C00086070E949A026C2F809160070E94230285
:1006D00097FD08C0C093820681E090E005C08FEFCF
:1006E0009FEF02C08CEF9FEFCF910895CF93DF93E0
:1006F000EC01109202068230910579F128F40097FE
:1007000059F00197F9F055C084309105E1F180F17D
:10071000059709F443C04DC060915307809152077B
:100720000E94230297FF03C08FEF9FEF48C06091A4
:100730005A07809159070E94230297FF3AC08EEF13
:100740009FEF3DC060915407809152070E942302A1
:1007500097FDEACF60915B07ECCF609155078091E0
:1007600052070E94230297FDDFCF60915C07E1CF23
:1007700060915607809152070E94230297FDD4CFC3
:1007800060915D07D6CF60915707809152070E9414
:10079000230297FDC9CF60915E07CBCF60915807C8
:1007A000809152070E94230297FDBECF60915F07A0
:1007B000C0CFD0938106C093800681E090E0DF91A6
:1007C000CF9108958F929F92AF92BF920F931F93F4
:1007D000CF93DF93CDB7DEB7A1970FB6F894DEBF06
:1007E0000FBECDBF19A2423008F44AE08E010F5D62
:1007F0001F4F842E912CA12CB12CA50194010E9495
:10080000A527E62FB901CA0101501109EA3014F4F5
:10081000E05D01C0E95CD801EC93232B242B252B50
:1008200061F7C8010E94980DA1960FB6F894DEBF3B
:100830000FBECDBFDF91CF911F910F91BF90AF90B1
:100840009F908F900895CF92DF92EF92FF92CF9377
:10085000DF936B017C016DE283EC93E00E9436082C
:10086000EC0166277727CB016C197D098E099F095A
:100870004AE00E94E2038C0F9D1FDF91CF91FF9011
:10088000EF90DF90CF9008952F923F924F925F921A
:100890006F927F928F929F92AF92BF92CF92DF9290
:1008A000EF92FF920F931F93CF93DF93CDB7DEB7F5
:1008B0006A970FB6F894DEBF0FBECDBF81E080937C
:1008C00002064EE056E065E1809144070E941B0E4F
:1008D00097FDDCC2A0900E06B0900F06BA24AB24A0
:1008E000BA24B0922406A0922306C0901006D0909D
:1008F0001106DC24CD24DC24D0922606C0922506E5
:10090000E0901206F0901306FE24EF24FE24F092ED
:100910002806E09227066091140670911506362F7E
:10092000272F3A832983309336062093350680900B
:1009300016069090170698248924982490922A06E7
:100940008092290600911806109119061027012798
:10095000102710932C0600932B0640911A065091F5
:100960001B065427452754275A8F498F50932E062C
:1009700040932D0680911C0690911D069C838B83CD
:100980009093300680932F0620911E0630911F060B
:100990003E832D833093320620933106409120060A
:1009A0005091210658874F83509334064093330665
:1009B00080912A0790912B079A87898720912C078D
:1009C00030912D073C872B8740912E0750912F07A0
:1009D0005E874D8740906006509061066090620689
:1009E00070906306A89EB001A99E700DB89E700D10
:1009F0001124C29EC001C39E900DD29E900D112461
:100A0000680F791FE49EC001E59E900DF49E900D45
:100A10001124680F791F072E000C880B990B0E9478
:100A20007226A30192010E94D1262091C106309125
:100A3000C2064091C3065091C4060E94D627209159
:100A4000CD063091CE064091CF065091D0060E943F
:100A5000D1266093370670933806809339069093B9
:100A60003A068091300790913107988B8F872091BB
:100A70003207309133073A8B298B409134075091DC
:100A800035075C8B4B8BA89EB001A99E700DB89E5C
:100A9000700D1124C29EC001C39E900DD29E900D78
:100AA0001124680F791FE49EC001E59E900DF49E0D
:100AB000900D1124680F791F072E000C880B990BDD
:100AC0000E947226A30192010E94D1262091C506A0
:100AD0003091C6064091C7065091C8060E94D6279D
:100AE0002091D1063091D2064091D3065091D40680
:100AF0000E94D12660933B0670933C0680933D068E
:100B000090933E0680913607909137079E8B8D8B90
:100B10002091380730913907388F2F8B20903A0772
:100B200030903B07AC01A49EC001A59E900DB49EE1
:100B3000900D1124C29EB001C39E700DD29E700D07
:100B40001124680F791FE29C9001E39C300DF29C08
:100B5000300D1124620F731F072E000C880B990BA8
:100B60000E947226A30192010E94D1262091C906FB
:100B70003091CA064091CB065091CC060E94D627F0
:100B80002091D5063091D6064091D7065091D806CF
:100B90000E94D12660933F067093400680934106E1
:100BA00090934206C0906406D0906506E090660679
:100BB000F090670629853A85829EC001839E900D3C
:100BC000929E900D11244B855C85049FB001059F7A
:100BD000700D149F700D1124680F791F898D9A8DE7
:100BE0004D855E85849F9001859F300D949F300DCB
:100BF0001124620F731F072E000C880B990B0E94A3
:100C00007226A70196010E94D1262091910630916B
:100C1000920640919306509194060E94D6276093C5
:100C200043067093440680934506909346068F854D
:100C30009889889EB001899E700D989E700D112430
:100C400029893A89029FC001039F900D129F900D40
:100C50001124680F791F498D5A8D2B893C89429F39
:100C6000C001439F900D529F900D1124680F791F72
:100C7000072E000C880B990B0E947226A701960183
:100C80000E94D126209195063091960640919706B4
:100C9000509198060E94D6276093470670934806A5
:100CA0008093490690934A064D895E89849EC001CF
:100CB000859E900D949E900D11242F89388D029F52
:100CC000B001039F700D129F700D1124680F791FE2
:100CD000498D5A8D429D9001439D300D529D300D9E
:100CE0001124620F731F072E000C880B990B0E94B2
:100CF0007226A70196010E94D12620919906309173
:100D00009A0640919B0650919C060E94D6276093BC
:100D10004B0670934C0680934D0690934E062B81A4
:100D20003C81B901330F880B990B0E9472262091E8
:100D300068063091690640916A0650916B060E94E0
:100D4000D12620910E0730910F0740911007509146
:100D500011070E94D62720911A0730911B07409156
:100D60001C0750911D070E94D12660934F06709377
:100D7000500680935106909352064D815E81BA01D0
:100D8000550F880B990B0E94722620916C063091AA
:100D90006D0640916E0650916F060E94D1262091FB
:100DA00012073091130740911407509115070E94C4
:100DB000D62720911E0730911F07409120075091A0
:100DC00021070E94D12660935306709354068093A6
:100DD0005506909356062F813885B901330F880B3D
:100DE000990B0E94722620917006309171064091F5
:100DF0007206509173060E94D126209116073091F9
:100E0000170740911807509119070E94D627209183
:100E100022073091230740912407509125070E9413
:100E2000D126609357067093580680935906909385
:100E30005A06C0907806D0907906E0907A06F09035
:100E40007B0649815A81BA01550F880B990B0E9484
:100E50007226A70196010E94D62720917406309130
:100E6000750640917606509177060E944328A701A7
:100E700096010E94D72760935B0670935C0680936F
:100E80005D0690935E0681E090E002C08FEF9FEFD9
:100E90006A960FB6F894DEBF0FBECDBFDF91CF913B
:100EA0001F910F91FF90EF90DF90CF90BF90AF9088
:100EB0009F908F907F906F905F904F903F902F907A
:100EC000089586E00E94790D60E086E00E94E812B5
:100ED00085E00E94790D60E085E00E94E81289E0DB
:100EE0000E94790D60E089E00E94E8128AE00E9489
:100EF000790D60E08AE00C94E8128F929F92AF9295
:100F0000BF92CF92DF92EF92FF92CF93DF93EC01EB
:100F10006A017B010E94A0134B015C0167E1CE01D5
:100F20000E947B0C84FD29C06FEFCE010E941F0C34
:100F300084FFF4CF40E167E0CE010E94350C60E011
:100F4000CE010E94EE0B61E0CE010E94EE0B0E94EA
:100F5000A013DC01CB0188199909AA09BB098C15DA
:100F60009D05AE05BF05D0F260E0CE010E94EE0BFC
:100F7000CE010E94320C80E005C060E0CE010E94EC
:100F8000EE0B81E0DF91CF91FF90EF90DF90CF905B
:100F9000BF90AF909F908F900895FC01538D448D2A
:100FA000252F30E0842F90E0821B930B541710F014
:100FB000CF96089501970895FC01918D828D981721
:100FC00061F0828DDF01A80FB11D5D968C91928D2D
:100FD0009F5F9F73928F90E008958FEF9FEF08952A
:100FE000FC01918D828D981731F0828DE80FF11DF3
:100FF000858D90E008958FEF9FEF0895FC01918D0E
:10100000228D892F90E0805C9F4F821B91098F7306
:101010009927089583EC93E00E94FE0721E0892B35
:1010200009F420E0822F0895FC01848DDF01A80FD0
:10103000B11DA35ABF4F2C91848D90E001968F7300
:101040009927848FA689B7892C93A089B1898C911F
:10105000837080648C93938D848D981306C002886E
:10106000F389E02D80818F7D80830895EF92FF9238
:101070000F931F93CF93DF93EC0181E0888F9B8DBB
:101080008C8D981305C0E889F989808185FD26C07B
:10109000F62E0B8D10E00F5F1F4F0F731127E02E00
:1010A0008C8DE8120CC00FB607FCFACFE889F989DD
:1010B000808185FFF5CFCE010E941408F1CF8B8D82
:1010C000FE01E80FF11DE35AFF4FF0829FB7F8943D
:1010D0000B8FEA89FB89808180620AC09FB7F894F0
:1010E000EE89FF896083E889F98980818370806453
:1010F00080839FBF81E090E0DF91CF911F910F919E
:10110000FF90EF900895CF93DF93EC01888D8823B3
:10111000C9F0EA89FB89808185FD05C0A889B98964
:101120008C9186FD0FC00FB607FCF5CF808185FF3F
:10113000F2CFA889B9898C9185FFEDCFCE010E94AD
:101140001408E7CFDF91CF91089580E090E0892BDC
:1011500021F00E940A08811125C080E090E0892BCF
:1011600041F080E090E0892B21F00E940000811185
:101170001CC080E090E0892B41F080E090E0892B5A
:1011800021F00E940000811113C080E090E0892BC3
:10119000A1F080E090E0892B81F00E940000811195
:1011A0000AC008950E940000D8CF0E940000E1CF3D
:1011B0000E940000EACF0C9400000895CF92DF92C5
:1011C000EF92FF920F931F93CF93DF936C017A01FD
:1011D0008B01C0E0D0E0CE15DF0581F0D8016D9124
:1011E0008D01D601ED91FC910190F081E02DC601B9
:1011F0001995892B11F02196EECF7E01C701DF9161
:10120000CF911F910F91FF90EF90DF90CF900895B5
:1012100085ED8093BC008091BC0084FDFCCF1092D2
:101220009C03089540915303262F30E0240F311D75
:1012300021323105DCF420919C032430C9F4FC01F7
:1012400080E090E0861758F4309153032191DC013F
:10125000AD5CBC4FA30FB11D2C930196F3CF8091D1
:101260005303680F6093530380E0089581E008956D
:1012700082E00895089508950895E0919E03809175
:101280009D03E81730F4F0E0E156FC4F808190E0D8
:1012900008958FEF9FEF089590919E0380919D0395
:1012A000981750F4E92FF0E0E156FC4F208130E030
:1012B0009F5F90939E0302C02FEF3FEFC9010895F7
:1012C00080919D0390E020919E03821B91090895D7
:1012D000CF92DF92EF92FF920F931F93CF93DF9302
:1012E0007C01CB018A012091C203222389F0EB010A
:1012F0006B01C40ED51ECC15DD0569F06991D701CF
:10130000ED91FC910190F081E02DC7011995F3CF8B
:10131000642F0E941209C801DF91CF911F910F9194
:10132000FF90EF90DF90CF900895CF93DF931F92BF
:10133000CDB7DEB769832091C2032223D1F020917B
:10134000BF03203240F021E030E0FC0133832283F0
:1013500080E090E015C08091C003E82FF0E0EE5EE1
:10136000FC4F998190838F5F8093C0038093BF036C
:1013700005C061E0CE0101960E94120981E090E073
:101380000F90DF91CF910895089580E090E0089547
:101390000E940A291F920F920FB60F9211240BB6CA
:1013A0000F922F933F934F935F936F937F938F93FE
:1013B0009F93AF93BF93EF93FF9383EC93E00E94CF
:1013C0001408FF91EF91BF91AF919F918F917F9101
:1013D0006F915F914F913F912F910F900BBE0F90A6
:1013E0000FBE0F901F9018951F920F920FB60F927D
:1013F00011240BB60F922F938F939F93EF93FF932C
:10140000E091D303F091D4038081E091D903F0916E
:10141000DA0382FD12C090818091DC038F5F8F73AD
:101420002091DD03821751F0E091DC03F0E0ED53F1
:10143000FC4F958F8093DC0301C08081FF91EF9179
:101440009F918F912F910F900BBE0F900FBE0F9019
:101450001F9018951F920F920FB60F9211240BB682
:101460000F922F933F934F935F936F937F938F933D
:101470009F93AF93BF93EF93FF938091B900887FC1
:10148000803609F49CC068F5883209F45BC090F49A
:10149000803109F454C038F4882309F4F6C0883048
:1014A00009F44DC0F6C0883109F44CC0803209F40B
:1014B0005DC0EFC0803409F468C048F4803309F49B
:1014C00055C0883309F0E5C080939A03D8C08035B1
:1014D00009F44FC0883509F45DC0883409F0D9C0DB
:1014E000D6C0883909F4C7C0A8F4883709F467C0A2
:1014F00038F4883609F463C0803709F460C0C9C085
:10150000883809F4B8C0803909F45FC0803809F020
:10151000C0C05BC0803B09F486C038F4803A09F44F
:1015200066C0883A09F47FC0B4C0803C09F4A7C003
:10153000883C09F4A4C0883B09F48AC0AAC0809101
:10154000970310C09091990380919803981770F5B4
:10155000E091990381E08E0F80939903F0E0EA58BF
:10156000FC4F80818093BB0085EC86C080939A03FA
:101570008EC0E091990381E08E0F80939903809152
:10158000BB00F0E0EA58FC4F808390919903809172
:1015900098036EC0E091990381E08E0F80939903C8
:1015A0008091BB00F0E0EA58FC4F808380919B0360
:1015B00081116DC081E08093960384EA61C083E06D
:1015C00080939C0310927503CFCF80917503803276
:1015D00008F051C0E091750381E08E0F8093750390
:1015E0008091BB00F0E0EB5AFC4F8083BDCF85ECCF
:1015F0008093BC0010929C0380917503803230F47C
:10160000E0917503F0E0EB5AFC4F10826091750396
:1016100070E0E0910E03F0910F0385E593E01995DA
:101620001092750336C084E080939C03109254039B
:1016300010925303E0911003F091110319958091DA
:101640005303811105C081E080935303109233034B
:10165000E091540381E08E0F80935403F0E0ED5C41
:10166000FC4F80818093BB00909154038091530381
:10167000981708F479CF85E88093BC000AC085EC00
:101680008093BC0010929C0304C010929A030E94A5
:101690000809FF91EF91BF91AF919F918F917F9139
:1016A0006F915F914F913F912F910F900BBE0F90D3
:1016B0000FBE0F901F901895CF93CFB7F8948091DD
:1016C0003203811124C0E6E8F3E08491ECECF3E00E
:1016D0009491E82FF0E0EE0FFF1FE95CFC4FA5911D
:1016E000B491EC91E92321F461E085E30E94E812D2
:1016F00085E30E94790D8CB580618CBD8CB58064CA
:101700008CBD84E30E94790D83E30E94790D809162
:1017100032038F5F80933203CFBFCF910895309112
:10172000BF03313208F04AC080919C038111FCCF85
:101730009091C10322E020939C0360939B032FEFC1
:1017400020939A031092990330939803E2E1F3E017
:10175000A6E7B3E020E0321721F041914D932F5FCF
:10176000FACF1092970320919703990F922B9093A1
:10177000970390919603913061F4109296039091A3
:1017800097039093BB009091BC0093FDF8CF95EC2C
:1017900001C095EE9093BC0090919C039230E1F3D0
:1017A00090919A039F3F79F080919A03803241F0A3
:1017B00080919A03803331F084E005C081E003C05A
:1017C00082E001C083E01092C0031092BF03109228
:1017D000C203089508958CBD9DBD0895FC0120812C
:1017E0003181828193812817390719F0822F0C9457
:1017F000E8120895CF93DF93EC018CB58F7D8CBDFB
:101800008CB5837F8CBD8CB58C7F8CBD8DB5816094
:101810008DBD8A810E94E8128C899D89DF91CF91CC
:101820000C94DD1261E00C94FA0B60E00C94FA0B5E
:101830008EBD00000DB407FEFDCF8EB508951F9339
:10184000CF93DF93EC01162F0E94150C812F0E947D
:10185000180C182FCE010E94120C812FDF91CF910E
:101860001F91089561EE0C941F0C0F931F93CF935B
:10187000DF938C01C62FD42F0E94150C8C2F8F71F3
:1018800080620E94180CC82F8D2F0E94180CC8016E
:101890000E94120C8C2FDF91CF911F910F91089510
:1018A000CF92DF92EF92FF920F931F93CF93DF932C
:1018B0007C01162F6A01C22F0E94150C812F8F7197
:1018C00080620E94180CD82F8601CC2339F0F801D1
:1018D00081918F010E94180CC150F7CFC7010E945F
:1018E000120C8D2FDF91CF911F910F91FF90EF90F0
:1018F000DF90CF9008951F93CF93DF93EC01162FC5
:101900000E94150C812F8F710E94180C8FEF0E947E
:10191000180C182FCE010E94120C812FDF91CF914D
:101920001F910895CF93DF93EC0160E00E947B0C40
:1019300081FD0EC0482F426060E0CE010E94350C50
:1019400065E070E080E090E0DF91CF910C94661349
:10195000DF91CF910895CF93DF93EC0160E00E9477
:10196000EE0B888999890E94DD126DE1CE010E94FB
:101970007B0C81FF07C0888999890E94DD12CE0106
:101980000E94320C60E0CE010E947B0C482F4E7FFB
:1019900060E0CE010E94350C62E0CE010E947B0C1B
:1019A000E5ECF2E0E49141E050E001C0440FEA953B
:1019B000EAF7482B62E0CE01DF91CF910C94350C11
:1019C000CF93DF93EC010E94920C60E0CE010E9465
:1019D0007B0C482F416060E0CE010E94350C40E74F
:1019E00067E0CE010E94350C61E0CE010E94EE0B53
:1019F0008985882349F02E85AE01475F5F4F6AE0F5
:101A0000CE010E94500C14C062E0CE010E947B0CFB
:101A1000E5ECF2E0E49121E030E001C0220FEA952C
:101A2000EAF72095422F482362E0CE010E94350C50
:101A30006DE1CE010E947B0C81FF05C0CE01DF91DC
:101A4000CF910C94320CDF91CF910895CF93DF9317
:101A5000CDB7DEB728970FB6F894DEBF0FBECDBF67
:101A6000AC019CEC99839A839B839C839D831E820B
:101A70001F8218869A01E1E021153105C9F0611134
:101A800003C04115510569F4D901A770BB27AE5FAA
:101A9000BD4F8C91A1E0B0E0AC0FBD1FAE0FB11DEA
:101AA0008C9383E0369527958A95E1F7EF5FE4CF35
:101AB000611102C0452B39F4E62FF0E0EE5FFD4FD7
:101AC0008081898305C0F0E0EF5FFD4F80818A83CC
:101AD00029813A814B815C816D817E818F819885DE
:101AE00028960FB6F894DEBF0FBECDBFDF91CF9121
:101AF000089590E0FC01E956FC4F2491FC01EF5A57
:101B0000FC4F8491882399F090E0880F991FFC0185
:101B1000E95CFC4FA591B491FC01E35EFC4F85911B
:101B200094918FB7F894EC91E22BEC938FBF0895CA
:101B3000009769F0FC0101900020E9F73197AF01AF
:101B4000481B590BBC0183EC93E00C94DE0880E049
:101B500090E00895CF93DF930E94980DEC018CE7FD
:101B600092E00E94980D8C0F9D1FDF91CF910895F8
:101B70001F93CF93DF93EC01162F61E00E947B0C43
:101B8000482F112311F0416001C04E7F61E0CE016A
:101B9000DF91CF911F910C94350CE3ECF3E0A08919
:101BA000B18982E08C93A485B5851C92A685B78502
:101BB00080E18C93108EA489B58986E08C93A289EC
:101BC000B3898C9180618C93A289B3898C91886050
:101BD0008C93A289B3898C9180688C930288F38955
:101BE000E02D80818F7D80830895CF92DF92EF92E8
:101BF000FF92FC01C12C92E1D92E9AE7E92EF12C3B
:101C000020E04C155D056E057F0540F4F694E794E1
:101C1000D794C7942F5F2630A1F727E091E0922751
:101C2000292F286B2695208391709183FF90EF9048
:101C3000DF90CF900895DF92EF92FF920F931F9362
:101C4000CF93DF931F921F92CDB7DEB7F82E162FDA
:101C5000D42E052F80910106882309F43FC080917E
:101C60000206882349F040910806509109066091C8
:101C70000A0670910B0608C04091040650910506B3
:101C80006091060670910706CE0101960E94F50D3F
:101C900089819A810E94EB0B60E0809100060E948E
:101CA000E812809103068F290E94180CED2CF02E6B
:101CB000C701810F911D8C010E151F0539F080E0C1
:101CC0000E94180CD7018D937D01F6CF61E08091C1
:101CD00000060E94E8120E94EA0B8DC08091F50573
:101CE00091E09093C2038093C1031092C0031092BD
:101CF000BF038091F6059091F705DC01ED91FC9111
:101D00000190F081E02D6F2D199560E08091F6052E
:101D10009091F7050E948F0B80919C038111FCCF5D
:101D20008091F505912F113208F090E221E0209387
:101D30009C0320939B033FEF30939A0310929903E7
:101D4000390F309398032093970320919703880FBE
:101D5000822B8093970380919603813061F41092D7
:101D60009603809197038093BB008091BC0083FD14
:101D7000F8CF85EC01C085EE8093BC0080919C0378
:101D80008130E1F380919903891710F490919903C0
:101D9000E6E7F3E0AFE9B3E080E0891721F02191B5
:101DA0002D938F5FFACF10929E0380939D0390E056
:101DB0009093FD058093FC05612F70E086179707CF
:101DC000B9F4ED2CF02E8701080F191FE016F1066B
:101DD00091F08091F6059091F705DC01ED91FC9171
:101DE0000284F385E02D1995F70181937F01EECFF1
:101DF0008FEF9FEF02C081E090E00F900F90DF9196
:101E0000CF911F910F91FF90EF90DF900895EF9287
:101E1000FF920F931F93CF93DF938C01E090B60452
:101E2000F12CE7012897FC0196818CE6890F83301D
:101E300020F0983C09F0C7C003C0943909F4DAC017
:101E40008BE6890F823018F0983C09F088C0209109
:101E50005B0530915C05AE01420F531F41395105BE
:101E600018F010925A05ADC080915A05882309F4E4
:101E70000AC1963921F0F80197818913A2C04091D7
:101E8000570550915805F8018481958148175907E5
:101E900009F097C080915D0590915E05AE0161E902
:101EA00074E0820F931F0E940F2980915B0590912F
:101EB0005C05C80FD91FD0935C05C0935B05F80182
:101EC0008681863931F080915A05815080935A0578
:101ED00076C010925A05F80187818093590583389E
:101EE00009F486C0A0915105B091520587E495E0B0
:101EF0008A1B9B0B8C179D0730F18AE0E3E5F5E028
:101F000001900D928A95E1F78091510590915205CB
:101F100060915D0570915E0540915B0550915C0597
:101F20000A960E940F2980915B0590915C050A96A4
:101F30002091510530915205820F931F90935205C5
:101F4000809351053CC08091B1049091B2040E94ED
:101F5000AB0C8091AC0481608093AC0432C0A09142
:101F60005105B0915205CD01875B94408C0F9D1FA8
:101F70008B39910530F588E0E9E8F4E001900D92A5
:101F80008A95E1F7E0915105F0915205D187C0871C
:101F90008091510590915205AE0161E974E00A9675
:101FA0000E940F29F2E0EF0EF11C809151059091F3
:101FB0005205E80EF91EF0925205E092510581E0BB
:101FC00062C080E060C0933851F688E0E9E8F4E050
:101FD000A3E5B5E001900D928A95E1F781E994E0DF
:101FE00090935E0580935D05D0935C05C0935B057F
:101FF00082E049C0F8018781873008F032CF4091F4
:10200000570550915805F80124813581421753072F
:1020100049F4409153055091540520813181421774
:10202000530769F2F8E18F9FC001112440915105D7
:102030005091520527E435E0241B350B281739074A
:102040005CF48091AC0481608093AC048091B10415
:102050009091B2040E94AB0C88E0E9E8F4E0A3E5BB
:10206000B5E001900D928A95E1F7AE0161E974E067
:1020700080915D0590915E050E940F29D0935C05CB
:10208000C0935B0520CFDF91CF911F910F91FF90FF
:10209000EF9008958F929F92AF92BF92CF92DF926E
:1020A000EF92FF920F931F93CF93DF93CDB7DEB7DD
:1020B00028970FB6F894DEBF0FBECDBF142F0E9435
:1020C000260D49015A016B017C018091AC0482FD0F
:1020D00006C08091B1049091B2040E94AB0C809133
:1020E000B1049091B204112311F060E001C061E0ED
:1020F0000E94B80D0091B1041091B20489829A82B5
:10210000AB82BC82CD82DE82EF82F886F801268522
:10211000AE014F5F5F4F6AE0C8010E94500CF801AA
:102120002685AE014F5F5F4F60E1C8010E94500CF1
:10213000F801478161E1C8010E94350C0091B604A5
:10214000E090B104F090B2046FEFC7010E941F0C41
:1021500080FF0DC06FEFC7010E941F0C84FFF4CFFA
:1021600040E167E0C7010E94350C10E02EC0F70186
:102170001781101708F4012FF7018085811102C023
:10218000101B01C010E0C7010E94150C80EA0E94DC
:10219000180C89E8C82E84E0D82E002339F0F60107
:1021A00081916F010E94180C0150F7CF112329F083
:1021B00080E00E94180C1150F9CFC7010E94120C48
:1021C00061E0C7010E94EE0B11E08091AC0482FD3A
:1021D00016C04091830450918404609185047091ED
:1021E00086048091B1049091B2040E947D07182F5B
:1021F00060E08091B1049091B2040E94B80D812FEB
:1022000028960FB6F894DEBF0FBECDBFDF91CF91F9
:102210001F910F91FF90EF90DF90CF90BF90AF9004
:102220009F908F900895FC012281908181812230BE
:1022300030F0292F382F81E0838380E02CC0292FB4
:10224000382F4091F2055091F305B90164237523AD
:102250008091B4049091B5046817790739F0209102
:10226000EF053091F0058091F10515C0CA01809508
:10227000909563E0880F991F6A95E1F78223932375
:10228000892B41F083E0440F551F8A95E1F74760A1
:102290002423352385E031832083828381E00895E0
:1022A000AF92BF92CF92DF92EF92FF920F931F9364
:1022B000CF93DF938091AC0481FD14C02091510530
:1022C0003091520580FD06C0A901475B5440493753
:1022D000510544F0275B344011F008F03DC18E7F7A
:1022E0008093AC0401E010E074E2E72E79E0F72E71
:1022F000C090B104D090B204F601808191818F3FEB
:10230000910509F429C1828193818F3F910509F4D8
:1023100023C167E1C6010E947B0CC82FC17080FDFC
:102320001BC16FEFC6010E941F0CC090B104D0907A
:10233000B204C6010E94150C80E60E94180C8FEFB3
:102340000E94180CD82FC6010E94120CD13258F0EE
:1023500062EEC6010E941F0C62E070E080E090E037
:102360000E94661301C0CD2FC093B604C83038F464
:102370006AE070E080E090E00E946613B9CFC09000
:10238000B104D090B204F60187818C1708F4C82FED
:10239000F6019085911103C0D82FDC1B01C0D0E05D
:1023A000C6010E94150C81E60E94180C69E8A62E51
:1023B00064E0B62EC11102C0CD2F08C08FEF0E947D
:1023C000180CF50181935F01C150F4CFCC2329F0A3
:1023D0008FEF0E94180CC150F9CFC6010E94120C59
:1023E00040E767E0C6010E94350C20918B043091D4
:1023F0008C04C901009759F0482F4770463008F007
:1024000077CF53E0969587955A95E1F7F3CF909162
:102410008F044091B4045091B5042417350709F096
:1024200042C0923809F464CF903889F4243239409C
:10243000F9F0F0928C04E0928B0462E084E299E07F
:102440000E94AC136AE070E080E090E04CC0933CE6
:1024500079F42115310561F030938A0420938904C1
:1024600010928C0410928B0460E080E090E06FC0CA
:102470008091AB04882319F097FF0CC002C0913CF7
:1024800049F48CE6890F833028F0983C19F0933892
:1024900009F060C089E894E00E94070F823009F0DB
:1024A00027CF83E85AC02034310509F04EC0923C52
:1024B00011F58091AC0483FD1BCF443229E0520713
:1024C00009F416CF8091890490918A0490938C042A
:1024D00080938B0450938A04409389046091F105A2
:1024E00070E080E090E00E94661362E080918B04CF
:1024F00090918C042CC089E894E00E94070FC82FAB
:10250000809182048823E9F08091B304882379F0D4
:1025100090E001979C01220F331F820F931FF80157
:1025200002C0EE0FFF1F8A95E2F7CF0102C080E0E4
:1025300090E064E023E0880F991F2A95E1F70E945C
:10254000AC13C23009F0D4CEACCF61E0C9010E9417
:10255000AC13CECE892F01C080E0DF91CF911F91C7
:102560000F91FF90EF90DF90CF90BF90AF900895C4
:102570003FB7F8948091600990916109A091620938
:10258000B091630926B5A89B05C02F3F19F00196AD
:10259000A11DB11D3FBFBA2FA92F982F8827820FE9
:1025A000911DA11DB11DBC01CD0142E0660F771F39
:1025B000881F991F4A95D1F708958230910538F008
:1025C000880F991F880F991F05970197F1F70895B4
:1025D000362F90E0FC01E952FD4F4491FC01E95691
:1025E000FC4F2491FC01EF5AFC4F9491992309F47C
:1025F0006CC0442309F455C050E0FA013197E23130
:10260000F10508F04EC08827EE58FF4F8F4F0C940D
:102610000229809180008F7707C0809180008F7D94
:1026200003C080918000877F809380003AC084B58A
:102630008F7702C084B58F7D84BD33C08091B00098
:102640008F7703C08091B0008F7D8093B00029C048
:10265000809190008F7707C0809190008F7D03C09C
:1026600080919000877F809390001BC08091A00094
:102670008F7707C08091A0008F7D03C08091A0005C
:10268000877F8093A0000DC0809120018F7707C0C5
:10269000809120018F7D03C080912001877F8093EE
:1026A0002001E92FF0E0EE0FFF1FE35EFC4FA59144
:1026B000B4919FB7F894311104C08C9120952823D0
:1026C00002C0EC912E2B2C939FBF08958F929F9266
:1026D000AF92BF92CF92DF92EF92FF926B017C019B
:1026E0000E94B8124B015C01C114D104E104F10451
:1026F000F1F00E94B812DC01CB0188199909AA09EE
:10270000BB09883E9340A105B10570F321E0C21AD0
:10271000D108E108F10888EE880E83E0981EA11C1C
:10272000B11CC114D104E104F10419F7DDCFFF900D
:10273000EF90DF90CF90BF90AF909F908F900895D3
:102740002FB7F89460915C0970915D0980915E09E2
:1027500090915F092FBF0895CF92DF92EF92FF9281
:102760000F931F93CF93DF9300D01F92CDB7DEB7A7
:102770009C012115310561F0422F4770463030F43D
:1027800043E0369527954A95E1F7F3CF80E09AC06C
:10279000162F7C0100918F04015419821A821B822A
:1027A0001C829A8389836B83CE0101960E94131148
:1027B0004C816B8189819A810E944A10113041F5C8
:1027C000811102C010E030C089819A81E816F906B3
:1027D00009F50F37F8F481EC80938F048091890418
:1027E00090918A0490938C0480938B049A838983BC
:1027F0001B831C82CE0101960E94131188E08093F6
:10280000B6044C816B8189819A810E944A1002C072
:102810008823C1F289819A81E816F90621F01123F3
:1028200079F0133069F011E08091AC0482FD06C0AC
:102830008091B1049091B2040E94E00C812F42C0BB
:102840000F3788F78091AC0482FF1AC0409183044F
:102850005091840460918504709186048091B10444
:102860009091B2040E947D078091AC048B7F80938D
:10287000AC0460E08091B1049091B2040E94B80D64
:102880008091B1049091B2040E94E00C0E94A013C8
:102890006B017C010E945011813C29F20E94A0131F
:1028A000AB01BC014C195D096E097F098091870459
:1028B00090918804A0E0B0E084179507A607B707B9
:1028C00048F780CF0F900F900F900F90DF91CF912E
:1028D0001F910F91FF90EF90DF90CF9008954F924E
:1028E0005F926F927F928F929F92AF92BF92CF92A0
:1028F000DF92EF92FF920F931F93CF93DF93882E77
:102900007B018BE1C82E83E0D82E92E2A92EB12C58
:102910000091000210910102C801019690930102FA
:10292000809300020E94A0134090AD045090AE042A
:102930006090AF047090B004DC01CB01841995095C
:10294000A609B7094997A105B10590F0C6010197FD
:10295000F1F78091AC0484608093AC048091B10461
:102960009091B2040E94AB0C912CD0E0C2E042C026
:102970000E94501187FFD6CFE9CF82E0D1113FC02E
:1029800094E928E1D29FB0011124A501461B570B01
:102990004931510510F048E150E028E0240F209320
:1029A000B6042091B4043091B50430938A04209386
:1029B000890410928C0410928B0410938E0400935F
:1029C0008D0490938F04809390044115510531F04C
:1029D0006E0D7F1D81E994E00E940F2960E080E088
:1029E00090E00E94AC13882361F0C150DF5FCC23DC
:1029F000A1F0912CC13009F6882D96E9C2CF95E956
:102A0000C0CF62E070E080E090E00E946613939493
:102A100082E0891578F7D0E001C0D1E08091AC0464
:102A200082FF1CC04091830450918404609185040E
:102A3000709186048091B1049091B2040E947D0748
:102A4000D82F8091B1049091B2040E94E00C60E014
:102A50008091B1049091B2040E94B80D8091AC04B1
:102A60008B7F8093AC04DD2361F0CC23A9F00E941E
:102A7000A0136093AD047093AE048093AF04909361
:102A8000B0048EEF92E00E94AA0D64E670E080E050
:102A900090E00E9466133CCFDF91CF911F910F9180
:102AA000FF90EF90DF90CF90BF90AF909F908F906E
:102AB0007F906F905F904F9008951F920F920FB686
:102AC0000F9211242F933F938F939F93AF93BF93B4
:102AD00080915C0990915D09A0915E09B0915F09B8
:102AE00030915B0923E0230F2D3720F40196A11DBF
:102AF000B11D05C026E8230F0296A11DB11D20932C
:102B00005B0980935C0990935D09A0935E09B09383
:102B10005F098091600990916109A0916209B0916B
:102B200063090196A11DB11D80936009909361090D
:102B3000A0936209B0936309BF91AF919F918F9168
:102B40003F912F910F900FBE0F901F901895CF932C
:102B5000DF93CDB7DEB7AA970FB6F894DEBF0FBEEE
:102B6000CDBF789484B5826084BD84B5816084BD16
:102B700085B5826085BD85B5816085BD80916E001B
:102B8000816080936E00109281008091810082604C
:102B90008093810080918100816080938100809189
:102BA00080008160809380008091B1008460809378
:102BB000B1008091B00081608093B000809191005D
:102BC0008260809391008091910081608093910058
:102BD000809190008160809390008091A10082603C
:102BE0008093A1008091A10081608093A1008091D9
:102BF000A00081608093A000809121018260809379
:102C00002101809121018160809321018091200127
:102C100081608093200180917A00846080937A00A3
:102C200080917A00826080937A0080917A0081603E
:102C300080937A0080917A00806880937A00109265
:102C4000C1000E94CD0D80910106882371F0109281
:102C50000206809100060E94790D61E080910006D5
:102C60000E94E8120E945C0B4CC010929E031092CE
:102C70009D031092C0031092BF0310929C0381E049
:102C800080939B031092960361E084E10E94E81216
:102C900061E085E10E94E8128091B9008E7F809307
:102CA000B9008091B9008D7F8093B90088E480934A
:102CB000B80085E48093BC008AE399E09093110307
:102CC000809310038BE399E090930F0380930E039E
:102CD0002091F8053091F9054091FA055091FB05D6
:102CE00060E074E284EF90E00E94A527DA01C90158
:102CF0004097A109B109B695A795979587958093B7
:102D0000B80060916A07809167070E94230297FDCF
:102D10004CC060916F0780916E070E94230297FD5F
:102D200047C060917007809171070E94230297FD50
:102D300042C060918807809187070E94DA02609103
:102D40006907809167070E94230261E070E080E0DC
:102D500090E00E94661360918D0780918C070E941D
:102D6000DA0260916A07809167070E94230297FD4B
:102D700025C04EE056E061E080917D070E941B0E69
:102D800097FD05C080910E06813709F477C54EE0A6
:102D900056E061E080917D070E941B0E97FD11C0F7
:102DA00080910E06833769F469C58FEF9FEF64C089
:102DB0008EEF9FEF61C08DEF9FEF5EC08CEF9FEFB6
:102DC0005BC08BEF9FEF58C080918506909186067F
:102DD000A0918706B0918806809391069093920601
:102DE000A0939306B09394068091890690918A06E9
:102DF000A0918B06B0918C068093950690939606D1
:102E0000A0939706B093980680918D0690918E06B8
:102E1000A0918F06B09190068093990690939A06A0
:102E2000A0939B06B0939C0600917E0610917F06AE
:102E3000109202060130110509F46FC708F460C74B
:102E40000230110509F476C70330110509F47FC774
:102E500010937F0600937E068091800690918106F4
:102E60000E94760397FDBCC7809182060E942003D2
:102E700097FDB6C781E090E09093A9078093A807DB
:102E800097FF21C08DE292E00E94AA0D8DE492E0AE
:102E90000E94AA0D83E792E00E94980D6091A80716
:102EA0007091A907072E000C880B990B97FF03C0A0
:102EB0000E94230403C04AE00E94E2038CE792E0F0
:102EC0000E94980DFFCF1092020660914B078091EF
:102ED00048070E94230297FD22C020E030E040E036
:102EE00051E460913C0770913D0780913E079091BD
:102EF0003F070E94D12620E03FEF4FEF56E40E94AB
:102F000043286093600670936106809362069093F5
:102F1000630682E090E090937D0680937C06109299
:102F2000020660914F0780914D070E94230297FD92
:102F30001CC02AEF30E04AE75CE3609140077091E3
:102F4000410780914207909143070E94D1266093E8
:102F5000640670936506809366069093670681E029
:102F600090E090937F0680937E0683E090E00E943D
:102F7000760383E10E942003E0E9EE2EE7E0FE2ED7
:102F800000E010E0C8010E949227F70181937F01C1
:102F90000F5F1F4F08311105A9F780919C07909191
:102FA0009D07A0919E07B0919F0740919007509177
:102FB0009107609192077091930740930E07509389
:102FC0000F07609310077093110780931A0790936F
:102FD0001B07A0931C07B0931D078091A007909139
:102FE000A107A091A207B091A30740919407509127
:102FF0009507609196077091970740931207509339
:103000001307609314077093150780931E0790931E
:103010001F07A0932007B09321078091A4079091E8
:10302000A507A091A607B091A707409198075091D6
:10303000990760919A0770919B07409316075093E8
:1030400017076093180770931907809322079093CE
:103050002307A0932407B09325071092B20710927C
:10306000B3071092B4071092B50781E08093F4057E
:103070000E94CD0D80916A0490916B0420916C04A4
:1030800030916D048217930711F00E94790D8091A1
:103090006C0490916D0420916A0430916B042817A0
:1030A000390711F00E94790D0E945C0B60E08AE6FE
:1030B00094E00E94EE0B61E08AE694E00E94FA0B35
:1030C00065E070E080E090E00E9466134CE060E014
:1030D0008AE694E00E94350C4FE564E08AE694E0CD
:1030E0000E94350C66E08AE694E00E947B0C877DA6
:1030F000182F10628BE990E0A0E0B0E080937A0492
:1031000090937B04A0937C04B0937D04412F66E0F0
:103110008AE694E00E94350C66E08AE694E00E941C
:103120007B0C181709F45FC666E08AE694E00E94FB
:103130007B0C66E08AE694E00E947B0C45E550E05B
:1031400060E070E040937A0450937B0460937C04C9
:1031500070937D04482F477D66E08AE694E00E94E4
:10316000350C66E08AE694E00E947B0C8AE694E0E7
:103170000E94150C80E50E94180C83E70E94180C31
:103180008AE694E00E94120C40E06DE18AE694E049
:103190000E94350C40E06CE18AE694E00E94350C18
:1031A0001092720440E767E08AE694E00E94350CD2
:1031B0004CE465E08AE694E00E94350C62EE8AE613
:1031C00094E00E941F0C8AE694E00E94320C8AE68A
:1031D00094E00E94920C60E08AE694E00E947B0CEE
:1031E000482F4E7F60E08AE694E00E94350C81E033
:1031F00090E09093B5048093B4048091B1049091D1
:10320000B204FC01208131812F3F3105A9F02281D8
:1032100033812F3F310509F0EAC50EC02093F10537
:1032200026E0D22EDA94FFEFDF1265C68091B1045A
:103230009091B2040E94E00C8FE792E00E94AA0DE8
:1032400086EFA82EBB24BA949AE9892E912C772474
:1032500073940E945011C0905105D0905205F7EB25
:10326000CF16F4E0DF0609F008F43AC1F090BD048F
:103270000091BF041091C004A8010332110510F0A1
:1032800042E250E061EC74E0CE0101960E940F2909
:10329000C501801B910B8C0D9D1D90935205809351
:1032A0005105A401401B510BB8016F537B4F87EBB5
:1032B00094E00E94182989E4F816A1F08F1538F0DF
:1032C000E7E4FE1661F1F8E4FF16E9F104C183E5D5
:1032D000F81609F4DFC0E4E5FE1669F0FDE4FF121C
:1032E000FAC0E3C082E992E00E94AA0DBE016F5FBE
:1032F0007F4F89E4D7C085EA92E00E94AA0D8E0133
:103300000D5F1F4F24E14CE060E070E080EA91E443
:103310000E947B22BE016F5F7F4F87E4C3C088EBB2
:1033200092E00E94AA0D8E010D5F1F4F24E14CE038
:1033300061EA70E084EB92E40E947B22BE016F5F41
:103340007F4F88E4AFC0CE0103960E949B226B01A1
:103350007C019B01AC010E94E928882319F08AECCA
:1033600092E027C016012701E89457F82FEF3FEFAE
:103370004FE75FE7C201B1010E94E92881110DC04A
:103380002FEF3FEF4FE75FE7C201B1010E946B26CD
:1033900018161CF48EEC92E00CC02FEF3FEF4FE7B5
:1033A0005FE4C701B6010E94E42818162CF482EDF0
:1033B00092E00E94980D69C02FEF3FEF4FE75FEC5E
:1033C000C701B6010E946B2687FDF1CF20E030E0F7
:1033D000A901C701B6010E946B2687FF09C06DE2F3
:1033E00083EC93E00E943608F7FAF094F7F8F09433
:1033F0002AE037ED43EA5BE3C701B6010E94D72715
:103400001B012C010E94B5286B017C010E947026D3
:103410009B01AC01C201B1010E94D6271B012C0106
:103420004AE0C701B6010E94E2036EE283EC93E03A
:103430000E94360820E030E040E251E4C201B101D0
:103440000E94D1261B012C010E94B5286B01E12CA2
:10345000F12C4AE0C701B6010E94E203C701B601A0
:103460000E9470269B01AC01C201B1010E94D627C7
:1034700020E030E040E251E40E94D1260E94B528CD
:1034800080E090E04AE00E94E2038CE792E00E9434
:10349000980DE1CE86ED92E00E94AA0DBE016F5F0D
:1034A0007F4F83E50E946F14D6CE8AE0FE013396EB
:1034B000A0E6B4E001900D928A95E1F76091600476
:1034C00070916104072E000C880B990B97FFDACFDF
:1034D0000E942304DACF89EE92E00E94AA0DBBCEAF
:1034E0000E94440497FDADC00E94A0130091B6074E
:1034F0001091B7072091B8073091B907601B710B85
:10350000820B930B6093B6077093B7078093B8074D
:103510009093B9070E94722620914B0630914C0679
:1035200040914D0650914E060E94D12620E030E099
:103530004AE754E40E9443282091B2073091B30730
:103540004091B4075091B5070E94D7276093B20706
:103550007093B3078093B4079093B5070E94A013AC
:103560006093B6077093B7078093B8079093B90735
:103570008091BA079091BB0782309105E1F030F05D
:1035800083309105D9F1049709F05BC00E94A01324
:103590000091C0071091C1072091C2073091C30765
:1035A000601771078207930708F44BC00E946107F8
:1035B0007092F40546C020E030E044E353E46091AB
:1035C000B2077091B3078091B4079091B5070E943C
:1035D000D1262BED3FE049E450E40E9443289B01B3
:1035E000AC016091BC077091BD078091BE079091BE
:1035F000BF070E94E42887FD24C0D8CF20E030E038
:1036000044E353E46091B2077091B3078091B4072B
:103610009091B5070E94D1262BED3FE049E450E49C
:103620000E9443289B01AC016091BC077091BD07CB
:103630008091BE079091BF070E946B2618160CF070
:10364000B5CF8091F405882309F40FC180916004FF
:10365000909161042090620430906304409064046F
:1036600050906504C0906604D0906704E0906804B0
:10367000F09069049093BB078093BA071092F40509
:103680008230910509F47AC080F5009709F447C0AB
:10369000019709F0EAC00E94A013DC01CB018C0D58
:1036A0009D1DAE1DBF1D8093C0079093C107A093C1
:1036B000C207B093C30786E00E94790D60E086E000
:1036C0000E94E81285E00E94790D61E085E00E9489
:1036D000E81289E00E94790D60E089E00E94E8121A
:1036E0008AE00E94790D61E043C08330910509F4BE
:1036F00080C0049709F0B9C00E94A013DC01CB017F
:103700008C0D9D1DAE1DBF1D8093C0079093C107FA
:10371000A093C207B093C3070E946107A6C00E948E
:10372000A013DC01CB018C0D9D1DAE1DBF1D809330
:10373000C0079093C107A093C207B093C30786E068
:103740000E94790D61E086E00E94E81285E00E9407
:10375000790D60E085E00E94E81289E00E94790D11
:1037600061E089E00E94E8128AE00E94790D60E041
:103770008AE00E94E8127092F40577C020E030E001
:1037800044E353E46091B2077091B3078091B407AA
:103790009091B5070E94D1262BED3FE049E450E41B
:1037A0000E944328A20191010E94D6276093BC0782
:1037B0007093BD078093BE079093BF0789E00E9476
:1037C000790D61E089E00E94E8128AE00E94790D9B
:1037D00060E08AE00E94E81286E00E94790D60E0D5
:1037E00086E00E94E81285E00E94790D61E085E0A4
:1037F0003AC020E030E044E353E46091B2077091B6
:10380000B3078091B4079091B5070E94D1262BEDA4
:103810003FE049E450E40E944328A20191010E9444
:10382000D7276093BC077093BD078093BE07909322
:10383000BF0786E00E94790D61E086E00E94E812F1
:1038400085E00E94790D60E085E00E94E8128AE040
:103850000E94790D61E08AE00E94E81289E00E94EE
:10386000790D60E089E00E94E8126AE070E080E093
:1038700090E00E9466130E94A508EBCC60916C0753
:1038800080916B070E94230297FDA7C260914C07AD
:10389000809148070E94230297FD78C220E030E023
:1038A00040E851E460913C0770913D0780913E07EC
:1038B00090913F070E94D12620E03FEF4FEF56E462
:1038C0000E944328609360067093610680936206AD
:1038D0009093630603E010E010937D0600937C064E
:1038E0006091510780914D070E94230297FD51C2BC
:1038F0002AEF30E04AE75DE36091400770914107AD
:1039000080914207909143070E94D12660936406FC
:1039100070936506809366069093670610937F0602
:1039200000937E0660915307809152070E94230204
:1039300097FD32C260915A07809159070E94230275
:1039400097FD2DC2109281061092800660E0809152
:1039500060070E94230297FD25C2109282066091A3
:103960006F0780916E070E94230297FD1EC260912F
:103970007007809171070E94230297FD19C24EE0E3
:1039800056E061E080918F070E949A0297FD13C272
:1039900080910E06883409F00EC2609188078091EC
:1039A00087070E94DA0297FD09C264E670E080E0B2
:1039B00090E00E94661360918B07809187070E94B8
:1039C000DA0297FDFEC164E670E080E090E00E94BC
:1039D00066134EE056E063E080918E070E949A02E3
:1039E00060910E0670E080E090E00E94702620E07A
:1039F00030E040E053E40E94D62720E030E040E889
:103A00005BE30E94D12620E030E040E85FE30E94C3
:103A1000D72720E030E849E955E40E94D12620E08C
:103A200030EF4FEF56E40E9443286093680670938E
:103A3000690680936A0690936B0660910F0670E0AA
:103A400080E090E00E94702620E030E040E053E407
:103A50000E94D62720E030E040E85BE30E94D126B8
:103A600020E030E040E85FE30E94D72720E030E824
:103A700049E955E40E94D12620E030EF4FEF56E4AB
:103A80000E94432860936C0670936D0680936E06C7
:103A900090936F066091100670E080E090E00E94C5
:103AA000702620E030E040E053E40E94D62720E07A
:103AB00030E040E85BE30E94D12620E030E040E8BF
:103AC0005FE30E94D72720E030E849E955E40E94EF
:103AD000D12620E030EF4FEF56E40E944328609358
:103AE00070067093710680937206909373066091CE
:103AF0008807809187070E94DA0297FD65C164E616
:103B000070E080E090E00E94661360918A078091E7
:103B100087070E94DA0297FD5AC164E670E080E0F0
:103B200090E00E94661360916A07809167070E9487
:103B3000230297FD4FC14EE056E067E08091860773
:103B40000E949A021092020660914E0780914D07E2
:103B50000E94230297FD44C12AEF30E04AEF5BE365
:103B6000609140077091410780914207909143070F
:103B70000E94D12660936406709365068093660662
:103B80009093670610927F0610927E0683E090E085
:103B90000E94760397FD24C183E10E94200397FDD4
:103BA0001FC1109285061092860610928706109209
:103BB00088061092890610928A0610928B0610923F
:103BC0008C0610928D0610928E0610928F0610921F
:103BD000900600E010E0809183069091840608171B
:103BE000190708F0F1C80E9444046091830670919F
:103BF000840680E090E00E9470266B017C01209199
:103C000091063091920640919306509194066091EE
:103C100043067091440680914506909146060E94A5
:103C2000D727A70196010E9443282091850630914D
:103C3000860640918706509188060E94D727609398
:103C40008506709386068093870690938806209158
:103C5000950630919606409197065091980660918E
:103C60004706709148068091490690914A060E9445
:103C7000D727A70196010E944328209189063091F9
:103C80008A0640918B0650918C060E94D72760933C
:103C9000890670938A0680938B0690938C062091F8
:103CA000990630919A0640919B0650919C0660912E
:103CB0004B0670914C0680914D0690914E060E94E5
:103CC000D727A70196010E94432820918D063091A5
:103CD0008E0640918F06509190060E94D7276093E0
:103CE0008D0670938E0680938F069093900664E104
:103CF00070E080E090E00E9466130F5F1F4F6BCF73
:103D000060914E0780914D070E94230297FD68C085
:103D10002AEF30E04AEF5BE326C060914F078091C5
:103D20004D070E94230297FD5BC02AEF30E04AE76F
:103D30005CE319C06091500780914D070E942302F7
:103D400097FD4EC02AEF30E04AEF5CE30CC0609173
:103D5000510780914D070E94230297FD41C02AEF31
:103D600030E04AE75DE36091400770914107809140
:103D70004207909143070E94D12660936406709396
:103D80006506809366069093670662C889EF9FEF89
:103D900073C888EF9FEF70C887EF9FEF6DC886EFFD
:103DA0009FEF6AC885EF9FEF67C884EF9FEF64C8F5
:103DB00083EF9FEF61C882EF9FEF5EC881EF9FEFB7
:103DC0005BC880EF9FEF58C88FEE9FEF55C88EEE0F
:103DD0009FEF52C88DEE9FEF4FC88AEF9FEF4CC800
:103DE0008CEE9FEF49C881E0809370049DC944E642
:103DF00065E00E94350C60E08091B1049091B204BE
:103E00000E94B80D0091B1041091B2046DE1C80197
:103E10000E947B0C482F44606DE1C8010E94350C64
:103E20006CE1C8010E947B0C482F4F636CE1C80114
:103E30000E94350C81E0F80180878091B404909154
:103E4000B50466E070E00E94EE28482F440F4B5FF7
:103E5000F0E14F9FA0011124456064E08091B1041E
:103E60009091B2040E94350C89E190E0A0E0B0E0AE
:103E70008093830490938404A0938504B093860474
:103E80008BE490E090938804809387042091B4049D
:103E90003091B50440E08FEF9FEFB901682379239B
:103EA000672B39F073E0880F991F7A95E1F74F5F20
:103EB000F4CF4093B304809590959093F30580934D
:103EC000F20563E0969587956A95E1F7A901482385
:103ED00059235093F0054093EF05009709F49EC9CC
:103EE00043E0369527954A95E1F753E096958795F7
:103EF0005A95E1F7F2CF6D2D81E090E00E94260DFA
:103F00000091B1041091B2042BA33CA34DA35EA376
:103F10006FA378A789A79AA7ED2CF12CD1100BC01D
:103F2000F801468550E0BE016D5D7F4FC8010996DE
:103F30000E940F2903C0F1E0DF1207C0F701EF5222
:103F4000FD4F6491F801268505C0F701EF52FD4F42
:103F5000649121E0AE014D5D5F4FC8010E94500C9D
:103F6000F701E553FD4F6491F8014781C8010E94B4
:103F7000350C62E0C8010E947B0CF701EB53FD4F4A
:103F8000E49141E050E001C0440FEA95EAF7482B84
:103F900062E0C8010E94350C45C92F923F924F92B2
:103FA0005F926F927F928F929F92AF92BF92CF92C9
:103FB000DF92EF92FF920F931F93CF93DF93E3EC87
:103FC000F3E01382128248EE53E060E070E0448335
:103FD0005583668377838DE092E09183808385ECBF
:103FE00090E09587848784EC90E09787868780ECC3
:103FF00090E0918B808B81EC90E0938B828B82ECB4
:1040000090E0958B848B86EC90E0978B868B118E5D
:10401000128E138E148E8FE4282E89E0382ED10153
:1040200013961C921E921297F10144835583668366
:1040300077838FE192E091838083E7E3F9E097E073
:10404000E92EF12CF182E08208E010E01383028374
:104050001682D0E2D7831086C5E0C68725E0822E7F
:10406000912CA12CB12C848A958AA68AB78A1186B4
:1040700085EC97E0DC01D096FC93EE939F972AEFB6
:1040800037E0309395082093940822EA38E0309383
:10409000A1082093A00826E938E098963C932E9337
:1040A0009797FC0113A614A615A616A612A611A68C
:1040B0001082E4EFF5E040E85AE166E070E0448306
:1040C00055836683778320E8278740E452E46FE0D6
:1040D00070E0408B518B628B738B40EC51EE64EE41
:1040E00070E0448B558B668B778B4CE55FEE66EA10
:1040F00073E440937406509375066093760670934C
:10410000770640E050E068EA71E440937806509307
:10411000790660937A0670937B0684E690E090932C
:1041200084068093830640E050E060E87FE340939C
:10413000CD065093CE066093CF067093D006409381
:10414000D1065093D2066093D3067093D406409361
:10415000D5065093D6066093D7067093D80688EE9E
:1041600093E09093DA068093D9063AE9432E39E931
:10417000532E652C3EE3732E4092DB065092DC06F4
:104180006092DD067092DE0638E03093DF064093E1
:104190001A0750931B0760931C0770931D074093E9
:1041A0001E0750931F0760932007709321074093C9
:1041B00022075093230760932407709325071092DA
:1041C0002B0710922A0781E090E090932D078093AF
:1041D0002C0710922F0710922E079093310780938F
:1041E0003007109233071092320710923507109261
:1041F0003407109237071092360710923907109241
:1042000038078FEF9FEF90933B0780933A07A9E71A
:104210004A2EA9EE5A2EACE16A2EA1E47A2E4092E3
:104220003C0750923D0760923E0770923F07B5E30E
:104230004B2EBAEF5B2EBEE86B2EBCE37B2E40927A
:1042400040075092410760924207709243078BE308
:104250008093440783E48093450781E48093460775
:1042600089E4809347078CE18093480710924907BF
:1042700030934A0790E190934B0788E180934C0775
:10428000ABE1DA2ED0924D0710924E0730934F07D4
:1042900090935007809351078DE18093520781E0FE
:1042A00080935307B2E06B2E60925407A3E0DA2E9E
:1042B000D0925507B4E07B2E70925607C0935707F3
:1042C000A6E0CA2EC0925807BAE15B2E5092590759
:1042D00080935A0760925B07D0925C0770925D07EB
:1042E000C0935E07C0925F07A9E1CA2EC092600723
:1042F000B7E3CB2EC0926107A8E3CA2EC092620733
:104300001092630710926407B0E4CB2EC092650749
:1043100080936607ABE67A2E70926707D0936807A2
:104320002093690780936A07BCE67B2E70926B0727
:1043300010926C07A7E07A2E70926D07BAE67B2E7A
:1043400070926E07D0936F07ADE07A2E709270076F
:10435000B4E27B2E70927107A5E27A2E70927207FA
:10436000B6E27B2E70927307A3E67A2E70927407E2
:10437000B7E27B2E7092750720937607209377071C
:10438000A9E67A2E7092780720937907C0927A076F
:10439000BEE1CB2EC0927B07AFE1CA2EC0927C0754
:1043A000B5E7CB2EC0927D07A3E2CA2EC0927E074E
:1043B00020937F0720E72093800730938107809325
:1043C000820722E72093830724E7209384072CE0C9
:1043D00020938507D09286072AE0209387071092C2
:1043E000880722E12093890726E120938A072FE09E
:1043F00020938B072BE020938C0780938D0790935D
:104400008E0710928F073382228288E68183158679
:1044100040939C0750939D0760939E0770939F075E
:104420004093A0075093A1076093A2077093A3073E
:104430004093A4075093A5076093A6077093A7071E
:104440001092B6071092B7071092B8071092B907EA
:1044500086E00E94790D85E00E94790D89E00E9436
:10446000790D8AE00E94790DE0E6F4E0F386E286B9
:1044700015870487108AD18B128AC08F868E978EFB
:10448000A0A2B1A2138A8AE694E09093B20480932A
:10449000B10487EB94E090935205809351058FE52A
:1044A00095E090935E0580935D0583E595E090939C
:1044B000AA048093A9041092AD041092AE04109245
:1044C000AF041092B0041092AC041092AB0412A28C
:1044D000DF91CF911F910F91FF90EF90DF90CF90E0
:1044E000BF90AF909F908F907F906F905F904F9014
:1044F0003F902F900895EF920F931F93CF93DF93E8
:10450000E80147FD02C034E001C034E1042E000C94
:10451000550B57FF03C0519541955109E32E022FCA
:10452000242FAE010E949F22CE01DF91CF911F91D7
:104530000F91EF900895662777270C9416248F9299
:104540009F92AF92BF92CF92DF92EF92FF920F9322
:104550001F93CF93DF93CDB7DEB729970FB6F894AB
:10456000DEBF0FBECDBF6A01122FB02E2BE3201786
:1045700020F0FF24F394F00E02C02CE3F22E0F2D56
:1045800027E0AE014F5F5F4F0E947225BC01498159
:10459000842F8970813031F0E1FC06C0E0FE06C056
:1045A00090E205C09DE203C09BE201C090E05E2D59
:1045B000507143FF3CC0911102C083E001C084E010
:1045C000811718F4212F281B01C020E051110BC0C6
:1045D000F601822F30E2882319F031938150FBCF0E
:1045E000C20ED11C20E0992329F0D6019C93F6013C
:1045F00031966F01C6010396E2FE0AC03EE4D60181
:104600003C9341E411964C93119712963C9306C04B
:104610003EE6F601308341E641833283FC01322FCE
:1046200040E2332309F442C041933150FACF42FFB4
:1046300044C0911102C083E001C084E0811718F4E6
:10464000212F281B01C020E051110BC0F601822F41
:1046500030E2882319F031938150FBCFC20ED11C78
:1046600020E0992329F0D6019C93F60131966F0141
:10467000C6010396E2FE0BC039E4D6013C933EE44A
:1046800011963C93119736E412963C9307C039E695
:10469000F60130833EE6318336E63283FC01322F69
:1046A00040E2332319F041933150FBCFFC01E20F7C
:1046B000F11D10828EEF9FEFA6C021E030E0911136
:1046C00002C020E030E0161617061CF4FB013196FC
:1046D00002C0E1E0F0E02E0F3F1FBB2021F0EB2DE8
:1046E000F0E0319602C0E0E0F0E02E0F3F1FE12F36
:1046F000F0E02E173F071CF4121B212F01C020E011
:104700008E2D887159F4F601822F30E2882319F03A
:1047100031938150FBCFC20ED11C20E0992329F0A8
:10472000D6019C93F60131966F0151110BC0F60131
:10473000822F90E3882319F091938150FBCFC20E12
:10474000D11C20E00F2D060F9A81342F307144FFC9
:1047500003C0913309F40150101624F4093018F005
:1047600008E001C001E0AB0177FF02C040E050E08B
:10477000FB01E41BF50BA1E0B0E0AC0FBD1FEA0F9D
:10478000FB1F8EE2A82E4B01801A91080B2D10E022
:104790001195019511094F3FBFEF5B0721F4D60139
:1047A000AC9211966D01641775072CF0841695066E
:1047B00014F4818101C080E3415051093196D60142
:1047C00011967D014017510724F0D6018C936701A3
:1047D000E2CF6417750739F4963320F4953319F452
:1047E000311101C081E3F6018083F701822F90E24D
:1047F000882319F091938150FBCFF701E20FF11D4F
:10480000108280E090E029960FB6F894DEBF0FBECC
:10481000CDBFDF91CF911F910F91FF90EF90DF906F
:10482000CF90BF90AF909F908F9008958F929F925E
:10483000AF92BF92CF92DF92EF92FF920F931F93AE
:10484000CF93DF93EC016B016115710519F0FB014A
:10485000918380837E01FFEFEF1AFF0A0881802F8A
:1048600090E00E944A26892B11F0E701F3CF0D3228
:1048700039F47E0182E0E80EF11C098111E008C0E4
:104880000B3229F47E0192E0E90EF11C098110E05F
:10489000E701219743E050E068E971E0CE010E9412
:1048A0005326892BC1F4239645E050E063E971E07B
:1048B000CE010E945326892B09F42596C114D104F8
:1048C00019F0F601D183C0831111F6C060E070E0E9
:1048D00080E89FE7FAC043E050E060E971E0CE0174
:1048E0000E945326892B59F4C114D10409F4E9C05C
:1048F000F2E0EF0EF11CF601F182E082E2C020E06E
:1049000030E0A901C0E0D0E0F70160EDA62EA00ED6
:1049100089E08A1530F1912F9260B92E812F88702D
:1049200012FF04C0811124C0219622C08111219759
:10493000A5E0B0E00E949A27DC01CB01880F991F07
:10494000AA1FBB1F9C01AD012A0D311D411D511D28
:10495000283989E93807480789E1580748F016607F
:1049600006C09EEFA9120AC013FD40C01860B12E08
:104970008FEFE81AF80A00811B2DC6CF802F8F7D9C
:104980008534A1F580818D3211F4106106C08B321F
:1049900021F0319661E070E004C08181329662E0DE
:1049A00070E080538A3018F0E61BF70B1FC060E000
:1049B00070E060389CE079075CF4DB01AA0FBB1F54
:1049C000AA0FBB1F6A0F7B1F660F771F680F711D31
:1049D0003196DF0111978C9180538A3050F314FF88
:1049E00003C0719561957109C60FD71F11FF08C0EB
:1049F000C114D10429F0CF010197F601918380837E
:104A0000CA01B9010E947026212F2370233019F0AA
:104A10004B015C0106C04B015C01B7FAB094B7F8DA
:104A2000B09420E030E0A901C501B4010E946B26DA
:104A3000882309F43EC0D7FF06C0D195C195D1099E
:104A40000FEA11E002C007EC11E06801F8E1CF1AAB
:104A5000D10890E2E92EF12CCE15DF0574F0F801B3
:104A60002591359145915491C501B4010E94D126FB
:104A70004B015C01CE19DF09EFCF04501109F59409
:104A8000E7940C151D0541F78A2D880F8B2D881F83
:104A90008F3F49F020E030E0A901C501B4010E9438
:104AA0006B26811106C082E290E0909365098093A5
:104AB0006409C501B40109C060E070E080E89FEFBF
:104AC00004C060E070E080EC9FE7DF91CF911F9120
:104AD0000F91FF90EF90DF90CF90BF90AF909F909D
:104AE0008F900895283008F027E03327DA01990FD6
:104AF000311D87FD916000966105710539F43260C2
:104B00002E5F3D9330E32A95E1F708959F3F30F003
:104B100080387105610509F03C5F3C5F3D93913041
:104B200008F08068911DDF93CF931F930F93FF923E
:104B3000EF92192F987F9695E92F96959695E90F04
:104B4000FF27EB5DFD4F99273327EE24FF24A701B4
:104B5000E70105900894079428F4360FE71EF81E25
:104B6000491F511D660F771F881F991F0694A1F7D3
:104B70000590079428F4E70EF81E491F561FC11D23
:104B8000770F881F991F661F0694A1F70590079459
:104B900028F4F80E491F561FC71FD11D880F991FF3
:104BA000661F771F0694A1F70590079420F4490F1C
:104BB000561FC71FD81F990F661F771F881F06949F
:104BC000A9F784911095177041F0D695C795579520
:104BD0004795F794E7941A95C1F7EBECF1E06894E8
:104BE0001590159135916591959105907FE273959A
:104BF000E118F10A430B560BC90BD009C0F7E10CC1
:104C0000F11E431F561FC91FD01D7EF4703311F4CF
:104C10008A95E6CFE894015030F0080F0AF4002797
:104C2000021708F4202F2395022F7A3328F079E316
:104C30007D932A95E9F710C07D932A9589F606940D
:104C400097956795379517951794E118F10A430BD7
:104C5000560BC90BD00998F023957E9173957A3342
:104C600008F070E37C932013B8F77E9170617D9318
:104C700030F0839571E37D9370E32A95E1F7112479
:104C8000EF90FF900F911F91CF91DF91992787FDB2
:104C90009095089591110C943E27803219F0895017
:104CA0008550C8F70895FB01DC014150504088F061
:104CB0008D9181341CF08B350CF4805E65916134EC
:104CC0001CF06B350CF4605E861B611171F3990B5F
:104CD0000895881BFCCF0E94AD2608F481E008955A
:104CE000E89409C097FB3EF4909580957095619586
:104CF0007F4F8F4F9F4F9923A9F0F92F96E9BB273C
:104D00009395F695879577956795B795F111F8CFB7
:104D1000FAF4BB0F11F460FF1BC06F5F7F4F8F4F22
:104D20009F4F16C0882311F096E911C0772321F018
:104D30009EE8872F762F05C0662371F096E8862FB0
:104D400070E060E02AF09A95660F771F881FDAF707
:104D5000880F9695879597F90895990F0008550F34
:104D6000AA0BE0E8FEEF16161706E807F907C0F0F1
:104D700012161306E407F50798F0621B730B840BF9
:104D8000950B39F40A2661F0232B242B252B21F4D3
:104D900008950A2609F4A140A6958FEF811D811D73
:104DA00008950E94E4260C9458270E944A2738F060
:104DB0000E94512720F0952311F00C9441270C9468
:104DC000472711240C948C270E94692770F3959F24
:104DD000C1F3950F50E0551F629FF001729FBB27F2
:104DE000F00DB11D639FAA27F00DB11DAA1F649F8E
:104DF0006627B00DA11D661F829F2227B00DA11D41
:104E0000621F739FB00DA11D621F839FA00D611DC6
:104E1000221F749F3327A00D611D231F849F600DE7
:104E2000211D822F762F6A2F11249F5750409AF010
:104E3000F1F088234AF0EE0FFF1FBB1F661F771F9C
:104E4000881F91505040A9F79E3F510580F00C9467
:104E500041270C948C275F3FE4F3983ED4F386956A
:104E600077956795B795F795E7959F5FC1F7FE2B07
:104E7000880F911D9695879597F90895992788270A
:104E8000089597F99F6780E870E060E008959FEFCC
:104E900080EC089500240A941616170618060906D1
:104EA000089500240A9412161306140605060895A0
:104EB000092E0394000C11F4882352F0BB0F40F428
:104EC000BF2B11F460FF04C06F5F7F4F8F4F9F4F68
:104ED000089557FD9058440F551F59F05F3F71F0EA
:104EE0004795880F97FB991F61F09F3F79F0879551
:104EF0000895121613061406551FF2CF4695F1DFDA
:104F000008C0161617061806991FF1CF8695710569
:104F1000610508940895E894BB2766277727CB019D
:104F200097F90895F999FECF92BD81BDF89A992716
:104F300080B508950E94C727A59F900DB49F900D3E
:104F4000A49F800D911D11240895A1E21A2EAA1B81
:104F5000BB1BFD010DC0AA1FBB1FEE1FFF1FA21729
:104F6000B307E407F50720F0A21BB30BE40BF50B26
:104F7000661F771F881F991F1A9469F760957095AF
:104F8000809590959B01AC01BD01CF010895A29F32
:104F9000B001B39FC001A39F700D811D1124911D0D
:104FA000B29F700D811D1124911D08955058BB278B
:104FB000AA270E94EE270C9458270E944A2738F00F
:104FC0000E94512720F039F49F3F19F426F40C94E5
:104FD00047270EF4E095E7FB0C944127E92F0E9448
:104FE000692758F3BA17620773078407950720F0FB
:104FF00079F4A6F50C948B270EF4E0950B2EBA2FBE
:10500000A02D0B01B90190010C01CA01A0011124CE
:10501000FF27591B99F0593F50F4503E68F11A167A
:10502000F040A22F232F342F4427585FF3CF46950B
:1050300037952795A795F0405395C9F77EF41F162D
:10504000BA0B620B730B840BBAF09150A1F0FF0FF7
:10505000BB1F661F771F881FC2F70EC0BA0F621FE3
:10506000731F841F48F4879577956795B795F795D3
:105070009E3F08F0B0CF9395880F08F09927EE0F68
:105080009795879508950E9457280C9458270E9459
:10509000512758F00E944A2740F029F45F3F29F039
:1050A0000C94412751110C948C270C9447270E9493
:1050B000692768F39923B1F3552391F3951B550B99
:1050C000BB27AA2762177307840738F09F5F5F4FDB
:1050D000220F331F441FAA1FA9F335D00E2E3AF01A
:1050E000E0E832D091505040E695001CCAF72BD032
:1050F000FE2F29D0660F771F881FBB1F2617370783
:105100004807AB07B0E809F0BB0B802DBF01FF27B4
:1051100093585F4F3AF09E3F510578F00C94412729
:105120000C948C275F3FE4F3983ED4F386957795F3
:105130006795B795F7959F5FC9F7880F911D96956D
:10514000879597F90895E1E0660F771F881FBB1FC9
:10515000621773078407BA0720F0621B730B840B76
:10516000BA0BEE1F88F7E09508950E94712788F02A
:105170009F5798F0B92F9927B751B0F0E1F0660F1B
:10518000771F881F991F1AF0BA95C9F714C0B1305C
:1051900091F00E948B27B1E008950C948B27672F24
:1051A000782F8827B85F39F0B93FCCF3869577958B
:1051B0006795B395D9F73EF4909580957095619574
:1051C0007F4F8F4F9F4F08950E94AD2608F48FEFB9
:1051D00008950E94AD26880B990B0895AA1BBB1B4E
:1051E00051E107C0AA1FBB1FA617B70710F0A61BE7
:1051F000B70B881F991F5A95A9F780959095BC0108
:10520000CD010895EE0FFF1F881F8BBF0790F69109
:10521000E02D199481E090E0F8940C942A29FB0188
:10522000DC0102C001900D9241505040D8F7089522
:105230006817790768F4FB01DC01E40FF51FA40F80
:10524000B51F02C002900E9241505040D8F7089509
:085250000C940F29F894FFCF24
:105258000100C33C33CE3EE3EC000000003608DE1C
:1052680008CD078308FE07DC07F00700000000955B
:10527800096809C5093C0960094C093D09494D55AA
:1052880020696E697469616C697A6174696F6E20EE
:10529800756E7375636365737366756C00436865D3
:1052A800636B20494D5520776972696E67206F726C
:1052B80020747279206379636C696E6720706F77E8
:1052C8006572005374617475733A20000D0A0053B7
:1052D80074617274696E6720696E736563742E2ECB
:1052E8002E0048616E646C696E6720696E69745F30
:1052F800747970650048616E646C696E67207465C6
:105308006D705F747970650048616E646C696E6772
:1053180020676574206779726F006E616E00696E30
:1053280066006F76660048616E646C696E6720730C
:10533800746F705F7479706500554E4B4E4F574EC1
:10534800204D455353414745205459504500466127
:0E535800696C656420746F2073656E640000DC
:00000001FF
