:100000000C94E3000C943C070C9415070C940B0122
:100010000C940B010C940B010C940B010C940B0130
:100020000C940B010C940B010C940B010C940B0120
:100030000C940B010C940B010C940B010C940B0110
:100040000C94C4020C940B010C9434030C940E0316
:100050000C940B010C940B010C940B010C940B01F0
:100060000C9466030C940B0100407A10F35A00A024
:10007000724E18090010A5D4E80000E87648170071
:1000800000E40B54020000CA9A3B000000E1F505B1
:10009000000080969800000040420F000000A086FB
:1000A00001000000102700000000E803000000002D
:1000B0006400000000000A000000000001000000D1
:1000C00000002C76D888DC674F0823DFC1DFAE59EB
:1000D000E1B1B796E5E3E453C63AE651997696E87E
:1000E000E6C28426EB898C9B62ED407C6FFCEFBC02
:1000F0009C9F40F2BAA56FA5F490055A2AF75C932D
:100100006B6CF9676DC11BFCE0E40D47FEF520E662
:10011000B500D0ED902E0300943577050080841E45
:10012000080000204E0A000000C80C333333330FA0
:10013000986E12831141EF8D2114893BE65516CF3D
:10014000FEE6DB18D1844B381BF77C1D901DA4BB49
:10015000E424203284725E228100C9F124ECA1E5FE
:100160003D270001020304051112131415160A0B92
:100170000C0D0E0F00000008000201000003040730
:100180000000000000000000000000002500280022
:100190002B0000000000240027002A0004040404AF
:1001A0000404040402020202020203030303030321
:1001B00001020408102040800102040810200102FE
:1001C00004081020571011241FBECFEFD8E0DEBF67
:1001D000CDBF11E0A0E0B1E0ECEFFBE202C0059082
:1001E0000D92AE3AB107D9F727E0AEEAB1E001C00F
:1001F0001D92AF3CB207E1F710E0C3EED0E004C0BF
:100200002197FE010E94D615C23ED107C9F70E9470
:10021000E70C0C94FC150C940000FC01538D448DEC
:10022000252F30E0842F90E0821B930B541710F0A1
:10023000CF96089501970895FC01918D828D9817AE
:1002400061F0828DDF01A80FB11D5D968C91928DBA
:100250009F5F9F73928F90E008958FEF9FEF0895B7
:10026000FC01918D828D981731F0828DE80FF11D80
:10027000858D90E008958FEF9FEF0895FC01918D9B
:10028000228D892F90E0805C9F4F821B91098F7394
:100290009927089584E292E00E943E0121E0892B93
:1002A00009F420E0822F0895FC01848DDF01A80F5E
:1002B000B11DA35ABF4F2C91848D90E001968F738E
:1002C0009927848FA689B7892C93A089B1898C91AD
:1002D000837080648C93938D848D981306C00288FC
:1002E000F389E02D80818F7D80830895EF92FF92C6
:1002F0000F931F93CF93DF93EC0181E0888F9B8D49
:100300008C8D981305C0E889F989808185FD26C008
:10031000F62E0B8D10E00F5F1F4F0F731127E02E8D
:100320008C8DE8120CC00FB607FCFACFE889F9896A
:10033000808185FFF5CFCE010E945401F1CF8B8DD6
:10034000FE01E80FF11DE35AFF4FF0829FB7F894CA
:100350000B8FEA89FB89808180620AC09FB7F8947D
:10036000EE89FF896083E889F989808183708064E0
:1003700080839FBF81E090E0DF91CF911F910F912B
:10038000FF90EF900895CF93DF93EC01888D882341
:10039000C9F0EA89FB89808185FD05C0A889B989F2
:1003A0008C9186FD0FC00FB607FCF5CF808185FFCD
:1003B000F2CFA889B9898C9185FFEDCFCE010E943B
:1003C0005401E7CFDF91CF91089580E090E0892B31
:1003D00029F00E944A0181110C9400000895CF92E7
:1003E000DF92EF92FF920F931F93CF93DF936C01F5
:1003F0007A018B01C0E0D0E0CE15DF0581F0D80195
:100400006D918D01D601ED91FC910190F081E02D6F
:10041000C6010995892B11F02196EECF7E01C70107
:10042000DF91CF911F910F91FF90EF90DF90CF90D0
:10043000089585ED8093BC008091BC0084FDFCCFC5
:100440001092F30108954091CF01262F30E0240F40
:10045000311D21323105DCF42091F3012430C9F43F
:10046000FC0180E090E0861758F43091CF01219193
:10047000DC01A155BE4FA30FB11D2C930196F3CF04
:100480008091CF01680F6093CF0180E0089581E0F3
:10049000089582E0089508958FEF9FEF08958FEFFC
:1004A0009FEF08958091AE0190E09195819591091B
:1004B0000895CF93DF93CB01EA01642F0E942302BA
:1004C000CE01DF91CF910895CF93DF931F92CDB7E7
:1004D000DEB7698361E0CE0101960E94230281E0CC
:1004E00090E00F90DF91CF910895089580E090E023
:1004F00008950E94DC15CF93DF93EC018CB58F7DBE
:100500008CBD8CB5837F8CBD8CB58C7F8CBD8DB53F
:1005100081608DBD8A810E9463078C899D89DF91EE
:10052000CF910C940A073FB7F894809120029091E4
:100530002102A0912202B091230226B5A89B05C0FA
:100540002F3F19F00196A11DB11D3FBFBA2FA92F52
:10055000982F8827820F911DA11DB11DBC01CD01CF
:1005600042E0660F771F881F991F4A95D1F70895BB
:100570002FB7F89460911C0270911D0280911E02A9
:1005800090911F022FBF08951F920F920FB60F92E6
:1005900011242F933F938F939F93AF93BF93809199
:1005A0001C0290911D02A0911E02B0911F02309179
:1005B0001B0223E0230F2D3720F40196A11DB11D4E
:1005C00005C026E8230F0296A11DB11D20931B0232
:1005D00080931C0290931D02A0931E02B0931F02F1
:1005E0008091200290912102A0912202B0912302D9
:1005F0000196A11DB11D8093200290932102A0932A
:100600002202B0932302BF91AF919F918F913F91AE
:100610002F910F900FBE0F901F9018951F920F9261
:100620000FB60F9211242F933F934F935F936F93C5
:100630007F938F939F93AF93BF93EF93FF9384E246
:1006400092E00E945401FF91EF91BF91AF919F9171
:100650008F917F916F915F914F913F912F910F906B
:100660000FBE0F901F9018951F920F920FB60F920A
:1006700011242F938F939F93EF93FF93E091340274
:10068000F09135028081E0913A02F0913B0282FDC7
:1006900012C0908180913D028F5F8F7320913E0246
:1006A000821751F0E0913D02F0E0EC5DFD4F958F37
:1006B00080933D0201C08081FF91EF919F918F91C6
:1006C0002F910F900FBE0F901F9018951F920F92B1
:1006D0000FB60F9211242F933F934F935F936F9315
:1006E0007F938F939F93AF93BF93EF93FF938091EB
:1006F000B900887F803609F49CC068F5883209F417
:100700005BC090F4803109F454C038F4882309F4B4
:10071000F2C0883009F44DC0F2C0883109F44CC0F1
:10072000803209F45DC0EBC0803409F468C048F43D
:10073000803309F455C0883309F0E1C08093F20199
:10074000D4C0803509F44FC0883509F45DC08834C1
:1007500009F0D5C0D2C0883909F4C3C0A8F48837DD
:1007600009F467C038F4883609F463C0803709F4A7
:1007700060C0C5C0883809F4B4C0803909F45FC0CE
:10078000803809F0BCC05BC0803B09F484C038F4F9
:10079000803A09F466C0883A09F47DC0B0C0803C54
:1007A00009F4A3C0883C09F4A0C0883B09F486C0C2
:1007B000A6C08091180210C0909117028091160275
:1007C000981770F5E091170281E08E0F8093170261
:1007D000F0E0EA50FE4F80818093BB0085EC82C040
:1007E0008093F2018AC0E091170281E08E0F80931E
:1007F00017028091BB00F0E0EA50FE4F8083909199
:100800001702809116026AC0E091170281E08E0FF4
:10081000809317028091BB00F0E0EA50FE4F808386
:100820008091F501811169C081E08093F40184EA2F
:100830005DC083E08093F3011092F101CFCF8091EE
:10084000F101803208F04DC0E091F10181E08E0F9E
:100850008093F1018091BB00F0E0EF52FE4F808366
:10086000BDCF85EC8093BC001092F3018091F10123
:10087000803230F4E091F101F0E0EF52FE4F10824F
:100880006091F10170E081ED91E0E0E0F0E0099528
:100890001092F10134C084E08093F3011092D001F2
:1008A0001092CF01E0E0F0E009958091CF01811135
:1008B00005C081E08093CF011092AF01E091D0019B
:1008C00081E08E0F8093D001F0E0E155FE4F8081F2
:1008D0008093BB009091D0018091CF01981708F4CC
:1008E0007DCF85E88093BC000AC085EC8093BC0076
:1008F0001092F30104C01092F2010E941902FF91BC
:10090000EF91BF91AF919F918F917F916F915F9187
:100910004F913F912F910F900FBE0F901F90189500
:1009200061E00C947B0260E00C947B02FC0120816E
:100930003181828193812817390719F0822F0C9415
:10094000630708958EBD00000DB407FEFDCF8EB580
:1009500008951F93CF93DF93EC01162F0E94930409
:10096000812F0E94A204182FCE010E949004812F93
:10097000DF91CF911F91089561EE0C94A9040F931C
:100980001F93CF93DF938C01C62FD42F0E94930423
:100990008C2F8F7180620E94A204C82F8D2F0E941D
:1009A000A204C8010E9490048C2FDF91CF911F9167
:1009B0000F910895CF92DF92EF92FF920F931F93C2
:1009C000CF93DF937C01162F6A01C22F0E949304FC
:1009D000812F8F7180620E94A204D82F8601CC23C0
:1009E00039F0F80181918F010E94A204C150F7CF24
:1009F000C7010E9490048D2FDF91CF911F910F911D
:100A0000FF90EF90DF90CF9008951F93CF93DF93E7
:100A1000EC01162F0E949304812F8F710E94A20473
:100A20008FEF0E94A204182FCE010E949004812F04
:100A3000DF91CF911F910895CF93DF93EC0160E098
:100A40000E94050581FD0EC0482F426060E0CE0186
:100A50000E94BF0465E070E080E090E0DF91CF91FC
:100A60000C94B007DF91CF910895CF93DF93EC0101
:100A700060E00E949604888999890E940A076DE1C6
:100A8000CE010E94050581FF07C0888999890E94CF
:100A90000A07CE010E94BC0460E0CE010E94050559
:100AA000482F4E7F60E0CE010E94BF0462E0CE017D
:100AB0000E940505E2E6F1E0E49141E050E001C06A
:100AC000440FEA95EAF7482B62E0CE01DF91CF911F
:100AD0000C94BF04CF93DF93EC010E941C0560E0EF
:100AE000CE010E940505482F416060E0CE010E94C2
:100AF000BF0440E767E0CE010E94BF0461E0CE0181
:100B00000E9496048985882349F02E85AE01475FAF
:100B10005F4F6AE0CE010E94DA0414C062E0CE01A9
:100B20000E940505E2E6F1E0E49121E030E001C039
:100B3000220FEA95EAF72095422F482362E0CE0182
:100B40000E94BF046DE1CE010E94050581FF05C032
:100B5000CE01DF91CF910C94BC04DF91CF91089529
:100B6000CF93DF93CDB7DEB728970FB6F894DEBFEB
:100B70000FBECDBFAC019CEC99839A839B839C8371
:100B80009D831E821F8218869A01E1E0211531059E
:100B9000C9F0611103C04115510569F4D901A7706D
:100BA000BB27AA5FBE4F8C91A1E0B0E0AC0FBD1F88
:100BB000AE0FB11D8C9383E0369527958A95E1F7AA
:100BC000EF5FE4CF611102C0452B39F4E62FF0E06E
:100BD000EA5FFE4F8081898305C0F0E0EB5FFE4F46
:100BE00080818A8329813A814B815C816D817E81FC
:100BF0008F81988528960FB6F894DEBF0FBECDBFC3
:100C0000DF91CF910895FC01228190818181223072
:100C100030F0292F382F81E0838380E02CC0292FEA
:100C2000382F4091570450915804B901642375231B
:100C30008091190390911A036817790739F0209170
:100C40005404309155048091560415C0CA01809512
:100C5000909563E0880F991F6A95E1F782239323AB
:100C6000892B41F083E0440F551F8A95E1F74760D7
:100C70002423352385E031832083828381E0089516
:100C800008958F929F92AF92BF92CF92DF92EF9290
:100C9000FF920F931F93CF93DF93CDB7DEB72897C3
:100CA0000FB6F894DEBF0FBECDBF142F0E94B00563
:100CB00049015A016B017C018091110382FD06C03C
:100CC00080911603909117030E94350580911603B9
:100CD00090911703112311F060E001C061E00E94C0
:100CE0003F0B009116031091170389829A82AB8201
:100CF000BC82CD82DE82EF82F886F8012685AE01C5
:100D00004F5F5F4F6AE0C8010E94DA04F801268550
:100D1000AE014F5F5F4F60E1C8010E94DA04F80145
:100D2000478161E1C8010E94BF0400911B03E0906C
:100D30001603F09017036FEFC7010E94A90480FF0C
:100D40000DC06FEFC7010E94A90484FFF4CF40E1FA
:100D500067E0C7010E94BF0410E02EC0F7011781B1
:100D6000101708F4012FF7018085811102C0101BB4
:100D700001C010E0C7010E94930480EA0E94A2040F
:100D80008EEEC82E82E0D82E002339F0F601819134
:100D90006F010E94A2040150F7CF112329F080E0D7
:100DA0000E94A2041150F9CFC7010E94900461E093
:100DB000C7010E94960411E08091110382FD16C0C4
:100DC0004091E8025091E9026091EA027091EB02D1
:100DD00080911603909117030E94540B182F60E026
:100DE00080911603909117030E943F0B812F289644
:100DF0000FB6F894DEBF0FBECDBFDF91CF911F912C
:100E00000F91FF90EF90DF90CF90BF90AF909F90A9
:100E10008F9008958230910538F0880F991F880FC0
:100E2000991F05970197F1F708951F920F920FB63A
:100E30000F9211242F933F934F935F936F937F9360
:100E40008F939F93AF93BF93EF93FF93E091020132
:100E5000F09103010995FF91EF91BF91AF919F919F
:100E60008F917F916F915F914F913F912F910F9053
:100E70000FBE0F901F9018951F920F920FB60F92F2
:100E800011242F933F934F935F936F937F938F938F
:100E90009F93AF93BF93EF93FF93E0910001F09185
:100EA00001010995FF91EF91BF91AF919F918F91B2
:100EB0007F916F915F914F913F912F910F900FBE56
:100EC0000F901F90189590E0FC01EC58FE4F249174
:100ED000FC01E055FE4F3491FC01E456FE4FE491D5
:100EE000EE2309F43CC0222339F1233091F038F489
:100EF0002130A9F0223001F584B58F7D12C0273052
:100F000091F02830A1F02430B9F4809180008F7DD9
:100F100003C0809180008F77809380000DC084B5DE
:100F20008F7784BD09C08091B0008F7703C0809116
:100F3000B0008F7D8093B000F0E0EE0FFF1FE85708
:100F4000FE4FA591B4919FB7F894611104C08C91A4
:100F50003095382302C0EC913E2B3C939FBF0895FF
:100F60008F929F92AF92BF92CF92DF92EF92FF92B9
:100F70006B017C010E9493024B015C01C114D104FE
:100F8000E104F104F1F00E949302DC01CB01881925
:100F90009909AA09BB09883E9340A105B10570F3E0
:100FA00021E0C21AD108E108F10888EE880E83E03A
:100FB000981EA11CB11CC114D104E104F10419F75D
:100FC000DDCFFF90EF90DF90CF90BF90AF909F90DC
:100FD0008F900895AF92BF92CF92DF92EF92FF92DF
:100FE0000F931F93CF93DF938091110381FD14C062
:100FF0002091B6033091B70380FD06C0A9014C5182
:1010000053404937510544F02C51334011F008F05A
:101010003DC18E7F8093110301E010E074E2E72E62
:1010200079E0F72EC0901603D0901703F601808167
:1010300091818F3F910509F429C1828193818F3F6E
:10104000910509F423C167E1C6010E940505C82F77
:10105000C17080FD1BC16FEFC6010E94A904C09042
:101060001603D0901703C6010E94930480E60E94E5
:10107000A2048FEF0E94A204D82FC6010E94900400
:10108000D13258F062EEC6010E94A90462E070E01D
:1010900080E090E00E94B00701C0CD2FC0931B03F9
:1010A000C83038F46AE070E080E090E00E94B00759
:1010B000B9CFC0901603D0901703F60187818C1723
:1010C00008F4C82FF6019085911103C0D82FDC1BBE
:1010D00001C0D0E0C6010E94930481E60E94A204F0
:1010E0006EEEA62E62E0B62EC11102C0CD2F08C052
:1010F0008FEF0E94A204F50181935F01C150F4CFEC
:10110000CC2329F08FEF0E94A204C150F9CFC60171
:101110000E94900440E767E0C6010E94BF0420914E
:10112000F0023091F102C901009759F0482F477041
:10113000463008F077CF53E0969587955A95E1F7BA
:10114000F3CF9091F4024091190350911A032417A0
:10115000350709F042C0923809F464CF903889F419
:1011600024323940F9F0F092F102E092F00262E0AC
:1011700084E299E00E9452096AE070E080E090E029
:101180004CC0933C79F42115310561F03093EF02A6
:101190002093EE021092F1021092F00260E080E0E3
:1011A00090E06FC080911003882319F097FF0CC066
:1011B00002C0913C49F48CE6890F833028F0983CBA
:1011C00019F0933809F060C08EEE92E00E94A40BF3
:1011D000823009F027CF83E85AC02034310509F066
:1011E0004EC0923C11F58091110383FD1BCF443218
:1011F00029E0520709F416CF8091EE029091EF0298
:101200009093F1028093F0025093EF024093EE022C
:101210006091560470E080E090E00E94B00762E0C8
:101220008091F0029091F1022CC08EEE92E00E942B
:10123000A40BC82F8091E7028823E9F0809118035E
:10124000882379F090E001979C01220F331F820FD1
:10125000931FF80102C0EE0FFF1F8A95E2F7CF013E
:1012600002C080E090E064E023E0880F991F2A9597
:10127000E1F70E945209C23009F0D4CEACCF61E050
:10128000C9010E945209CECE892F01C080E0DF91B2
:10129000CF911F910F91FF90EF90DF90CF90BF9073
:1012A000AF900895CF92DF92EF92FF920F931F932A
:1012B000CF93DF9300D000D0CDB7DEB79C012115CE
:1012C000310561F0422F4770463030F443E03695E7
:1012D00027954A95E1F7F3CF80E09AC0162F7C015D
:1012E0000091F402015419821A821B821C829A8393
:1012F00089836B83CE0101960E9403064C816B812A
:1013000089819A810E944106113041F5811102C004
:1013100010E030C089819A81E816F90609F50F3787
:10132000F8F481EC8093F4028091EE029091EF0248
:101330009093F1028093F0029A8389831B831C822D
:10134000CE0101960E94030688E080931B034C8126
:101350006B8189819A810E94410602C08823C1F273
:1013600089819A81E816F90621F0112379F013306A
:1013700069F011E08091110382FD06C0809116038F
:10138000909117030E946A05812F42C00F3788F79A
:101390008091110382FF1AC04091E8025091E90246
:1013A0006091EA027091EB0280911603909117030D
:1013B0000E94540B809111038B7F8093110360E096
:1013C00080911603909117030E943F0B80911603A2
:1013D000909117030E946A050E94B8026B017C017C
:1013E0000E94EA07813C29F20E94B802AB01BC01CD
:1013F0004C195D096E097F098091EC029091ED0214
:10140000A0E0B0E084179507A607B70748F780CF9C
:101410000F900F900F900F90DF91CF911F910F9130
:10142000FF90EF90DF90CF9008954F925F926F9270
:101430007F929F92AF92BF92CF92DF92EF92FF92F4
:101440000F931F93CF93DF937C018BE1C82E83E032
:10145000D82E92E2A92EB12C009104011091050121
:10146000C801019690930501809304010E94B8027F
:101470004090120350901303609014037090150372
:10148000DC01CB0184199509A609B7094997A10583
:10149000B10590F0C6010197F1F7809111038460C6
:1014A0008093110380911603909117030E943505D4
:1014B000912CD0E0C2E042C00E94EA0787FFD6CF5D
:1014C000E9CF82E0D1113FC094E928E1D29FB00179
:1014D0001124A501461B570B4931510510F048E175
:1014E00050E028E0240F20931B0320911903309132
:1014F0001A033093EF022093EE021092F102109241
:10150000F0021093F3020093F2029093F40280939E
:10151000F5024115510531F06E0D7F1D86EF92E009
:101520000E94E11560E080E090E00E94520988236B
:1015300061F0C150DF5FCC23A1F0912CC13009F6DE
:1015400089E496E9C2CF95E9C0CF62E070E080E01F
:1015500090E00E94B007939482E0891578F7D0E07C
:1015600001C0D1E08091110382FF1CC04091E802CC
:101570005091E9026091EA027091EB0280911603AA
:10158000909117030E94540BD82F809116039091CD
:1015900017030E946A0560E080911603909117037B
:1015A0000E943F0B809111038B7F80931103DD23F9
:1015B00061F0CC23A9F00E94B802609312037093EB
:1015C000130380931403909315038EE991E00E9416
:1015D000310B64E670E080E090E00E94B0073CCF01
:1015E000DF91CF911F910F91FF90EF90DF90CF90FF
:1015F000BF90AF909F907F906F905F904F900895B5
:1016000090E0FC01E055FE4F2491FC01E456FE4FB2
:101610008491882399F090E0880F991FFC01EE5681
:10162000FE4FA591B491FC01E857FE4F859194912E
:101630008FB7F894EC91E22BEC938FBF089500974D
:1016400069F0FC0101900020E9F73197AF01481BD8
:10165000590BBC0184E292E00C94EF0180E090E031
:101660000895CF93DF930E941F0BEC0186E891E071
:101670000E941F0B8C0F9D1FDF91CF9108951F9328
:10168000CF93DF93EC01162F61E00E940505482FF0
:10169000112311F0416001C04E7F61E0CE01DF9166
:1016A000CF911F910C94BF048F929F92AF92BF92E3
:1016B000CF92DF92EF92FF92CF93DF93EC016A011A
:1016C0007B010E94B8024B015C0167E1CE010E94E0
:1016D000050584FD29C06FEFCE010E94A90484FF97
:1016E000F4CF40E167E0CE010E94BF0460E0CE018C
:1016F0000E94960461E0CE010E9496040E94B80206
:10170000DC01CB0188199909AA09BB098C159D0533
:10171000AE05BF05D0F260E0CE010E949604CE0176
:101720000E94BC0480E005C060E0CE010E949604E7
:1017300081E0DF91CF91FF90EF90DF90CF90BF904D
:10174000AF909F908F900895EF92FF920F931F9309
:10175000CF93DF938C01E0901B03F12CE7012897D6
:10176000FC0196818CE6890F833020F0983C09F0CB
:10177000C7C003C0943909F4DAC08BE6890F823000
:1017800018F0983C09F088C02091C0033091C10343
:10179000AE01420F531F4139510518F01092BF039B
:1017A000ADC08091BF03882309F40AC1963921F0A6
:1017B000F80197818913A2C04091BC035091BD03E9
:1017C000F801848195814817590709F097C08091E5
:1017D000C2039091C303AE0166EF72E0820F931FC4
:1017E0000E94E1158091C0039091C103C80FD91FD9
:1017F000D093C103C093C003F8018681863931F0CC
:101800008091BF0381508093BF0376C01092BF03C5
:10181000F80187818093BE03833809F486C0A091C4
:10182000B603B091B7038CEA93E08A1B9B0B8C172D
:101830009D0730F18AE0E8EBF3E001900D928A9584
:10184000E1F78091B6039091B7036091C203709164
:10185000C3034091C0035091C1030A960E94E11551
:101860008091C0039091C1030A962091B6033091F4
:10187000B703820F931F9093B7038093B6033CC0C6
:1018800080911603909117030E94350580911103F2
:1018900081608093110332C0A091B603B091B70369
:1018A000CD018C5193408C0F9D1F8B39910530F5E4
:1018B00088E0EEEEF2E001900D928A95E1F7E0917A
:1018C000B603F091B703D187C0878091B60390919A
:1018D000B703AE0166EF72E00A960E94E115F2E0EE
:1018E000EF0EF11C8091B6039091B703E80EF91E3C
:1018F000F092B703E092B60381E062C080E060C07E
:10190000933851F688E0EEEEF2E0A8EBB3E00190F8
:101910000D928A95E1F786EF92E09093C30380934E
:10192000C203D093C103C093C00382E049C0F80151
:101930008781873008F032CF4091BC035091BD03BE
:10194000F801248135814217530749F44091B803C7
:101950005091B903208131814217530769F2F8E1B0
:101960008F9FC00111244091B6035091B7032CEA18
:1019700033E0241B350B281739075CF480911103E1
:1019800081608093110380911603909117030E9448
:10199000350588E0EEEEF2E0A8EBB3E001900D92A1
:1019A0008A95E1F7AE0166EF72E08091C2039091F3
:1019B000C3030E94E115D093C103C093C00320CF9D
:1019C000DF91CF911F910F91FF90EF900895CF93EA
:1019D000DF93CDB7DEB7CB54D1090FB6F894DEBF95
:1019E0000FBECDBF789484B5826084BD84B581601C
:1019F00084BD85B5826085BD85B5816085BD8091DA
:101A00006E00816080936E00109281008091810051
:101A10008260809381008091810081608093810049
:101A2000809180008160809380008091B10084600B
:101A30008093B1008091B00081608093B00080916C
:101A40007A00846080937A0080917A00826080932B
:101A50007A0080917A00816080937A0080917A0088
:101A6000806880937A001092C100E0913402F09176
:101A7000350282E08083E0913002F09131021082E1
:101A8000E0913202F091330280E1808310923C02B7
:101A9000E0913802F091390286E08083E0913602CD
:101AA000F0913702808180618083E0913602F0916D
:101AB0003702808188608083E0913602F09137029E
:101AC000808180688083E0913602F09137028081C6
:101AD0008F7D80838091CF029091D0022091D1029E
:101AE0003091D2028217930711F00E94000B80916F
:101AF000D1029091D2022091CF023091D0022817CA
:101B0000390711F00E94000B1FB7F8948091190259
:101B1000811124C0E6EAF1E08491EAEBF1E09491CE
:101B2000E82FF0E0EE0FFF1FEE56FE4FA591B491A7
:101B3000EC91E92321F461E08AE00E9463078AE0E6
:101B40000E94000B8CB580618CBD8CB580648CBD0F
:101B50008DE00E94000B8BE00E94000B8091190227
:101B60008F5F809319021FBF60E08FEC92E00E94AC
:101B7000960461E08FEC92E00E947B0265E070E0E9
:101B800080E090E00E94B0074CE060E08FEC92E0D3
:101B90000E94BF044FE564E08FEC92E00E94BF0416
:101BA00066E08FEC92E00E940505877D182F106299
:101BB0008BE990E0A0E0B0E08093DF029093E00238
:101BC000A093E102B093E202412F66E08FEC92E035
:101BD0000E94BF0466E08FEC92E00E940505181792
:101BE00009F47BC166E08FEC92E00E94050566E097
:101BF0008FEC92E00E94050545E550E060E070E062
:101C00004093DF025093E0026093E1027093E2029E
:101C1000482F477D66E08FEC92E00E94BF0466E0AB
:101C20008FEC92E00E9405058FEC92E00E949304F5
:101C300080E50E94A20483E70E94A2048FEC92E058
:101C40000E94900440E06DE18FEC92E00E94BF049E
:101C500040E06CE18FEC92E00E94BF041092D7024A
:101C600040E767E08FEC92E00E94BF044CE465E03F
:101C70008FEC92E00E94BF0462EE8FEC92E00E9433
:101C8000A9048FEC92E00E94BC048FEC92E00E94C9
:101C90001C0560E08FEC92E00E940505482F4E7F06
:101CA00060E08FEC92E00E94BF0481E090E09093AE
:101CB0001A03809319038091160390911703FC0176
:101CC000208131812F3F3105A9F0228133812F3FBF
:101CD000310509F006C10EC02093560436E0D32E1C
:101CE000DA94FFEFDF1281C1809116039091170300
:101CF0000E946A0581E391E00E94310B96EF292E44
:101D000033243A942AE0422E512C612C712C0E94EB
:101D1000EA0780911A0281110CC0CE0101960E943F
:101D2000150A84E491E00E94310B81E080931A024D
:101D3000CBC08AE9A82EB12CE090B603F090B7038F
:101D4000FCE1EF16F3E0FF0609F008F4BDC0909047
:101D500022030091240310912503A80103321105E9
:101D600010F042E250E066E273E0CE0101960E947C
:101D7000E115C101801B910BE80EF91EF092B7032B
:101D8000E092B603A501401B510BB8016A5D7C4F80
:101D90008CE193E00E94EA158DE49816B1F1891563
:101DA00080F0E9E49E128BC08EE491E00E94310B3A
:101DB000CE0101960E94150ACE0101960E94150AD5
:101DC000BBCFF2E59F1689F084E5981278C081E6D2
:101DD00091E00E94310B8E010D5F1F4F24E14CE01A
:101DE00060E070E080EA91E40DC084E791E00E9439
:101DF000310B8E010D5F1F4F24E14CE061EA70E072
:101E000084EB92E40E94171397CF8EE0FE01339685
:101E1000A1ECB2E001900D928A95E1F72091C10208
:101E20003091C2026901330FEE08FF08F7FE25C0AA
:101E30006DE284E292E00E94760122273327A90115
:101E40002C193D094E095F0924961FAE249703E221
:101E500010E00C0F1D1F005E1F4FCA01B901A30146
:101E600092010E94A015605DF80162938F01211517
:101E700031054105510589F71AC0A701960124963D
:101E80001FAE249703E210E00C0F1D1F005E1F4FD2
:101E9000CA01B901A30192010E94A015605DF80179
:101EA00062938F01211531054105510589F7C8015C
:101EB0000E941F0B86E891E00E941F0B3DCF89E82E
:101EC00091E00E94310B38CF6AE070E080E090E052
:101ED0000E94B0070E94E5011ACF81E08093D502ED
:101EE00081CE44E665E00E94BF0460E08091160365
:101EF000909117030E943F0B009116031091170356
:101F00006DE1C8010E940505482F44606DE1C801DC
:101F10000E94BF046CE1C8010E940505482F4F6371
:101F20006CE1C8010E94BF0481E0F80180878091C4
:101F3000190390911A0366E070E00E94C215482FC1
:101F4000440F4B5FF0E14F9FA0011124456064E016
:101F500080911603909117030E94BF0489E190E0DD
:101F6000A0E0B0E08093E8029093E902A093EA0237
:101F7000B093EB028BE490E09093ED028093EC023F
:101F80002091190330911A0340E08FEF9FEFB901C0
:101F900068237923672B39F073E0880F991F7A95AE
:101FA000E1F74F5FF4CF409318038095909590939D
:101FB00058048093570463E0969587956A95E1F7F6
:101FC000A901482359235093550440935404009782
:101FD00009F482CE43E0369527954A95E1F753E020
:101FE000969587955A95E1F7F2CF6D2D81E090E0B7
:101FF0000E94B005009116031091170325962FAF8C
:10200000259726963FAF269727964FAF2797289676
:102010005FAF289729966FAF29972A967FAF2A97A7
:102020002B968FAF2B972C969FAF2C97ED2CF12CE6
:10203000D1100BC0F801468550E0BE016C5B7F4FAC
:10204000C80109960E94E11503C0F1E0DF1207C044
:10205000F701E259FE4F6491F801268505C0F701AA
:10206000E259FE4F649121E0AE014C5B5F4FC80125
:102070000E94DA04F701E859FE4F6491F8014781A4
:10208000C8010E94BF0462E0C8010E940505F70173
:10209000EE59FE4FE49141E050E001C0440FEA9553
:1020A000EAF7482B62E0C8010E94BF0419CE2F92C4
:1020B0003F924F925F926F927F928F929F92AF92D8
:1020C000BF92CF92DF92EF92FF920F931F93CF9325
:1020D000DF93E4E2F2E01382128248EE53E060E024
:1020E00070E0448355836683778381E191E0918337
:1020F000808385EC90E09587848784EC90E09787D7
:10210000868780EC90E0918B808B81EC90E0938BC4
:10211000828B82EC90E0958B848B86EC90E0978BA1
:10212000868B118E128E138E148E83EE282E85E0F0
:10213000382ED10113961C921E921297F1014483FE
:1021400055836683778383E291E091838083EBEC10
:10215000F5E097E0E92EF12CF182E08208E010E052
:10216000138302831682D0E2D7831086C5E0C68728
:1021700025E0822E912CA12CB12C848A958AA68AE6
:10218000B78A118689E594E0DC01D096FC93EE9342
:102190009F972EE834E0309329052093280526E305
:1021A00035E030933505209334052AE235E09896E2
:1021B0003C932E939797FC0113A614A615A616A67A
:1021C00012A611A61082EFEEF5E040E85AE166E0B3
:1021D00070E0448355836683778320E8278740E453
:1021E00052E46FE070E0408B518B628B738B40EC5C
:1021F00051EE64EE70E0448B558B668B778B4CE52B
:102200005FEE66EA73E440936F0650937006609346
:1022100071067093720640E050E068EA71E4409302
:10222000730650937406609375067093760684E681
:1022300090E090937F0680937E0640E050E060E857
:102240007FE34093C8065093C9066093CA06709313
:10225000CB064093CC065093CD066093CE06709388
:10226000CF064093D0065093D1066093D206709368
:10227000D30688EE93E09093D5068093D4063AE98E
:10228000432E39E9532E652C3EE3732E4092D60639
:102290005092D7066092D8067092D90638E03093F3
:1022A000DA0640931507509316076093170770934B
:1022B00018074093190750931A0760931B077093F0
:1022C0001C0740931D0750931E0760931F077093D0
:1022D0002007109226071092250781E090E0909346
:1022E00028078093270710922A07109229079093B6
:1022F0002C0780932B0710922E0710922D07109217
:10230000300710922F071092320710923107109267
:102310003407109233078FEF9FEF90933607809327
:102320003507A9E74A2EA9EE5A2EACE16A2EA1E4A0
:102330007A2E409237075092380760923907709290
:102340003A07B5E34B2EBAEF5B2EBEE86B2EBCE32B
:102350007B2E40923B0750923C0760923D07709263
:102360003E078BE380933F0783E48093400781E43B
:102370008093410789E4809342078CE1809343076F
:10238000109244073093450790E19093460788E107
:1023900080934707ABE1DA2ED092480710924907A5
:1023A00030934A0790934B0780934C078DE18093BD
:1023B0004D0781E080934E07B2E06B2E60924F078D
:1023C000A3E0DA2ED0925007B4E07B2E7092510732
:1023D000C0935207A6E0CA2EC0925307BAE15B2E03
:1023E000509254078093550760925607D092570732
:1023F00070925807C0935907C0925A07A9E1CA2E94
:10240000C0925B07B7E3CB2EC0925C07A8E3CA2E4D
:10241000C0925D0710925E0710925F07B0E4CB2E6A
:10242000C092600780936107ABE67A2E70926207D4
:10243000D09363072093640780936507BCE67B2EE7
:102440007092660710926707A7E07A2E709268076D
:10245000BAE67B2E70926907D0936A07ADE07A2EB8
:1024600070926B07B4E27B2E70926C07A5E27A2E15
:1024700070926D07B6E27B2E70926E07A3E67A2EFD
:1024800070926F07B7E27B2E7092700720937107EE
:1024900020937207A9E67A2E70927307209374072F
:1024A000C0927507BEE1CB2EC0927607AFE1CA2E6F
:1024B000C0927707B5E7CB2EC0927807A3E2CA2E69
:1024C000C092790720937A0720E720937B07309307
:1024D0007C0780937D0722E720937E0724E72093E3
:1024E0007F072CE020938007D09281072AE0209379
:1024F00082071092830722E12093840726E120932C
:1025000085072FE0209386072BE020938707809391
:1025100088079093890710928A073382228288E67F
:102520008183158640939707509398076093990786
:1025300070939A0740939B0750939C0760939D0765
:1025400070939E0740939F075093A0076093A10745
:102550007093A2071092B1071092B2071092B307BE
:102560001092B40786E990E09093C8078093C7075C
:102570009093CA078093C9071092CC071092CB079B
:102580001092CE071092CD0786E00E94000B85E0E6
:102590000E94000B89E00E94000B8AE00E94000B61
:1025A000E1ECF2E0F786E686118B008B148AD58B7E
:1025B000168AC48F82A293A2A4A2B5A2178A8FEC16
:1025C00092E090931703809316038CE193E090932D
:1025D000B7038093B60384EC93E09093C303809396
:1025E000C20388EB93E090930F0380930E03109245
:1025F00012031092130310921403109215031092F9
:1026000011031092100316A2DF91CF911F910F9129
:10261000FF90EF90DF90CF90BF90AF909F908F9002
:102620007F906F905F904F903F902F900895EF9222
:102630000F931F93CF93DF93E80147FD02C034E06F
:1026400001C034E1042E000C550B57FF03C0519517
:1026500041955109E32E022F242FAE010E9437131A
:10266000CE01DF91CF911F910F91EF900895A9E0D6
:10267000B0E0EDE3F3E10C946F156A01122FB02E78
:102680002BE3201720F0FF24F394F00E02C02CE37C
:10269000F22E0F2D27E0AE014F5F5F4F0E94911485
:1026A000BC014981842F8970813031F0E1FC06C082
:1026B000E0FE06C090E205C09DE203C09BE201C0BF
:1026C00090E05E2D507143FF3CC0911102C083E049
:1026D00001C084E0811718F4212F281B01C020E0DD
:1026E00051110BC0F601822F30E2882319F031938B
:1026F0008150FBCFC20ED11C20E0992329F0D601D6
:102700009C93F60131966F01C6010396E2FE0AC062
:102710003EE4D6013C9341E411964C9311971296F6
:102720003C9306C03EE6F601308341E641833283A6
:10273000FC01322F40E2332309F442C0419331506F
:10274000FACF42FF44C0911102C083E001C084E08F
:10275000811718F4212F281B01C020E051110BC054
:10276000F601822F30E2882319F031938150FBCF9C
:10277000C20ED11C20E0992329F0D6019C93F601CA
:1027800031966F01C6010396E2FE0BC039E4D60113
:102790003C933EE411963C93119736E412963C9399
:1027A00007C039E6F60130833EE6318336E63283F0
:1027B000FC01322F40E2332319F041933150FBCF1B
:1027C000FC01E20FF11D10828EEF9FEFA6C021E009
:1027D00030E0911102C020E030E0161617061CF41C
:1027E000FB01319602C0E1E0F0E02E0F3F1FBB205D
:1027F00021F0EB2DF0E0319602C0E0E0F0E02E0F8A
:102800003F1FE12FF0E02E173F071CF4121B212F72
:1028100001C020E08E2D887159F4F601822F30E23C
:10282000882319F031938150FBCFC20ED11C20E0D8
:10283000992329F0D6019C93F60131966F0151112D
:102840000BC0F601822F90E3882319F091938150F9
:10285000FBCFC20ED11C20E00F2D060F9A81342F22
:10286000307144FF03C0913309F40150101624F471
:10287000093018F008E001C001E0AB0177FF02C0A9
:1028800040E050E0FB01E41BF50BA1E0B0E0AC0F31
:10289000BD1FEA0FFB1F8EE2A82E4B01801A910884
:1028A0000B2D10E01195019511094F3FBFEF5B070C
:1028B00021F4D601AC9211966D01641775072CF0C6
:1028C0008416950614F4818101C080E341505109BA
:1028D0003196D60111967D014017510724F0D6019B
:1028E0008C936701E2CF6417750739F4963320F4AF
:1028F000953319F4311101C081E3F6018083F701AA
:10290000822F90E2882319F091938150FBCFF70139
:10291000E20FF11D108280E090E02996ECE00C942B
:102920008B15283008F027E03327DA01990F311D85
:1029300087FD916000966105710539F432602E5F64
:102940003D9330E32A95E1F708959F3F30F08038BA
:102950007105610509F03C5F3C5F3D93913008F0E3
:102960008068911DDF93CF931F930F93FF92EF9297
:10297000192F987F9695E92F96959695E90FFF2741
:10298000EE53FF4F99273327EE24FF24A701E701D9
:1029900005900894079428F4360FE71EF81E491F87
:1029A000511D660F771F881F991F0694A1F7059088
:1029B000079428F4E70EF81E491F561FC11D770F14
:1029C000881F991F661F0694A1F70590079428F4A5
:1029D000F80E491F561FC71FD11D880F991F661F6C
:1029E000771F0694A1F70590079420F4490F561F0E
:1029F000C71FD81F990F661F771F881F0694A9F756
:102A000084911095177041F0D695C79557954795C5
:102A1000F794E7941A95C1F7E8E6F0E0689415900A
:102A2000159135916591959105907FE27395E11827
:102A3000F10A430B560BC90BD009C0F7E10CF11E8C
:102A4000431F561FC91FD01D7EF4703311F48A95A1
:102A5000E6CFE894015030F0080F0AF4002702177F
:102A600008F4202F2395022F7A3328F079E37D9301
:102A70002A95E9F710C07D932A9589F606949795D3
:102A80006795379517951794E118F10A430B560B84
:102A9000C90BD00998F023957E9173957A3308F08D
:102AA00070E37C932013B8F77E9170617D9330F0D2
:102AB000839571E37D9370E32A95E1F71124EF90FC
:102AC000FF900F911F91CF91DF91992787FD9095EE
:102AD00008952F923F924F925F926F927F928F92C2
:102AE0009F92AF92BF92CF92DF92EF92FF920F939D
:102AF0001F93CF93DF93CDB7DEB7CA1BDB0B0FB6A7
:102B0000F894DEBF0FBECDBF09942A883988488863
:102B10005F846E847D848C849B84AA84B984C884F9
:102B2000DF80EE80FD800C811B81AA81B981CE0FF0
:102B3000D11D0FB6F894DEBF0FBECDBFED010895D5
:102B4000A1E21A2EAA1BBB1BFD010DC0AA1FBB1FB1
:102B5000EE1FFF1FA217B307E407F50720F0A21B23
:102B6000B30BE40BF50B661F771F881F991F1A9490
:102B700069F760957095809590959B01AC01BD01BA
:102B8000CF010895AA1BBB1B51E107C0AA1FBB1FA1
:102B9000A617B70710F0A61BB70B881F991F5A95E9
:102BA000A9F780959095BC01CD010895EE0FFF1F08
:102BB0000590F491E02D099481E090E0F8940C9454
:102BC000FC15FB01DC0102C001900D924150504008
:102BD000D8F708956817790768F4FB01DC01E40F62
:102BE000F51FA40FB51F02C002900E924150504035
:0C2BF000D8F708950C94E115F894FFCF7D
:102BFC00400640060100C33C33CE3EE3EC0000002F
:102C0C00007601EF010D01C3013E011C01300100F2
:102C1C000000006402590276024B0252024F024C31
:102C2C00025374617274696E6720696E73656374A4
:102C3C002E2E2E00436F6E6E6563746564004861C2
:102C4C006E646C696E6720696E69745F7479706507
:102C5C000048616E646C696E672074656D705F749A
:102C6C007970650048616E646C696E672067657485
:102C7C00206779726F000D0A00554E4B4E4F574E20
:102C8C00204D45535341474520545950450046610A
:0E2C9C00696C656420746F2073656E640000BF
:00000001FF
